
Controller_SAMD51.elf:     file format elf32-littlearm

Sections:
Idx Name          Size      VMA       LMA       File off  Algn
  0 .text         00007224  00000000  00000000  00010000  2**6
                  CONTENTS, ALLOC, LOAD, READONLY, CODE
  1 .relocate     000004c4  20000000  00007224  00020000  2**3
                  CONTENTS, ALLOC, LOAD, DATA
  2 .bkupram      00000000  47000000  47000000  000204c4  2**0
                  CONTENTS
  3 .qspi         00000000  04000000  04000000  000204c4  2**0
                  CONTENTS
  4 .bss          00000988  200004c4  000076e8  000204c4  2**2
                  ALLOC
  5 .stack        0000c004  20000e4c  00008070  000204c4  2**0
                  ALLOC
  6 .ARM.attributes 0000002a  00000000  00000000  000204c4  2**0
                  CONTENTS, READONLY
  7 .comment      00000059  00000000  00000000  000204ee  2**0
                  CONTENTS, READONLY
  8 .debug_info   0005486a  00000000  00000000  00020547  2**0
                  CONTENTS, READONLY, DEBUGGING
  9 .debug_abbrev 00007d2d  00000000  00000000  00074db1  2**0
                  CONTENTS, READONLY, DEBUGGING
 10 .debug_loc    00021962  00000000  00000000  0007cade  2**0
                  CONTENTS, READONLY, DEBUGGING
 11 .debug_aranges 00001a10  00000000  00000000  0009e440  2**0
                  CONTENTS, READONLY, DEBUGGING
 12 .debug_ranges 00001e80  00000000  00000000  0009fe50  2**0
                  CONTENTS, READONLY, DEBUGGING
 13 .debug_macro  00036c19  00000000  00000000  000a1cd0  2**0
                  CONTENTS, READONLY, DEBUGGING
 14 .debug_line   00026b8a  00000000  00000000  000d88e9  2**0
                  CONTENTS, READONLY, DEBUGGING
 15 .debug_str    0010c19b  00000000  00000000  000ff473  2**0
                  CONTENTS, READONLY, DEBUGGING
 16 .debug_frame  0000470c  00000000  00000000  0020b610  2**2
                  CONTENTS, READONLY, DEBUGGING

Disassembly of section .text:

00000000 <exception_table>:
       0:	50 ce 00 20 e9 02 00 00 e5 02 00 00 e5 02 00 00     P.. ............
      10:	e5 02 00 00 e5 02 00 00 e5 02 00 00 00 00 00 00     ................
	...
      2c:	e5 02 00 00 e5 02 00 00 00 00 00 00 e5 02 00 00     ................
      3c:	f1 48 00 00 e5 02 00 00 e5 02 00 00 e5 02 00 00     .H..............
      4c:	e5 02 00 00 e5 02 00 00 e5 02 00 00 e5 02 00 00     ................
      5c:	e5 02 00 00 e5 02 00 00 e5 02 00 00 e5 02 00 00     ................
      6c:	e9 1f 00 00 e5 02 00 00 e5 02 00 00 e5 02 00 00     ................
      7c:	e5 02 00 00 e5 02 00 00 e5 02 00 00 e5 02 00 00     ................
      8c:	e5 02 00 00 e5 02 00 00 e5 02 00 00 e5 02 00 00     ................
      9c:	e5 02 00 00 e5 02 00 00 e5 02 00 00 e5 02 00 00     ................
      ac:	e5 02 00 00 e5 02 00 00 9d 1d 00 00 b1 1d 00 00     ................
      bc:	e5 02 00 00 e5 02 00 00 e5 02 00 00 e5 02 00 00     ................
      cc:	e5 02 00 00 e5 02 00 00 e5 02 00 00 e5 02 00 00     ................
      dc:	e5 02 00 00 e5 02 00 00 e5 02 00 00 00 00 00 00     ................
	...
      f4:	19 1f 00 00 e5 02 00 00 e5 02 00 00 e5 02 00 00     ................
     104:	e5 02 00 00 e5 02 00 00 e5 02 00 00 e5 02 00 00     ................
     114:	e5 02 00 00 45 29 00 00 59 29 00 00 6d 29 00 00     ....E)..Y)..m)..
     124:	81 29 00 00 e5 02 00 00 e5 02 00 00 e5 02 00 00     .)..............
     134:	e5 02 00 00 e5 02 00 00 e5 02 00 00 e5 02 00 00     ................
     144:	e5 02 00 00 e5 02 00 00 e5 02 00 00 e5 02 00 00     ................
     154:	e5 02 00 00 00 00 00 00 00 00 00 00 00 00 00 00     ................
	...
     180:	09 3b 00 00 15 3b 00 00 21 3b 00 00 2d 3b 00 00     .;...;..!;..-;..
     190:	00 00 00 00 e5 02 00 00 e5 02 00 00 e5 02 00 00     ................
     1a0:	e5 02 00 00 e5 02 00 00 e5 02 00 00 e5 02 00 00     ................
     1b0:	e5 02 00 00 e5 02 00 00 e5 02 00 00 e5 02 00 00     ................
     1c0:	e5 02 00 00 e5 02 00 00 e5 02 00 00 e5 02 00 00     ................
     1d0:	e5 02 00 00 e5 02 00 00 e5 02 00 00 e5 02 00 00     ................
     1e0:	e5 02 00 00 e5 02 00 00 e5 02 00 00 e5 02 00 00     ................
     1f0:	e5 02 00 00 e5 02 00 00 e5 02 00 00 e5 02 00 00     ................
     200:	e5 02 00 00 00 00 00 00 00 00 00 00 e5 02 00 00     ................
     210:	e5 02 00 00 e5 02 00 00 e5 02 00 00 e5 02 00 00     ................
     220:	e5 02 00 00 e5 02 00 00 e5 02 00 00 e5 02 00 00     ................
     230:	e5 02 00 00 e5 02 00 00 e5 02 00 00 e5 02 00 00     ................
     240:	e5 02 00 00 e5 02 00 00 e5 02 00 00 e5 02 00 00     ................
     250:	e5 02 00 00 e5 02 00 00 e5 02 00 00 e5 02 00 00     ................
     260:	00 00 00 00                                         ....

00000264 <__do_global_dtors_aux>:
     264:	b510      	push	{r4, lr}
     266:	4c05      	ldr	r4, [pc, #20]	; (27c <__do_global_dtors_aux+0x18>)
     268:	7823      	ldrb	r3, [r4, #0]
     26a:	b933      	cbnz	r3, 27a <__do_global_dtors_aux+0x16>
     26c:	4b04      	ldr	r3, [pc, #16]	; (280 <__do_global_dtors_aux+0x1c>)
     26e:	b113      	cbz	r3, 276 <__do_global_dtors_aux+0x12>
     270:	4804      	ldr	r0, [pc, #16]	; (284 <__do_global_dtors_aux+0x20>)
     272:	f3af 8000 	nop.w
     276:	2301      	movs	r3, #1
     278:	7023      	strb	r3, [r4, #0]
     27a:	bd10      	pop	{r4, pc}
     27c:	200004c4 	.word	0x200004c4
     280:	00000000 	.word	0x00000000
     284:	00007224 	.word	0x00007224

00000288 <frame_dummy>:
     288:	4b0c      	ldr	r3, [pc, #48]	; (2bc <frame_dummy+0x34>)
     28a:	b143      	cbz	r3, 29e <frame_dummy+0x16>
     28c:	480c      	ldr	r0, [pc, #48]	; (2c0 <frame_dummy+0x38>)
     28e:	490d      	ldr	r1, [pc, #52]	; (2c4 <frame_dummy+0x3c>)
     290:	b510      	push	{r4, lr}
     292:	f3af 8000 	nop.w
     296:	480c      	ldr	r0, [pc, #48]	; (2c8 <frame_dummy+0x40>)
     298:	6803      	ldr	r3, [r0, #0]
     29a:	b923      	cbnz	r3, 2a6 <frame_dummy+0x1e>
     29c:	bd10      	pop	{r4, pc}
     29e:	480a      	ldr	r0, [pc, #40]	; (2c8 <frame_dummy+0x40>)
     2a0:	6803      	ldr	r3, [r0, #0]
     2a2:	b933      	cbnz	r3, 2b2 <frame_dummy+0x2a>
     2a4:	4770      	bx	lr
     2a6:	4b09      	ldr	r3, [pc, #36]	; (2cc <frame_dummy+0x44>)
     2a8:	2b00      	cmp	r3, #0
     2aa:	d0f7      	beq.n	29c <frame_dummy+0x14>
     2ac:	e8bd 4010 	ldmia.w	sp!, {r4, lr}
     2b0:	4718      	bx	r3
     2b2:	4b06      	ldr	r3, [pc, #24]	; (2cc <frame_dummy+0x44>)
     2b4:	2b00      	cmp	r3, #0
     2b6:	d0f5      	beq.n	2a4 <frame_dummy+0x1c>
     2b8:	4718      	bx	r3
     2ba:	bf00      	nop
     2bc:	00000000 	.word	0x00000000
     2c0:	00007224 	.word	0x00007224
     2c4:	200004c8 	.word	0x200004c8
     2c8:	00007224 	.word	0x00007224
     2cc:	00000000 	.word	0x00000000

000002d0 <atmel_start_init>:

/**
 * Initializes MCU, drivers and middleware in the project
 **/
void atmel_start_init(void)
{
     2d0:	b508      	push	{r3, lr}
	system_init();
     2d2:	4b02      	ldr	r3, [pc, #8]	; (2dc <atmel_start_init+0xc>)
     2d4:	4798      	blx	r3
	usb_init();
     2d6:	4b02      	ldr	r3, [pc, #8]	; (2e0 <atmel_start_init+0x10>)
     2d8:	4798      	blx	r3
     2da:	bd08      	pop	{r3, pc}
     2dc:	000008d5 	.word	0x000008d5
     2e0:	00004769 	.word	0x00004769

000002e4 <Dummy_Handler>:

/**
 * \brief Default interrupt handler for unused IRQs.
 */
void Dummy_Handler(void)
{
     2e4:	e7fe      	b.n	2e4 <Dummy_Handler>
	...

000002e8 <Reset_Handler>:
{
     2e8:	b508      	push	{r3, lr}
        if (pSrc != pDest) {
     2ea:	4b10      	ldr	r3, [pc, #64]	; (32c <Reset_Handler+0x44>)
     2ec:	4a10      	ldr	r2, [pc, #64]	; (330 <Reset_Handler+0x48>)
     2ee:	429a      	cmp	r2, r3
     2f0:	d009      	beq.n	306 <Reset_Handler+0x1e>
     2f2:	4b0e      	ldr	r3, [pc, #56]	; (32c <Reset_Handler+0x44>)
     2f4:	4a0e      	ldr	r2, [pc, #56]	; (330 <Reset_Handler+0x48>)
     2f6:	e003      	b.n	300 <Reset_Handler+0x18>
                        *pDest++ = *pSrc++;
     2f8:	6811      	ldr	r1, [r2, #0]
     2fa:	6019      	str	r1, [r3, #0]
     2fc:	3304      	adds	r3, #4
     2fe:	3204      	adds	r2, #4
                for (; pDest < &_erelocate;) {
     300:	490c      	ldr	r1, [pc, #48]	; (334 <Reset_Handler+0x4c>)
     302:	428b      	cmp	r3, r1
     304:	d3f8      	bcc.n	2f8 <Reset_Handler+0x10>
                        *pDest++ = *pSrc++;
     306:	4b0c      	ldr	r3, [pc, #48]	; (338 <Reset_Handler+0x50>)
     308:	e002      	b.n	310 <Reset_Handler+0x28>
                *pDest++ = 0;
     30a:	2200      	movs	r2, #0
     30c:	601a      	str	r2, [r3, #0]
     30e:	3304      	adds	r3, #4
        for (pDest = &_szero; pDest < &_ezero;) {
     310:	4a0a      	ldr	r2, [pc, #40]	; (33c <Reset_Handler+0x54>)
     312:	4293      	cmp	r3, r2
     314:	d3f9      	bcc.n	30a <Reset_Handler+0x22>
        SCB->VTOR = ((uint32_t) pSrc & SCB_VTOR_TBLOFF_Msk);
     316:	4a0a      	ldr	r2, [pc, #40]	; (340 <Reset_Handler+0x58>)
     318:	4b0a      	ldr	r3, [pc, #40]	; (344 <Reset_Handler+0x5c>)
     31a:	f023 037f 	bic.w	r3, r3, #127	; 0x7f
     31e:	6093      	str	r3, [r2, #8]
        __libc_init_array();
     320:	4b09      	ldr	r3, [pc, #36]	; (348 <Reset_Handler+0x60>)
     322:	4798      	blx	r3
        main();
     324:	4b09      	ldr	r3, [pc, #36]	; (34c <Reset_Handler+0x64>)
     326:	4798      	blx	r3
     328:	e7fe      	b.n	328 <Reset_Handler+0x40>
     32a:	bf00      	nop
     32c:	20000000 	.word	0x20000000
     330:	00007224 	.word	0x00007224
     334:	200004c4 	.word	0x200004c4
     338:	200004c4 	.word	0x200004c4
     33c:	20000e4c 	.word	0x20000e4c
     340:	e000ed00 	.word	0xe000ed00
     344:	00000000 	.word	0x00000000
     348:	0000691d 	.word	0x0000691d
     34c:	000047d5 	.word	0x000047d5

00000350 <TIMER_0_init>:
 * \brief Timer initialization function
 *
 * Enables Timer peripheral, clocks and initializes Timer driver
 */
static void TIMER_0_init(void)
{
     350:	b508      	push	{r3, lr}
}

static inline void hri_mclk_set_APBAMASK_RTC_bit(const void *const hw)
{
	MCLK_CRITICAL_SECTION_ENTER();
	((Mclk *)hw)->APBAMASK.reg |= MCLK_APBAMASK_RTC;
     352:	4a06      	ldr	r2, [pc, #24]	; (36c <TIMER_0_init+0x1c>)
     354:	6953      	ldr	r3, [r2, #20]
     356:	f443 7300 	orr.w	r3, r3, #512	; 0x200
     35a:	6153      	str	r3, [r2, #20]
	hri_mclk_set_APBAMASK_RTC_bit(MCLK);
	timer_init(&TIMER_0, RTC, _rtc_get_timer());
     35c:	4b04      	ldr	r3, [pc, #16]	; (370 <TIMER_0_init+0x20>)
     35e:	4798      	blx	r3
     360:	4602      	mov	r2, r0
     362:	4904      	ldr	r1, [pc, #16]	; (374 <TIMER_0_init+0x24>)
     364:	4804      	ldr	r0, [pc, #16]	; (378 <TIMER_0_init+0x28>)
     366:	4b05      	ldr	r3, [pc, #20]	; (37c <TIMER_0_init+0x2c>)
     368:	4798      	blx	r3
     36a:	bd08      	pop	{r3, pc}
     36c:	40000800 	.word	0x40000800
     370:	00001fe5 	.word	0x00001fe5
     374:	40002400 	.word	0x40002400
     378:	20000d24 	.word	0x20000d24
     37c:	00001061 	.word	0x00001061

00000380 <ADC_0_PORT_init>:
	((Port *)hw)->Group[submodule_index].DIRCLR.reg = ~data;
}

static inline void hri_port_clear_DIR_reg(const void *const hw, uint8_t submodule_index, hri_port_dir_reg_t mask)
{
	((Port *)hw)->Group[submodule_index].DIRCLR.reg = mask;
     380:	4b47      	ldr	r3, [pc, #284]	; (4a0 <ADC_0_PORT_init+0x120>)
     382:	2204      	movs	r2, #4
     384:	605a      	str	r2, [r3, #4]

static inline void hri_port_write_WRCONFIG_reg(const void *const hw, uint8_t submodule_index,
                                               hri_port_wrconfig_reg_t data)
{
	PORT_CRITICAL_SECTION_ENTER();
	((Port *)hw)->Group[submodule_index].WRCONFIG.reg = data;
     386:	f102 4280 	add.w	r2, r2, #1073741824	; 0x40000000
     38a:	629a      	str	r2, [r3, #40]	; 0x28
     38c:	f04f 4240 	mov.w	r2, #3221225472	; 0xc0000000
     390:	629a      	str	r2, [r3, #40]	; 0x28
	tmp = ((Port *)hw)->Group[submodule_index].PINCFG[index].reg;
     392:	f893 1042 	ldrb.w	r1, [r3, #66]	; 0x42
	tmp &= ~PORT_PINCFG_PMUXEN;
     396:	f001 01fe 	and.w	r1, r1, #254	; 0xfe
	tmp |= value << PORT_PINCFG_PMUXEN_Pos;
     39a:	f041 0101 	orr.w	r1, r1, #1
	((Port *)hw)->Group[submodule_index].PINCFG[index].reg = tmp;
     39e:	f883 1042 	strb.w	r1, [r3, #66]	; 0x42
	tmp = ((Port *)hw)->Group[submodule_index].PMUX[index].reg;
     3a2:	f893 1031 	ldrb.w	r1, [r3, #49]	; 0x31
	tmp &= ~PORT_PMUX_PMUXE_Msk;
     3a6:	f001 01f0 	and.w	r1, r1, #240	; 0xf0
	tmp |= PORT_PMUX_PMUXE(data);
     3aa:	f041 0101 	orr.w	r1, r1, #1
	((Port *)hw)->Group[submodule_index].PMUX[index].reg = tmp;
     3ae:	f883 1031 	strb.w	r1, [r3, #49]	; 0x31
	((Port *)hw)->Group[submodule_index].DIRCLR.reg = mask;
     3b2:	f44f 7180 	mov.w	r1, #256	; 0x100
     3b6:	f8c3 1084 	str.w	r1, [r3, #132]	; 0x84
	((Port *)hw)->Group[submodule_index].WRCONFIG.reg = data;
     3ba:	f101 4180 	add.w	r1, r1, #1073741824	; 0x40000000
     3be:	f8c3 10a8 	str.w	r1, [r3, #168]	; 0xa8
     3c2:	f8c3 20a8 	str.w	r2, [r3, #168]	; 0xa8
	tmp = ((Port *)hw)->Group[submodule_index].PINCFG[index].reg;
     3c6:	f893 10c8 	ldrb.w	r1, [r3, #200]	; 0xc8
	tmp &= ~PORT_PINCFG_PMUXEN;
     3ca:	f001 01fe 	and.w	r1, r1, #254	; 0xfe
	tmp |= value << PORT_PINCFG_PMUXEN_Pos;
     3ce:	f041 0101 	orr.w	r1, r1, #1
	((Port *)hw)->Group[submodule_index].PINCFG[index].reg = tmp;
     3d2:	f883 10c8 	strb.w	r1, [r3, #200]	; 0xc8
	tmp = ((Port *)hw)->Group[submodule_index].PMUX[index].reg;
     3d6:	f893 10b4 	ldrb.w	r1, [r3, #180]	; 0xb4
	tmp &= ~PORT_PMUX_PMUXE_Msk;
     3da:	f001 01f0 	and.w	r1, r1, #240	; 0xf0
	tmp |= PORT_PMUX_PMUXE(data);
     3de:	f041 0101 	orr.w	r1, r1, #1
	((Port *)hw)->Group[submodule_index].PMUX[index].reg = tmp;
     3e2:	f883 10b4 	strb.w	r1, [r3, #180]	; 0xb4
	((Port *)hw)->Group[submodule_index].DIRCLR.reg = mask;
     3e6:	f44f 7100 	mov.w	r1, #512	; 0x200
     3ea:	f8c3 1084 	str.w	r1, [r3, #132]	; 0x84
	((Port *)hw)->Group[submodule_index].WRCONFIG.reg = data;
     3ee:	f101 4180 	add.w	r1, r1, #1073741824	; 0x40000000
     3f2:	f8c3 10a8 	str.w	r1, [r3, #168]	; 0xa8
     3f6:	f8c3 20a8 	str.w	r2, [r3, #168]	; 0xa8
	tmp = ((Port *)hw)->Group[submodule_index].PINCFG[index].reg;
     3fa:	f893 10c9 	ldrb.w	r1, [r3, #201]	; 0xc9
	tmp &= ~PORT_PINCFG_PMUXEN;
     3fe:	f001 01fe 	and.w	r1, r1, #254	; 0xfe
	tmp |= value << PORT_PINCFG_PMUXEN_Pos;
     402:	f041 0101 	orr.w	r1, r1, #1
	((Port *)hw)->Group[submodule_index].PINCFG[index].reg = tmp;
     406:	f883 10c9 	strb.w	r1, [r3, #201]	; 0xc9
	tmp = ((Port *)hw)->Group[submodule_index].PMUX[index].reg;
     40a:	f893 10b4 	ldrb.w	r1, [r3, #180]	; 0xb4
	tmp &= ~PORT_PMUX_PMUXO_Msk;
     40e:	f001 010f 	and.w	r1, r1, #15
	tmp |= PORT_PMUX_PMUXO(data);
     412:	f041 0110 	orr.w	r1, r1, #16
	((Port *)hw)->Group[submodule_index].PMUX[index].reg = tmp;
     416:	f883 10b4 	strb.w	r1, [r3, #180]	; 0xb4
	((Port *)hw)->Group[submodule_index].DIRCLR.reg = mask;
     41a:	2110      	movs	r1, #16
     41c:	6059      	str	r1, [r3, #4]
	((Port *)hw)->Group[submodule_index].WRCONFIG.reg = data;
     41e:	f101 4180 	add.w	r1, r1, #1073741824	; 0x40000000
     422:	6299      	str	r1, [r3, #40]	; 0x28
     424:	629a      	str	r2, [r3, #40]	; 0x28
	tmp = ((Port *)hw)->Group[submodule_index].PINCFG[index].reg;
     426:	f893 1044 	ldrb.w	r1, [r3, #68]	; 0x44
	tmp &= ~PORT_PINCFG_PMUXEN;
     42a:	f001 01fe 	and.w	r1, r1, #254	; 0xfe
	tmp |= value << PORT_PINCFG_PMUXEN_Pos;
     42e:	f041 0101 	orr.w	r1, r1, #1
	((Port *)hw)->Group[submodule_index].PINCFG[index].reg = tmp;
     432:	f883 1044 	strb.w	r1, [r3, #68]	; 0x44
	tmp = ((Port *)hw)->Group[submodule_index].PMUX[index].reg;
     436:	f893 1032 	ldrb.w	r1, [r3, #50]	; 0x32
	tmp &= ~PORT_PMUX_PMUXE_Msk;
     43a:	f001 01f0 	and.w	r1, r1, #240	; 0xf0
	tmp |= PORT_PMUX_PMUXE(data);
     43e:	f041 0101 	orr.w	r1, r1, #1
	((Port *)hw)->Group[submodule_index].PMUX[index].reg = tmp;
     442:	f883 1032 	strb.w	r1, [r3, #50]	; 0x32
	((Port *)hw)->Group[submodule_index].DIRCLR.reg = mask;
     446:	2120      	movs	r1, #32
     448:	6059      	str	r1, [r3, #4]
	((Port *)hw)->Group[submodule_index].WRCONFIG.reg = data;
     44a:	f101 4180 	add.w	r1, r1, #1073741824	; 0x40000000
     44e:	6299      	str	r1, [r3, #40]	; 0x28
     450:	629a      	str	r2, [r3, #40]	; 0x28
	tmp = ((Port *)hw)->Group[submodule_index].PINCFG[index].reg;
     452:	f893 1045 	ldrb.w	r1, [r3, #69]	; 0x45
	tmp &= ~PORT_PINCFG_PMUXEN;
     456:	f001 01fe 	and.w	r1, r1, #254	; 0xfe
	tmp |= value << PORT_PINCFG_PMUXEN_Pos;
     45a:	f041 0101 	orr.w	r1, r1, #1
	((Port *)hw)->Group[submodule_index].PINCFG[index].reg = tmp;
     45e:	f883 1045 	strb.w	r1, [r3, #69]	; 0x45
	tmp = ((Port *)hw)->Group[submodule_index].PMUX[index].reg;
     462:	f893 1032 	ldrb.w	r1, [r3, #50]	; 0x32
	tmp &= ~PORT_PMUX_PMUXO_Msk;
     466:	f001 010f 	and.w	r1, r1, #15
	tmp |= PORT_PMUX_PMUXO(data);
     46a:	f041 0110 	orr.w	r1, r1, #16
	((Port *)hw)->Group[submodule_index].PMUX[index].reg = tmp;
     46e:	f883 1032 	strb.w	r1, [r3, #50]	; 0x32
	((Port *)hw)->Group[submodule_index].DIRCLR.reg = mask;
     472:	2140      	movs	r1, #64	; 0x40
     474:	6059      	str	r1, [r3, #4]
	((Port *)hw)->Group[submodule_index].WRCONFIG.reg = data;
     476:	f101 4180 	add.w	r1, r1, #1073741824	; 0x40000000
     47a:	6299      	str	r1, [r3, #40]	; 0x28
     47c:	629a      	str	r2, [r3, #40]	; 0x28
	tmp = ((Port *)hw)->Group[submodule_index].PINCFG[index].reg;
     47e:	f893 2046 	ldrb.w	r2, [r3, #70]	; 0x46
	tmp &= ~PORT_PINCFG_PMUXEN;
     482:	f002 02fe 	and.w	r2, r2, #254	; 0xfe
	tmp |= value << PORT_PINCFG_PMUXEN_Pos;
     486:	f042 0201 	orr.w	r2, r2, #1
	((Port *)hw)->Group[submodule_index].PINCFG[index].reg = tmp;
     48a:	f883 2046 	strb.w	r2, [r3, #70]	; 0x46
	tmp = ((Port *)hw)->Group[submodule_index].PMUX[index].reg;
     48e:	f893 2033 	ldrb.w	r2, [r3, #51]	; 0x33
	tmp &= ~PORT_PMUX_PMUXE_Msk;
     492:	f002 02f0 	and.w	r2, r2, #240	; 0xf0
	tmp |= PORT_PMUX_PMUXE(data);
     496:	f042 0201 	orr.w	r2, r2, #1
	((Port *)hw)->Group[submodule_index].PMUX[index].reg = tmp;
     49a:	f883 2033 	strb.w	r2, [r3, #51]	; 0x33
     49e:	4770      	bx	lr
     4a0:	41008000 	.word	0x41008000

000004a4 <ADC_0_CLOCK_init>:
}

static inline void hri_mclk_set_APBDMASK_ADC0_bit(const void *const hw)
{
	MCLK_CRITICAL_SECTION_ENTER();
	((Mclk *)hw)->APBDMASK.reg |= MCLK_APBDMASK_ADC0;
     4a4:	4a04      	ldr	r2, [pc, #16]	; (4b8 <ADC_0_CLOCK_init+0x14>)
     4a6:	6a13      	ldr	r3, [r2, #32]
     4a8:	f043 0380 	orr.w	r3, r3, #128	; 0x80
     4ac:	6213      	str	r3, [r2, #32]
}

static inline void hri_gclk_write_PCHCTRL_reg(const void *const hw, uint8_t index, hri_gclk_pchctrl_reg_t data)
{
	GCLK_CRITICAL_SECTION_ENTER();
	((Gclk *)hw)->PCHCTRL[index].reg = data;
     4ae:	2241      	movs	r2, #65	; 0x41
     4b0:	4b02      	ldr	r3, [pc, #8]	; (4bc <ADC_0_CLOCK_init+0x18>)
     4b2:	f8c3 2120 	str.w	r2, [r3, #288]	; 0x120
     4b6:	4770      	bx	lr
     4b8:	40000800 	.word	0x40000800
     4bc:	40001c00 	.word	0x40001c00

000004c0 <ADC_0_init>:
{
     4c0:	b508      	push	{r3, lr}
	ADC_0_CLOCK_init();
     4c2:	4b05      	ldr	r3, [pc, #20]	; (4d8 <ADC_0_init+0x18>)
     4c4:	4798      	blx	r3
	ADC_0_PORT_init();
     4c6:	4b05      	ldr	r3, [pc, #20]	; (4dc <ADC_0_init+0x1c>)
     4c8:	4798      	blx	r3
	adc_sync_init(&ADC_0, ADC0, (void *)NULL);
     4ca:	2200      	movs	r2, #0
     4cc:	4904      	ldr	r1, [pc, #16]	; (4e0 <ADC_0_init+0x20>)
     4ce:	4805      	ldr	r0, [pc, #20]	; (4e4 <ADC_0_init+0x24>)
     4d0:	4b05      	ldr	r3, [pc, #20]	; (4e8 <ADC_0_init+0x28>)
     4d2:	4798      	blx	r3
     4d4:	bd08      	pop	{r3, pc}
     4d6:	bf00      	nop
     4d8:	000004a5 	.word	0x000004a5
     4dc:	00000381 	.word	0x00000381
     4e0:	43001c00 	.word	0x43001c00
     4e4:	20000cac 	.word	0x20000cac
     4e8:	00000d01 	.word	0x00000d01

000004ec <EVENT_SYSTEM_0_init>:
{
     4ec:	b508      	push	{r3, lr}
	((Mclk *)hw)->APBBMASK.reg |= MCLK_APBBMASK_EVSYS;
     4ee:	4a04      	ldr	r2, [pc, #16]	; (500 <EVENT_SYSTEM_0_init+0x14>)
     4f0:	6993      	ldr	r3, [r2, #24]
     4f2:	f043 0380 	orr.w	r3, r3, #128	; 0x80
     4f6:	6193      	str	r3, [r2, #24]
	event_system_init();
     4f8:	4b02      	ldr	r3, [pc, #8]	; (504 <EVENT_SYSTEM_0_init+0x18>)
     4fa:	4798      	blx	r3
     4fc:	bd08      	pop	{r3, pc}
     4fe:	bf00      	nop
     500:	40000800 	.word	0x40000800
     504:	00000d65 	.word	0x00000d65

00000508 <FLASH_0_CLOCK_init>:
	((Mclk *)hw)->AHBMASK.reg |= MCLK_AHBMASK_NVMCTRL;
     508:	4a02      	ldr	r2, [pc, #8]	; (514 <FLASH_0_CLOCK_init+0xc>)
     50a:	6913      	ldr	r3, [r2, #16]
     50c:	f043 0340 	orr.w	r3, r3, #64	; 0x40
     510:	6113      	str	r3, [r2, #16]
     512:	4770      	bx	lr
     514:	40000800 	.word	0x40000800

00000518 <FLASH_0_init>:
{
     518:	b508      	push	{r3, lr}
	FLASH_0_CLOCK_init();
     51a:	4b03      	ldr	r3, [pc, #12]	; (528 <FLASH_0_init+0x10>)
     51c:	4798      	blx	r3
	flash_init(&FLASH_0, NVMCTRL);
     51e:	4903      	ldr	r1, [pc, #12]	; (52c <FLASH_0_init+0x14>)
     520:	4803      	ldr	r0, [pc, #12]	; (530 <FLASH_0_init+0x18>)
     522:	4b04      	ldr	r3, [pc, #16]	; (534 <FLASH_0_init+0x1c>)
     524:	4798      	blx	r3
     526:	bd08      	pop	{r3, pc}
     528:	00000509 	.word	0x00000509
     52c:	41004000 	.word	0x41004000
     530:	20000c88 	.word	0x20000c88
     534:	00000d85 	.word	0x00000d85

00000538 <SPI_M_SYNC_SERCOM0_PORT_init>:
	((Port *)hw)->Group[submodule_index].DIRCLR.reg = mask;
     538:	4b29      	ldr	r3, [pc, #164]	; (5e0 <SPI_M_SYNC_SERCOM0_PORT_init+0xa8>)
     53a:	f44f 7280 	mov.w	r2, #256	; 0x100
     53e:	605a      	str	r2, [r3, #4]
	((Port *)hw)->Group[submodule_index].WRCONFIG.reg = data;
     540:	f102 4280 	add.w	r2, r2, #1073741824	; 0x40000000
     544:	f502 3200 	add.w	r2, r2, #131072	; 0x20000
     548:	629a      	str	r2, [r3, #40]	; 0x28
     54a:	4a26      	ldr	r2, [pc, #152]	; (5e4 <SPI_M_SYNC_SERCOM0_PORT_init+0xac>)
     54c:	629a      	str	r2, [r3, #40]	; 0x28
	((Port *)hw)->Group[submodule_index].PINCFG[index].reg &= ~PORT_PINCFG_PULLEN;
     54e:	f893 2048 	ldrb.w	r2, [r3, #72]	; 0x48
     552:	f002 02fb 	and.w	r2, r2, #251	; 0xfb
     556:	f883 2048 	strb.w	r2, [r3, #72]	; 0x48
	tmp = ((Port *)hw)->Group[submodule_index].PINCFG[index].reg;
     55a:	f893 2048 	ldrb.w	r2, [r3, #72]	; 0x48
	tmp &= ~PORT_PINCFG_PMUXEN;
     55e:	f002 02fe 	and.w	r2, r2, #254	; 0xfe
	tmp |= value << PORT_PINCFG_PMUXEN_Pos;
     562:	f042 0201 	orr.w	r2, r2, #1
	((Port *)hw)->Group[submodule_index].PINCFG[index].reg = tmp;
     566:	f883 2048 	strb.w	r2, [r3, #72]	; 0x48
	tmp = ((Port *)hw)->Group[submodule_index].PMUX[index].reg;
     56a:	f893 2034 	ldrb.w	r2, [r3, #52]	; 0x34
	tmp &= ~PORT_PMUX_PMUXE_Msk;
     56e:	f002 02f0 	and.w	r2, r2, #240	; 0xf0
	tmp |= PORT_PMUX_PMUXE(data);
     572:	f042 0202 	orr.w	r2, r2, #2
	((Port *)hw)->Group[submodule_index].PMUX[index].reg = tmp;
     576:	f883 2034 	strb.w	r2, [r3, #52]	; 0x34
	((Port *)hw)->Group[submodule_index].OUTCLR.reg = mask;
     57a:	f44f 7200 	mov.w	r2, #512	; 0x200
     57e:	615a      	str	r2, [r3, #20]
	((Port *)hw)->Group[submodule_index].DIRSET.reg = mask;
     580:	609a      	str	r2, [r3, #8]
	((Port *)hw)->Group[submodule_index].WRCONFIG.reg = data;
     582:	f102 4280 	add.w	r2, r2, #1073741824	; 0x40000000
     586:	629a      	str	r2, [r3, #40]	; 0x28
     588:	f04f 4140 	mov.w	r1, #3221225472	; 0xc0000000
     58c:	6299      	str	r1, [r3, #40]	; 0x28
	tmp = ((Port *)hw)->Group[submodule_index].PINCFG[index].reg;
     58e:	f893 2049 	ldrb.w	r2, [r3, #73]	; 0x49
	tmp &= ~PORT_PINCFG_PMUXEN;
     592:	f002 02fe 	and.w	r2, r2, #254	; 0xfe
	tmp |= value << PORT_PINCFG_PMUXEN_Pos;
     596:	f042 0201 	orr.w	r2, r2, #1
	((Port *)hw)->Group[submodule_index].PINCFG[index].reg = tmp;
     59a:	f883 2049 	strb.w	r2, [r3, #73]	; 0x49
	tmp = ((Port *)hw)->Group[submodule_index].PMUX[index].reg;
     59e:	f893 2034 	ldrb.w	r2, [r3, #52]	; 0x34
	tmp &= ~PORT_PMUX_PMUXO_Msk;
     5a2:	f002 020f 	and.w	r2, r2, #15
	tmp |= PORT_PMUX_PMUXO(data);
     5a6:	f042 0220 	orr.w	r2, r2, #32
	((Port *)hw)->Group[submodule_index].PMUX[index].reg = tmp;
     5aa:	f883 2034 	strb.w	r2, [r3, #52]	; 0x34
	((Port *)hw)->Group[submodule_index].OUTCLR.reg = mask;
     5ae:	f44f 6200 	mov.w	r2, #2048	; 0x800
     5b2:	615a      	str	r2, [r3, #20]
	((Port *)hw)->Group[submodule_index].DIRSET.reg = mask;
     5b4:	609a      	str	r2, [r3, #8]
	((Port *)hw)->Group[submodule_index].WRCONFIG.reg = data;
     5b6:	f102 4280 	add.w	r2, r2, #1073741824	; 0x40000000
     5ba:	629a      	str	r2, [r3, #40]	; 0x28
     5bc:	6299      	str	r1, [r3, #40]	; 0x28
	tmp = ((Port *)hw)->Group[submodule_index].PINCFG[index].reg;
     5be:	f893 204b 	ldrb.w	r2, [r3, #75]	; 0x4b
	tmp &= ~PORT_PINCFG_PMUXEN;
     5c2:	f002 02fe 	and.w	r2, r2, #254	; 0xfe
	tmp |= value << PORT_PINCFG_PMUXEN_Pos;
     5c6:	f042 0201 	orr.w	r2, r2, #1
	((Port *)hw)->Group[submodule_index].PINCFG[index].reg = tmp;
     5ca:	f883 204b 	strb.w	r2, [r3, #75]	; 0x4b
	tmp = ((Port *)hw)->Group[submodule_index].PMUX[index].reg;
     5ce:	f893 2035 	ldrb.w	r2, [r3, #53]	; 0x35
	tmp &= ~PORT_PMUX_PMUXO_Msk;
     5d2:	f002 020f 	and.w	r2, r2, #15
	tmp |= PORT_PMUX_PMUXO(data);
     5d6:	f042 0220 	orr.w	r2, r2, #32
	((Port *)hw)->Group[submodule_index].PMUX[index].reg = tmp;
     5da:	f883 2035 	strb.w	r2, [r3, #53]	; 0x35
     5de:	4770      	bx	lr
     5e0:	41008000 	.word	0x41008000
     5e4:	c0020000 	.word	0xc0020000

000005e8 <SPI_M_SYNC_SERCOM0_CLOCK_init>:
     5e8:	4b06      	ldr	r3, [pc, #24]	; (604 <SPI_M_SYNC_SERCOM0_CLOCK_init+0x1c>)
     5ea:	2241      	movs	r2, #65	; 0x41
     5ec:	f8c3 209c 	str.w	r2, [r3, #156]	; 0x9c
     5f0:	2243      	movs	r2, #67	; 0x43
     5f2:	f8c3 208c 	str.w	r2, [r3, #140]	; 0x8c
	((Mclk *)hw)->APBAMASK.reg |= MCLK_APBAMASK_SERCOM0;
     5f6:	4a04      	ldr	r2, [pc, #16]	; (608 <SPI_M_SYNC_SERCOM0_CLOCK_init+0x20>)
     5f8:	6953      	ldr	r3, [r2, #20]
     5fa:	f443 5380 	orr.w	r3, r3, #4096	; 0x1000
     5fe:	6153      	str	r3, [r2, #20]
     600:	4770      	bx	lr
     602:	bf00      	nop
     604:	40001c00 	.word	0x40001c00
     608:	40000800 	.word	0x40000800

0000060c <SPI_M_SYNC_SERCOM0_init>:

	hri_mclk_set_APBAMASK_SERCOM0_bit(MCLK);
}

void SPI_M_SYNC_SERCOM0_init(void)
{
     60c:	b508      	push	{r3, lr}
	SPI_M_SYNC_SERCOM0_CLOCK_init();
     60e:	4b04      	ldr	r3, [pc, #16]	; (620 <SPI_M_SYNC_SERCOM0_init+0x14>)
     610:	4798      	blx	r3
	spi_m_sync_init(&SPI_M_SYNC_SERCOM0, SERCOM0);
     612:	4904      	ldr	r1, [pc, #16]	; (624 <SPI_M_SYNC_SERCOM0_init+0x18>)
     614:	4804      	ldr	r0, [pc, #16]	; (628 <SPI_M_SYNC_SERCOM0_init+0x1c>)
     616:	4b05      	ldr	r3, [pc, #20]	; (62c <SPI_M_SYNC_SERCOM0_init+0x20>)
     618:	4798      	blx	r3
	SPI_M_SYNC_SERCOM0_PORT_init();
     61a:	4b05      	ldr	r3, [pc, #20]	; (630 <SPI_M_SYNC_SERCOM0_init+0x24>)
     61c:	4798      	blx	r3
     61e:	bd08      	pop	{r3, pc}
     620:	000005e9 	.word	0x000005e9
     624:	40003000 	.word	0x40003000
     628:	20000d40 	.word	0x20000d40
     62c:	00000e99 	.word	0x00000e99
     630:	00000539 	.word	0x00000539

00000634 <USART_0_CLOCK_init>:
     634:	4b06      	ldr	r3, [pc, #24]	; (650 <USART_0_CLOCK_init+0x1c>)
     636:	2241      	movs	r2, #65	; 0x41
     638:	f8c3 20dc 	str.w	r2, [r3, #220]	; 0xdc
     63c:	2243      	movs	r2, #67	; 0x43
     63e:	f8c3 208c 	str.w	r2, [r3, #140]	; 0x8c
	((Mclk *)hw)->APBBMASK.reg |= MCLK_APBBMASK_SERCOM2;
     642:	4a04      	ldr	r2, [pc, #16]	; (654 <USART_0_CLOCK_init+0x20>)
     644:	6993      	ldr	r3, [r2, #24]
     646:	f443 7300 	orr.w	r3, r3, #512	; 0x200
     64a:	6193      	str	r3, [r2, #24]
     64c:	4770      	bx	lr
     64e:	bf00      	nop
     650:	40001c00 	.word	0x40001c00
     654:	40000800 	.word	0x40000800

00000658 <USART_0_PORT_init>:
	tmp = ((Port *)hw)->Group[submodule_index].PINCFG[index].reg;
     658:	4b10      	ldr	r3, [pc, #64]	; (69c <USART_0_PORT_init+0x44>)
     65a:	f893 204c 	ldrb.w	r2, [r3, #76]	; 0x4c
	tmp &= ~PORT_PINCFG_PMUXEN;
     65e:	f002 02fe 	and.w	r2, r2, #254	; 0xfe
	tmp |= value << PORT_PINCFG_PMUXEN_Pos;
     662:	f042 0201 	orr.w	r2, r2, #1
	((Port *)hw)->Group[submodule_index].PINCFG[index].reg = tmp;
     666:	f883 204c 	strb.w	r2, [r3, #76]	; 0x4c
	tmp = ((Port *)hw)->Group[submodule_index].PMUX[index].reg;
     66a:	f893 2036 	ldrb.w	r2, [r3, #54]	; 0x36
	tmp &= ~PORT_PMUX_PMUXE_Msk;
     66e:	f002 02f0 	and.w	r2, r2, #240	; 0xf0
	tmp |= PORT_PMUX_PMUXE(data);
     672:	f042 0202 	orr.w	r2, r2, #2
	((Port *)hw)->Group[submodule_index].PMUX[index].reg = tmp;
     676:	f883 2036 	strb.w	r2, [r3, #54]	; 0x36
	tmp = ((Port *)hw)->Group[submodule_index].PINCFG[index].reg;
     67a:	f893 204d 	ldrb.w	r2, [r3, #77]	; 0x4d
	tmp &= ~PORT_PINCFG_PMUXEN;
     67e:	f002 02fe 	and.w	r2, r2, #254	; 0xfe
	tmp |= value << PORT_PINCFG_PMUXEN_Pos;
     682:	f042 0201 	orr.w	r2, r2, #1
	((Port *)hw)->Group[submodule_index].PINCFG[index].reg = tmp;
     686:	f883 204d 	strb.w	r2, [r3, #77]	; 0x4d
	tmp = ((Port *)hw)->Group[submodule_index].PMUX[index].reg;
     68a:	f893 2036 	ldrb.w	r2, [r3, #54]	; 0x36
	tmp &= ~PORT_PMUX_PMUXO_Msk;
     68e:	f002 020f 	and.w	r2, r2, #15
	tmp |= PORT_PMUX_PMUXO(data);
     692:	f042 0220 	orr.w	r2, r2, #32
	((Port *)hw)->Group[submodule_index].PMUX[index].reg = tmp;
     696:	f883 2036 	strb.w	r2, [r3, #54]	; 0x36
     69a:	4770      	bx	lr
     69c:	41008000 	.word	0x41008000

000006a0 <USART_0_init>:
 * \brief USART initialization function
 *
 * Enables USART peripheral, clocks and initializes USART driver
 */
void USART_0_init(void)
{
     6a0:	b510      	push	{r4, lr}
     6a2:	b082      	sub	sp, #8
	USART_0_CLOCK_init();
     6a4:	4b06      	ldr	r3, [pc, #24]	; (6c0 <USART_0_init+0x20>)
     6a6:	4798      	blx	r3
	usart_async_init(&USART_0, SERCOM2, USART_0_buffer, USART_0_BUFFER_SIZE, (void *)NULL);
     6a8:	2300      	movs	r3, #0
     6aa:	9300      	str	r3, [sp, #0]
     6ac:	2310      	movs	r3, #16
     6ae:	4a05      	ldr	r2, [pc, #20]	; (6c4 <USART_0_init+0x24>)
     6b0:	4905      	ldr	r1, [pc, #20]	; (6c8 <USART_0_init+0x28>)
     6b2:	4806      	ldr	r0, [pc, #24]	; (6cc <USART_0_init+0x2c>)
     6b4:	4c06      	ldr	r4, [pc, #24]	; (6d0 <USART_0_init+0x30>)
     6b6:	47a0      	blx	r4
	USART_0_PORT_init();
     6b8:	4b06      	ldr	r3, [pc, #24]	; (6d4 <USART_0_init+0x34>)
     6ba:	4798      	blx	r3
}
     6bc:	b002      	add	sp, #8
     6be:	bd10      	pop	{r4, pc}
     6c0:	00000635 	.word	0x00000635
     6c4:	200004e0 	.word	0x200004e0
     6c8:	41012000 	.word	0x41012000
     6cc:	20000cb4 	.word	0x20000cb4
     6d0:	000011f5 	.word	0x000011f5
     6d4:	00000659 	.word	0x00000659

000006d8 <I2C_0_PORT_init>:
	((Port *)hw)->Group[submodule_index].PINCFG[index].reg &= ~PORT_PINCFG_PULLEN;
     6d8:	4b16      	ldr	r3, [pc, #88]	; (734 <I2C_0_PORT_init+0x5c>)
     6da:	f893 2057 	ldrb.w	r2, [r3, #87]	; 0x57
     6de:	f002 02fb 	and.w	r2, r2, #251	; 0xfb
     6e2:	f883 2057 	strb.w	r2, [r3, #87]	; 0x57
	tmp = ((Port *)hw)->Group[submodule_index].PINCFG[index].reg;
     6e6:	f893 2057 	ldrb.w	r2, [r3, #87]	; 0x57
	tmp &= ~PORT_PINCFG_PMUXEN;
     6ea:	f002 02fe 	and.w	r2, r2, #254	; 0xfe
	tmp |= value << PORT_PINCFG_PMUXEN_Pos;
     6ee:	f042 0201 	orr.w	r2, r2, #1
	((Port *)hw)->Group[submodule_index].PINCFG[index].reg = tmp;
     6f2:	f883 2057 	strb.w	r2, [r3, #87]	; 0x57
	tmp = ((Port *)hw)->Group[submodule_index].PMUX[index].reg;
     6f6:	f893 203b 	ldrb.w	r2, [r3, #59]	; 0x3b
	tmp &= ~PORT_PMUX_PMUXO_Msk;
     6fa:	f002 020f 	and.w	r2, r2, #15
	tmp |= PORT_PMUX_PMUXO(data);
     6fe:	f042 0230 	orr.w	r2, r2, #48	; 0x30
	((Port *)hw)->Group[submodule_index].PMUX[index].reg = tmp;
     702:	f883 203b 	strb.w	r2, [r3, #59]	; 0x3b
	((Port *)hw)->Group[submodule_index].PINCFG[index].reg &= ~PORT_PINCFG_PULLEN;
     706:	f893 2056 	ldrb.w	r2, [r3, #86]	; 0x56
     70a:	f002 02fb 	and.w	r2, r2, #251	; 0xfb
     70e:	f883 2056 	strb.w	r2, [r3, #86]	; 0x56
	tmp = ((Port *)hw)->Group[submodule_index].PINCFG[index].reg;
     712:	f893 2056 	ldrb.w	r2, [r3, #86]	; 0x56
	tmp &= ~PORT_PINCFG_PMUXEN;
     716:	f002 02fe 	and.w	r2, r2, #254	; 0xfe
	tmp |= value << PORT_PINCFG_PMUXEN_Pos;
     71a:	f042 0201 	orr.w	r2, r2, #1
	((Port *)hw)->Group[submodule_index].PINCFG[index].reg = tmp;
     71e:	f883 2056 	strb.w	r2, [r3, #86]	; 0x56
	tmp = ((Port *)hw)->Group[submodule_index].PMUX[index].reg;
     722:	f893 203b 	ldrb.w	r2, [r3, #59]	; 0x3b
	tmp &= ~PORT_PMUX_PMUXE_Msk;
     726:	f002 02f0 	and.w	r2, r2, #240	; 0xf0
	tmp |= PORT_PMUX_PMUXE(data);
     72a:	f042 0203 	orr.w	r2, r2, #3
	((Port *)hw)->Group[submodule_index].PMUX[index].reg = tmp;
     72e:	f883 203b 	strb.w	r2, [r3, #59]	; 0x3b
     732:	4770      	bx	lr
     734:	41008000 	.word	0x41008000

00000738 <I2C_0_CLOCK_init>:
     738:	4b06      	ldr	r3, [pc, #24]	; (754 <I2C_0_CLOCK_init+0x1c>)
     73a:	2241      	movs	r2, #65	; 0x41
     73c:	f8c3 210c 	str.w	r2, [r3, #268]	; 0x10c
     740:	2243      	movs	r2, #67	; 0x43
     742:	f8c3 208c 	str.w	r2, [r3, #140]	; 0x8c
	((Mclk *)hw)->APBDMASK.reg |= MCLK_APBDMASK_SERCOM5;
     746:	4a04      	ldr	r2, [pc, #16]	; (758 <I2C_0_CLOCK_init+0x20>)
     748:	6a13      	ldr	r3, [r2, #32]
     74a:	f043 0302 	orr.w	r3, r3, #2
     74e:	6213      	str	r3, [r2, #32]
     750:	4770      	bx	lr
     752:	bf00      	nop
     754:	40001c00 	.word	0x40001c00
     758:	40000800 	.word	0x40000800

0000075c <I2C_0_init>:

	hri_mclk_set_APBDMASK_SERCOM5_bit(MCLK);
}

void I2C_0_init(void)
{
     75c:	b508      	push	{r3, lr}
	I2C_0_CLOCK_init();
     75e:	4b04      	ldr	r3, [pc, #16]	; (770 <I2C_0_init+0x14>)
     760:	4798      	blx	r3
	i2c_m_sync_init(&I2C_0, SERCOM5);
     762:	4904      	ldr	r1, [pc, #16]	; (774 <I2C_0_init+0x18>)
     764:	4804      	ldr	r0, [pc, #16]	; (778 <I2C_0_init+0x1c>)
     766:	4b05      	ldr	r3, [pc, #20]	; (77c <I2C_0_init+0x20>)
     768:	4798      	blx	r3
	I2C_0_PORT_init();
     76a:	4b05      	ldr	r3, [pc, #20]	; (780 <I2C_0_init+0x24>)
     76c:	4798      	blx	r3
     76e:	bd08      	pop	{r3, pc}
     770:	00000739 	.word	0x00000739
     774:	43000400 	.word	0x43000400
     778:	20000d04 	.word	0x20000d04
     77c:	00000e2d 	.word	0x00000e2d
     780:	000006d9 	.word	0x000006d9

00000784 <delay_driver_init>:
}

void delay_driver_init(void)
{
     784:	b508      	push	{r3, lr}
	delay_init(SysTick);
     786:	4802      	ldr	r0, [pc, #8]	; (790 <delay_driver_init+0xc>)
     788:	4b02      	ldr	r3, [pc, #8]	; (794 <delay_driver_init+0x10>)
     78a:	4798      	blx	r3
     78c:	bd08      	pop	{r3, pc}
     78e:	bf00      	nop
     790:	e000e010 	.word	0xe000e010
     794:	00000d51 	.word	0x00000d51

00000798 <RAND_0_CLOCK_init>:
	((Mclk *)hw)->APBCMASK.reg |= MCLK_APBCMASK_TRNG;
     798:	4a02      	ldr	r2, [pc, #8]	; (7a4 <RAND_0_CLOCK_init+0xc>)
     79a:	69d3      	ldr	r3, [r2, #28]
     79c:	f443 6380 	orr.w	r3, r3, #1024	; 0x400
     7a0:	61d3      	str	r3, [r2, #28]
     7a2:	4770      	bx	lr
     7a4:	40000800 	.word	0x40000800

000007a8 <RAND_0_init>:
{
	hri_mclk_set_APBCMASK_TRNG_bit(MCLK);
}

void RAND_0_init(void)
{
     7a8:	b508      	push	{r3, lr}
	RAND_0_CLOCK_init();
     7aa:	4b03      	ldr	r3, [pc, #12]	; (7b8 <RAND_0_init+0x10>)
     7ac:	4798      	blx	r3
	rand_sync_init(&RAND_0, TRNG);
     7ae:	4903      	ldr	r1, [pc, #12]	; (7bc <RAND_0_init+0x14>)
     7b0:	4803      	ldr	r0, [pc, #12]	; (7c0 <RAND_0_init+0x18>)
     7b2:	4b04      	ldr	r3, [pc, #16]	; (7c4 <RAND_0_init+0x1c>)
     7b4:	4798      	blx	r3
     7b6:	bd08      	pop	{r3, pc}
     7b8:	00000799 	.word	0x00000799
     7bc:	42002800 	.word	0x42002800
     7c0:	20000ca4 	.word	0x20000ca4
     7c4:	00000e6d 	.word	0x00000e6d

000007c8 <USB_DEVICE_INSTANCE_PORT_init>:
	((Port *)hw)->Group[submodule_index].DIRSET.reg = mask;
     7c8:	4b1e      	ldr	r3, [pc, #120]	; (844 <USB_DEVICE_INSTANCE_PORT_init+0x7c>)
     7ca:	f04f 7280 	mov.w	r2, #16777216	; 0x1000000
     7ce:	609a      	str	r2, [r3, #8]
	((Port *)hw)->Group[submodule_index].WRCONFIG.reg = data;
     7d0:	f04f 4180 	mov.w	r1, #1073741824	; 0x40000000
     7d4:	6299      	str	r1, [r3, #40]	; 0x28
     7d6:	481c      	ldr	r0, [pc, #112]	; (848 <USB_DEVICE_INSTANCE_PORT_init+0x80>)
     7d8:	6298      	str	r0, [r3, #40]	; 0x28
	((Port *)hw)->Group[submodule_index].OUTCLR.reg = mask;
     7da:	615a      	str	r2, [r3, #20]
	((Port *)hw)->Group[submodule_index].PINCFG[index].reg &= ~PORT_PINCFG_PULLEN;
     7dc:	f893 2058 	ldrb.w	r2, [r3, #88]	; 0x58
     7e0:	f002 02fb 	and.w	r2, r2, #251	; 0xfb
     7e4:	f883 2058 	strb.w	r2, [r3, #88]	; 0x58
	tmp = ((Port *)hw)->Group[submodule_index].PINCFG[index].reg;
     7e8:	f893 2058 	ldrb.w	r2, [r3, #88]	; 0x58
	tmp &= ~PORT_PINCFG_PMUXEN;
     7ec:	f002 02fe 	and.w	r2, r2, #254	; 0xfe
	tmp |= value << PORT_PINCFG_PMUXEN_Pos;
     7f0:	f042 0201 	orr.w	r2, r2, #1
	((Port *)hw)->Group[submodule_index].PINCFG[index].reg = tmp;
     7f4:	f883 2058 	strb.w	r2, [r3, #88]	; 0x58
	tmp = ((Port *)hw)->Group[submodule_index].PMUX[index].reg;
     7f8:	f893 203c 	ldrb.w	r2, [r3, #60]	; 0x3c
	tmp &= ~PORT_PMUX_PMUXE_Msk;
     7fc:	f002 02f0 	and.w	r2, r2, #240	; 0xf0
	tmp |= PORT_PMUX_PMUXE(data);
     800:	f042 0207 	orr.w	r2, r2, #7
	((Port *)hw)->Group[submodule_index].PMUX[index].reg = tmp;
     804:	f883 203c 	strb.w	r2, [r3, #60]	; 0x3c
	((Port *)hw)->Group[submodule_index].DIRSET.reg = mask;
     808:	f04f 7200 	mov.w	r2, #33554432	; 0x2000000
     80c:	609a      	str	r2, [r3, #8]
	((Port *)hw)->Group[submodule_index].WRCONFIG.reg = data;
     80e:	6299      	str	r1, [r3, #40]	; 0x28
     810:	490e      	ldr	r1, [pc, #56]	; (84c <USB_DEVICE_INSTANCE_PORT_init+0x84>)
     812:	6299      	str	r1, [r3, #40]	; 0x28
	((Port *)hw)->Group[submodule_index].OUTCLR.reg = mask;
     814:	615a      	str	r2, [r3, #20]
	((Port *)hw)->Group[submodule_index].PINCFG[index].reg &= ~PORT_PINCFG_PULLEN;
     816:	f893 2059 	ldrb.w	r2, [r3, #89]	; 0x59
     81a:	f002 02fb 	and.w	r2, r2, #251	; 0xfb
     81e:	f883 2059 	strb.w	r2, [r3, #89]	; 0x59
	tmp = ((Port *)hw)->Group[submodule_index].PINCFG[index].reg;
     822:	f893 2059 	ldrb.w	r2, [r3, #89]	; 0x59
	tmp &= ~PORT_PINCFG_PMUXEN;
     826:	f002 02fe 	and.w	r2, r2, #254	; 0xfe
	tmp |= value << PORT_PINCFG_PMUXEN_Pos;
     82a:	f042 0201 	orr.w	r2, r2, #1
	((Port *)hw)->Group[submodule_index].PINCFG[index].reg = tmp;
     82e:	f883 2059 	strb.w	r2, [r3, #89]	; 0x59
	tmp = ((Port *)hw)->Group[submodule_index].PMUX[index].reg;
     832:	f893 203c 	ldrb.w	r2, [r3, #60]	; 0x3c
	tmp &= ~PORT_PMUX_PMUXO_Msk;
     836:	f002 020f 	and.w	r2, r2, #15
	tmp |= PORT_PMUX_PMUXO(data);
     83a:	f042 0270 	orr.w	r2, r2, #112	; 0x70
	((Port *)hw)->Group[submodule_index].PMUX[index].reg = tmp;
     83e:	f883 203c 	strb.w	r2, [r3, #60]	; 0x3c
     842:	4770      	bx	lr
     844:	41008000 	.word	0x41008000
     848:	c0000100 	.word	0xc0000100
     84c:	c0000200 	.word	0xc0000200

00000850 <USB_DEVICE_INSTANCE_CLOCK_init>:
     850:	2241      	movs	r2, #65	; 0x41
     852:	4b07      	ldr	r3, [pc, #28]	; (870 <USB_DEVICE_INSTANCE_CLOCK_init+0x20>)
     854:	f8c3 20a8 	str.w	r2, [r3, #168]	; 0xa8
	((Mclk *)hw)->AHBMASK.reg |= MCLK_AHBMASK_USB;
     858:	f5a3 53a0 	sub.w	r3, r3, #5120	; 0x1400
     85c:	691a      	ldr	r2, [r3, #16]
     85e:	f442 6280 	orr.w	r2, r2, #1024	; 0x400
     862:	611a      	str	r2, [r3, #16]
	((Mclk *)hw)->APBBMASK.reg |= MCLK_APBBMASK_USB;
     864:	699a      	ldr	r2, [r3, #24]
     866:	f042 0201 	orr.w	r2, r2, #1
     86a:	619a      	str	r2, [r3, #24]
     86c:	4770      	bx	lr
     86e:	bf00      	nop
     870:	40001c00 	.word	0x40001c00

00000874 <USB_DEVICE_INSTANCE_init>:
	hri_mclk_set_AHBMASK_USB_bit(MCLK);
	hri_mclk_set_APBBMASK_USB_bit(MCLK);
}

void USB_DEVICE_INSTANCE_init(void)
{
     874:	b508      	push	{r3, lr}
	USB_DEVICE_INSTANCE_CLOCK_init();
     876:	4b03      	ldr	r3, [pc, #12]	; (884 <USB_DEVICE_INSTANCE_init+0x10>)
     878:	4798      	blx	r3
	usb_d_init();
     87a:	4b03      	ldr	r3, [pc, #12]	; (888 <USB_DEVICE_INSTANCE_init+0x14>)
     87c:	4798      	blx	r3
	USB_DEVICE_INSTANCE_PORT_init();
     87e:	4b03      	ldr	r3, [pc, #12]	; (88c <USB_DEVICE_INSTANCE_init+0x18>)
     880:	4798      	blx	r3
     882:	bd08      	pop	{r3, pc}
     884:	00000851 	.word	0x00000851
     888:	000014e1 	.word	0x000014e1
     88c:	000007c9 	.word	0x000007c9

00000890 <WDT_0_CLOCK_init>:
	((Mclk *)hw)->APBAMASK.reg |= MCLK_APBAMASK_WDT;
     890:	4a02      	ldr	r2, [pc, #8]	; (89c <WDT_0_CLOCK_init+0xc>)
     892:	6953      	ldr	r3, [r2, #20]
     894:	f443 7380 	orr.w	r3, r3, #256	; 0x100
     898:	6153      	str	r3, [r2, #20]
     89a:	4770      	bx	lr
     89c:	40000800 	.word	0x40000800

000008a0 <WDT_0_init>:
{
	hri_mclk_set_APBAMASK_WDT_bit(MCLK);
}

void WDT_0_init(void)
{
     8a0:	b508      	push	{r3, lr}
	WDT_0_CLOCK_init();
     8a2:	4b06      	ldr	r3, [pc, #24]	; (8bc <WDT_0_init+0x1c>)
     8a4:	4798      	blx	r3
 * \retval 0 Completed sucessfully.
 * \retval -1 Always on or enabled, don't need init again.
 */
static inline int32_t wdt_init(struct wdt_descriptor *const wdt, const void *hw)
{
	ASSERT(wdt && hw);
     8a6:	2248      	movs	r2, #72	; 0x48
     8a8:	4905      	ldr	r1, [pc, #20]	; (8c0 <WDT_0_init+0x20>)
     8aa:	2001      	movs	r0, #1
     8ac:	4b05      	ldr	r3, [pc, #20]	; (8c4 <WDT_0_init+0x24>)
     8ae:	4798      	blx	r3

	wdt->dev.hw = (void *)hw;
     8b0:	4805      	ldr	r0, [pc, #20]	; (8c8 <WDT_0_init+0x28>)
     8b2:	4b06      	ldr	r3, [pc, #24]	; (8cc <WDT_0_init+0x2c>)
     8b4:	6003      	str	r3, [r0, #0]

	return _wdt_init(&wdt->dev);
     8b6:	4b06      	ldr	r3, [pc, #24]	; (8d0 <WDT_0_init+0x30>)
     8b8:	4798      	blx	r3
     8ba:	bd08      	pop	{r3, pc}
     8bc:	00000891 	.word	0x00000891
     8c0:	00006d3c 	.word	0x00006d3c
     8c4:	0000182d 	.word	0x0000182d
     8c8:	20000cb0 	.word	0x20000cb0
     8cc:	40002000 	.word	0x40002000
     8d0:	00003b39 	.word	0x00003b39

000008d4 <system_init>:
	wdt_init(&WDT_0, WDT);
}

void system_init(void)
{
     8d4:	e92d 47f0 	stmdb	sp!, {r4, r5, r6, r7, r8, r9, sl, lr}
 * Currently the following initialization functions are supported:
 *  - System clock initialization
 */
static inline void init_mcu(void)
{
	_init_chip();
     8d8:	4be3      	ldr	r3, [pc, #908]	; (c68 <system_init+0x394>)
     8da:	4798      	blx	r3
	((Port *)hw)->Group[submodule_index].DIRSET.reg = mask;
     8dc:	4be3      	ldr	r3, [pc, #908]	; (c6c <system_init+0x398>)
     8de:	2201      	movs	r2, #1
     8e0:	609a      	str	r2, [r3, #8]
	((Port *)hw)->Group[submodule_index].WRCONFIG.reg = data;
     8e2:	49e3      	ldr	r1, [pc, #908]	; (c70 <system_init+0x39c>)
     8e4:	6299      	str	r1, [r3, #40]	; 0x28
     8e6:	f04f 4040 	mov.w	r0, #3221225472	; 0xc0000000
     8ea:	6298      	str	r0, [r3, #40]	; 0x28
	((Port *)hw)->Group[submodule_index].OUTCLR.reg = mask;
     8ec:	615a      	str	r2, [r3, #20]
	((Port *)hw)->Group[submodule_index].PINCFG[index].reg &= ~PORT_PINCFG_PULLEN;
     8ee:	f893 2040 	ldrb.w	r2, [r3, #64]	; 0x40
     8f2:	f002 02fb 	and.w	r2, r2, #251	; 0xfb
     8f6:	f883 2040 	strb.w	r2, [r3, #64]	; 0x40
	tmp = ((Port *)hw)->Group[submodule_index].PINCFG[index].reg;
     8fa:	f893 2040 	ldrb.w	r2, [r3, #64]	; 0x40
	tmp &= ~PORT_PINCFG_PMUXEN;
     8fe:	f002 02fe 	and.w	r2, r2, #254	; 0xfe
	((Port *)hw)->Group[submodule_index].PINCFG[index].reg = tmp;
     902:	f883 2040 	strb.w	r2, [r3, #64]	; 0x40
	((Port *)hw)->Group[submodule_index].DIRSET.reg = mask;
     906:	2202      	movs	r2, #2
     908:	609a      	str	r2, [r3, #8]
	((Port *)hw)->Group[submodule_index].WRCONFIG.reg = data;
     90a:	3101      	adds	r1, #1
     90c:	6299      	str	r1, [r3, #40]	; 0x28
     90e:	6298      	str	r0, [r3, #40]	; 0x28
	((Port *)hw)->Group[submodule_index].OUTCLR.reg = mask;
     910:	615a      	str	r2, [r3, #20]
	((Port *)hw)->Group[submodule_index].PINCFG[index].reg &= ~PORT_PINCFG_PULLEN;
     912:	f893 2041 	ldrb.w	r2, [r3, #65]	; 0x41
     916:	f002 02fb 	and.w	r2, r2, #251	; 0xfb
     91a:	f883 2041 	strb.w	r2, [r3, #65]	; 0x41
	tmp = ((Port *)hw)->Group[submodule_index].PINCFG[index].reg;
     91e:	f893 2041 	ldrb.w	r2, [r3, #65]	; 0x41
	tmp &= ~PORT_PINCFG_PMUXEN;
     922:	f002 02fe 	and.w	r2, r2, #254	; 0xfe
	((Port *)hw)->Group[submodule_index].PINCFG[index].reg = tmp;
     926:	f883 2041 	strb.w	r2, [r3, #65]	; 0x41
	((Port *)hw)->Group[submodule_index].DIRCLR.reg = mask;
     92a:	f04f 0980 	mov.w	r9, #128	; 0x80
     92e:	f8c3 9004 	str.w	r9, [r3, #4]
	((Port *)hw)->Group[submodule_index].WRCONFIG.reg = data;
     932:	4ad0      	ldr	r2, [pc, #832]	; (c74 <system_init+0x3a0>)
     934:	629a      	str	r2, [r3, #40]	; 0x28
     936:	49d0      	ldr	r1, [pc, #832]	; (c78 <system_init+0x3a4>)
     938:	6299      	str	r1, [r3, #40]	; 0x28
	((Port *)hw)->Group[submodule_index].PINCFG[index].reg &= ~PORT_PINCFG_PULLEN;
     93a:	f893 2047 	ldrb.w	r2, [r3, #71]	; 0x47
     93e:	f002 02fb 	and.w	r2, r2, #251	; 0xfb
     942:	f883 2047 	strb.w	r2, [r3, #71]	; 0x47
	tmp = ((Port *)hw)->Group[submodule_index].PINCFG[index].reg;
     946:	f893 2047 	ldrb.w	r2, [r3, #71]	; 0x47
	tmp &= ~PORT_PINCFG_PMUXEN;
     94a:	f002 02fe 	and.w	r2, r2, #254	; 0xfe
	((Port *)hw)->Group[submodule_index].PINCFG[index].reg = tmp;
     94e:	f883 2047 	strb.w	r2, [r3, #71]	; 0x47
	((Port *)hw)->Group[submodule_index].DIRCLR.reg = mask;
     952:	f44f 4800 	mov.w	r8, #32768	; 0x8000
     956:	f8c3 8004 	str.w	r8, [r3, #4]
	((Port *)hw)->Group[submodule_index].WRCONFIG.reg = data;
     95a:	f8df c350 	ldr.w	ip, [pc, #848]	; cac <system_init+0x3d8>
     95e:	f8c3 c028 	str.w	ip, [r3, #40]	; 0x28
     962:	6299      	str	r1, [r3, #40]	; 0x28
	((Port *)hw)->Group[submodule_index].PINCFG[index].reg &= ~PORT_PINCFG_PULLEN;
     964:	f893 204f 	ldrb.w	r2, [r3, #79]	; 0x4f
     968:	f002 02fb 	and.w	r2, r2, #251	; 0xfb
     96c:	f883 204f 	strb.w	r2, [r3, #79]	; 0x4f
	tmp = ((Port *)hw)->Group[submodule_index].PINCFG[index].reg;
     970:	f893 204f 	ldrb.w	r2, [r3, #79]	; 0x4f
	tmp &= ~PORT_PINCFG_PMUXEN;
     974:	f002 02fe 	and.w	r2, r2, #254	; 0xfe
	((Port *)hw)->Group[submodule_index].PINCFG[index].reg = tmp;
     978:	f883 204f 	strb.w	r2, [r3, #79]	; 0x4f
	((Port *)hw)->Group[submodule_index].DIRCLR.reg = mask;
     97c:	f44f 3e80 	mov.w	lr, #65536	; 0x10000
     980:	f8c3 e004 	str.w	lr, [r3, #4]
	((Port *)hw)->Group[submodule_index].WRCONFIG.reg = data;
     984:	4abd      	ldr	r2, [pc, #756]	; (c7c <system_init+0x3a8>)
     986:	629a      	str	r2, [r3, #40]	; 0x28
     988:	4fbd      	ldr	r7, [pc, #756]	; (c80 <system_init+0x3ac>)
     98a:	629f      	str	r7, [r3, #40]	; 0x28
	((Port *)hw)->Group[submodule_index].PINCFG[index].reg &= ~PORT_PINCFG_PULLEN;
     98c:	f893 4050 	ldrb.w	r4, [r3, #80]	; 0x50
     990:	f004 04fb 	and.w	r4, r4, #251	; 0xfb
     994:	f883 4050 	strb.w	r4, [r3, #80]	; 0x50
	tmp = ((Port *)hw)->Group[submodule_index].PINCFG[index].reg;
     998:	f893 4050 	ldrb.w	r4, [r3, #80]	; 0x50
	tmp &= ~PORT_PINCFG_PMUXEN;
     99c:	f004 04fe 	and.w	r4, r4, #254	; 0xfe
	((Port *)hw)->Group[submodule_index].PINCFG[index].reg = tmp;
     9a0:	f883 4050 	strb.w	r4, [r3, #80]	; 0x50
	((Port *)hw)->Group[submodule_index].DIRCLR.reg = mask;
     9a4:	f44f 3600 	mov.w	r6, #131072	; 0x20000
     9a8:	605e      	str	r6, [r3, #4]
	((Port *)hw)->Group[submodule_index].WRCONFIG.reg = data;
     9aa:	629a      	str	r2, [r3, #40]	; 0x28
     9ac:	4db5      	ldr	r5, [pc, #724]	; (c84 <system_init+0x3b0>)
     9ae:	629d      	str	r5, [r3, #40]	; 0x28
	((Port *)hw)->Group[submodule_index].PINCFG[index].reg &= ~PORT_PINCFG_PULLEN;
     9b0:	f893 4051 	ldrb.w	r4, [r3, #81]	; 0x51
     9b4:	f004 04fb 	and.w	r4, r4, #251	; 0xfb
     9b8:	f883 4051 	strb.w	r4, [r3, #81]	; 0x51
	tmp = ((Port *)hw)->Group[submodule_index].PINCFG[index].reg;
     9bc:	f893 4051 	ldrb.w	r4, [r3, #81]	; 0x51
	tmp &= ~PORT_PINCFG_PMUXEN;
     9c0:	f004 04fe 	and.w	r4, r4, #254	; 0xfe
	((Port *)hw)->Group[submodule_index].PINCFG[index].reg = tmp;
     9c4:	f883 4051 	strb.w	r4, [r3, #81]	; 0x51
	((Port *)hw)->Group[submodule_index].DIRCLR.reg = mask;
     9c8:	f44f 2480 	mov.w	r4, #262144	; 0x40000
     9cc:	605c      	str	r4, [r3, #4]
	((Port *)hw)->Group[submodule_index].WRCONFIG.reg = data;
     9ce:	629a      	str	r2, [r3, #40]	; 0x28
     9d0:	4cad      	ldr	r4, [pc, #692]	; (c88 <system_init+0x3b4>)
     9d2:	629c      	str	r4, [r3, #40]	; 0x28
	((Port *)hw)->Group[submodule_index].PINCFG[index].reg &= ~PORT_PINCFG_PULLEN;
     9d4:	f893 4052 	ldrb.w	r4, [r3, #82]	; 0x52
     9d8:	f004 04fb 	and.w	r4, r4, #251	; 0xfb
     9dc:	f883 4052 	strb.w	r4, [r3, #82]	; 0x52
	tmp = ((Port *)hw)->Group[submodule_index].PINCFG[index].reg;
     9e0:	f893 4052 	ldrb.w	r4, [r3, #82]	; 0x52
	tmp &= ~PORT_PINCFG_PMUXEN;
     9e4:	f004 04fe 	and.w	r4, r4, #254	; 0xfe
	((Port *)hw)->Group[submodule_index].PINCFG[index].reg = tmp;
     9e8:	f883 4052 	strb.w	r4, [r3, #82]	; 0x52
	((Port *)hw)->Group[submodule_index].DIRCLR.reg = mask;
     9ec:	f44f 2400 	mov.w	r4, #524288	; 0x80000
     9f0:	605c      	str	r4, [r3, #4]
	((Port *)hw)->Group[submodule_index].WRCONFIG.reg = data;
     9f2:	629a      	str	r2, [r3, #40]	; 0x28
     9f4:	4ca5      	ldr	r4, [pc, #660]	; (c8c <system_init+0x3b8>)
     9f6:	629c      	str	r4, [r3, #40]	; 0x28
	((Port *)hw)->Group[submodule_index].PINCFG[index].reg &= ~PORT_PINCFG_PULLEN;
     9f8:	f893 4053 	ldrb.w	r4, [r3, #83]	; 0x53
     9fc:	f004 04fb 	and.w	r4, r4, #251	; 0xfb
     a00:	f883 4053 	strb.w	r4, [r3, #83]	; 0x53
	tmp = ((Port *)hw)->Group[submodule_index].PINCFG[index].reg;
     a04:	f893 4053 	ldrb.w	r4, [r3, #83]	; 0x53
	tmp &= ~PORT_PINCFG_PMUXEN;
     a08:	f004 04fe 	and.w	r4, r4, #254	; 0xfe
	((Port *)hw)->Group[submodule_index].PINCFG[index].reg = tmp;
     a0c:	f883 4053 	strb.w	r4, [r3, #83]	; 0x53
	((Port *)hw)->Group[submodule_index].DIRCLR.reg = mask;
     a10:	f44f 1480 	mov.w	r4, #1048576	; 0x100000
     a14:	605c      	str	r4, [r3, #4]
	((Port *)hw)->Group[submodule_index].WRCONFIG.reg = data;
     a16:	629a      	str	r2, [r3, #40]	; 0x28
     a18:	4c9d      	ldr	r4, [pc, #628]	; (c90 <system_init+0x3bc>)
     a1a:	629c      	str	r4, [r3, #40]	; 0x28
	((Port *)hw)->Group[submodule_index].PINCFG[index].reg &= ~PORT_PINCFG_PULLEN;
     a1c:	f893 4054 	ldrb.w	r4, [r3, #84]	; 0x54
     a20:	f004 04fb 	and.w	r4, r4, #251	; 0xfb
     a24:	f883 4054 	strb.w	r4, [r3, #84]	; 0x54
	tmp = ((Port *)hw)->Group[submodule_index].PINCFG[index].reg;
     a28:	f893 4054 	ldrb.w	r4, [r3, #84]	; 0x54
	tmp &= ~PORT_PINCFG_PMUXEN;
     a2c:	f004 04fe 	and.w	r4, r4, #254	; 0xfe
	((Port *)hw)->Group[submodule_index].PINCFG[index].reg = tmp;
     a30:	f883 4054 	strb.w	r4, [r3, #84]	; 0x54
	((Port *)hw)->Group[submodule_index].DIRCLR.reg = mask;
     a34:	f44f 1400 	mov.w	r4, #2097152	; 0x200000
     a38:	605c      	str	r4, [r3, #4]
	((Port *)hw)->Group[submodule_index].WRCONFIG.reg = data;
     a3a:	629a      	str	r2, [r3, #40]	; 0x28
     a3c:	4c95      	ldr	r4, [pc, #596]	; (c94 <system_init+0x3c0>)
     a3e:	629c      	str	r4, [r3, #40]	; 0x28
	((Port *)hw)->Group[submodule_index].PINCFG[index].reg &= ~PORT_PINCFG_PULLEN;
     a40:	f893 4055 	ldrb.w	r4, [r3, #85]	; 0x55
     a44:	f004 04fb 	and.w	r4, r4, #251	; 0xfb
     a48:	f883 4055 	strb.w	r4, [r3, #85]	; 0x55
	tmp = ((Port *)hw)->Group[submodule_index].PINCFG[index].reg;
     a4c:	f893 4055 	ldrb.w	r4, [r3, #85]	; 0x55
	tmp &= ~PORT_PINCFG_PMUXEN;
     a50:	f004 04fe 	and.w	r4, r4, #254	; 0xfe
	((Port *)hw)->Group[submodule_index].PINCFG[index].reg = tmp;
     a54:	f883 4055 	strb.w	r4, [r3, #85]	; 0x55
	((Port *)hw)->Group[submodule_index].OUTCLR.reg = mask;
     a58:	f04f 6400 	mov.w	r4, #134217728	; 0x8000000
     a5c:	615c      	str	r4, [r3, #20]
	((Port *)hw)->Group[submodule_index].DIRSET.reg = mask;
     a5e:	609c      	str	r4, [r3, #8]
	((Port *)hw)->Group[submodule_index].WRCONFIG.reg = data;
     a60:	f04f 4480 	mov.w	r4, #1073741824	; 0x40000000
     a64:	629c      	str	r4, [r3, #40]	; 0x28
     a66:	f8df a248 	ldr.w	sl, [pc, #584]	; cb0 <system_init+0x3dc>
     a6a:	f8c3 a028 	str.w	sl, [r3, #40]	; 0x28
	tmp = ((Port *)hw)->Group[submodule_index].PINCFG[index].reg;
     a6e:	f893 a05b 	ldrb.w	sl, [r3, #91]	; 0x5b
	tmp &= ~PORT_PINCFG_PMUXEN;
     a72:	f00a 0afe 	and.w	sl, sl, #254	; 0xfe
	((Port *)hw)->Group[submodule_index].PINCFG[index].reg = tmp;
     a76:	f883 a05b 	strb.w	sl, [r3, #91]	; 0x5b
	((Port *)hw)->Group[submodule_index].DIRCLR.reg = mask;
     a7a:	f04f 0a10 	mov.w	sl, #16
     a7e:	f8c3 a084 	str.w	sl, [r3, #132]	; 0x84
	((Port *)hw)->Group[submodule_index].WRCONFIG.reg = data;
     a82:	f10a 4a80 	add.w	sl, sl, #1073741824	; 0x40000000
     a86:	f50a 3a00 	add.w	sl, sl, #131072	; 0x20000
     a8a:	f8c3 a0a8 	str.w	sl, [r3, #168]	; 0xa8
     a8e:	f8c3 10a8 	str.w	r1, [r3, #168]	; 0xa8
	((Port *)hw)->Group[submodule_index].PINCFG[index].reg &= ~PORT_PINCFG_PULLEN;
     a92:	f893 a0c4 	ldrb.w	sl, [r3, #196]	; 0xc4
     a96:	f00a 0afb 	and.w	sl, sl, #251	; 0xfb
     a9a:	f883 a0c4 	strb.w	sl, [r3, #196]	; 0xc4
	tmp = ((Port *)hw)->Group[submodule_index].PINCFG[index].reg;
     a9e:	f893 a0c4 	ldrb.w	sl, [r3, #196]	; 0xc4
	tmp &= ~PORT_PINCFG_PMUXEN;
     aa2:	f00a 0afe 	and.w	sl, sl, #254	; 0xfe
	((Port *)hw)->Group[submodule_index].PINCFG[index].reg = tmp;
     aa6:	f883 a0c4 	strb.w	sl, [r3, #196]	; 0xc4
	((Port *)hw)->Group[submodule_index].DIRCLR.reg = mask;
     aaa:	f04f 0a20 	mov.w	sl, #32
     aae:	f8c3 a084 	str.w	sl, [r3, #132]	; 0x84
	((Port *)hw)->Group[submodule_index].WRCONFIG.reg = data;
     ab2:	f10a 4a80 	add.w	sl, sl, #1073741824	; 0x40000000
     ab6:	f50a 3a00 	add.w	sl, sl, #131072	; 0x20000
     aba:	f8c3 a0a8 	str.w	sl, [r3, #168]	; 0xa8
     abe:	f8c3 10a8 	str.w	r1, [r3, #168]	; 0xa8
	((Port *)hw)->Group[submodule_index].PINCFG[index].reg &= ~PORT_PINCFG_PULLEN;
     ac2:	f893 a0c5 	ldrb.w	sl, [r3, #197]	; 0xc5
     ac6:	f00a 0afb 	and.w	sl, sl, #251	; 0xfb
     aca:	f883 a0c5 	strb.w	sl, [r3, #197]	; 0xc5
	tmp = ((Port *)hw)->Group[submodule_index].PINCFG[index].reg;
     ace:	f893 a0c5 	ldrb.w	sl, [r3, #197]	; 0xc5
	tmp &= ~PORT_PINCFG_PMUXEN;
     ad2:	f00a 0afe 	and.w	sl, sl, #254	; 0xfe
	((Port *)hw)->Group[submodule_index].PINCFG[index].reg = tmp;
     ad6:	f883 a0c5 	strb.w	sl, [r3, #197]	; 0xc5
	((Port *)hw)->Group[submodule_index].OUTSET.reg = mask;
     ada:	f04f 0a40 	mov.w	sl, #64	; 0x40
     ade:	f8c3 a098 	str.w	sl, [r3, #152]	; 0x98
	((Port *)hw)->Group[submodule_index].DIRSET.reg = mask;
     ae2:	f8c3 a088 	str.w	sl, [r3, #136]	; 0x88
	((Port *)hw)->Group[submodule_index].WRCONFIG.reg = data;
     ae6:	f10a 4a80 	add.w	sl, sl, #1073741824	; 0x40000000
     aea:	f8c3 a0a8 	str.w	sl, [r3, #168]	; 0xa8
     aee:	f8c3 00a8 	str.w	r0, [r3, #168]	; 0xa8
	tmp = ((Port *)hw)->Group[submodule_index].PINCFG[index].reg;
     af2:	f893 a0c6 	ldrb.w	sl, [r3, #198]	; 0xc6
	tmp &= ~PORT_PINCFG_PMUXEN;
     af6:	f00a 0afe 	and.w	sl, sl, #254	; 0xfe
	((Port *)hw)->Group[submodule_index].PINCFG[index].reg = tmp;
     afa:	f883 a0c6 	strb.w	sl, [r3, #198]	; 0xc6
	((Port *)hw)->Group[submodule_index].OUTCLR.reg = mask;
     afe:	f8c3 9094 	str.w	r9, [r3, #148]	; 0x94
	((Port *)hw)->Group[submodule_index].DIRSET.reg = mask;
     b02:	f8c3 9088 	str.w	r9, [r3, #136]	; 0x88
	((Port *)hw)->Group[submodule_index].WRCONFIG.reg = data;
     b06:	f109 4980 	add.w	r9, r9, #1073741824	; 0x40000000
     b0a:	f8c3 90a8 	str.w	r9, [r3, #168]	; 0xa8
     b0e:	f8c3 00a8 	str.w	r0, [r3, #168]	; 0xa8
	tmp = ((Port *)hw)->Group[submodule_index].PINCFG[index].reg;
     b12:	f893 00c7 	ldrb.w	r0, [r3, #199]	; 0xc7
	tmp &= ~PORT_PINCFG_PMUXEN;
     b16:	f000 00fe 	and.w	r0, r0, #254	; 0xfe
	((Port *)hw)->Group[submodule_index].PINCFG[index].reg = tmp;
     b1a:	f883 00c7 	strb.w	r0, [r3, #199]	; 0xc7
	((Port *)hw)->Group[submodule_index].DIRCLR.reg = mask;
     b1e:	f44f 5080 	mov.w	r0, #4096	; 0x1000
     b22:	f8c3 0084 	str.w	r0, [r3, #132]	; 0x84
	((Port *)hw)->Group[submodule_index].WRCONFIG.reg = data;
     b26:	f100 4080 	add.w	r0, r0, #1073741824	; 0x40000000
     b2a:	f500 3000 	add.w	r0, r0, #131072	; 0x20000
     b2e:	f8c3 00a8 	str.w	r0, [r3, #168]	; 0xa8
     b32:	f8c3 10a8 	str.w	r1, [r3, #168]	; 0xa8
	((Port *)hw)->Group[submodule_index].PINCFG[index].reg &= ~PORT_PINCFG_PULLEN;
     b36:	f893 00cc 	ldrb.w	r0, [r3, #204]	; 0xcc
     b3a:	f000 00fb 	and.w	r0, r0, #251	; 0xfb
     b3e:	f883 00cc 	strb.w	r0, [r3, #204]	; 0xcc
	tmp = ((Port *)hw)->Group[submodule_index].PINCFG[index].reg;
     b42:	f893 00cc 	ldrb.w	r0, [r3, #204]	; 0xcc
	tmp &= ~PORT_PINCFG_PMUXEN;
     b46:	f000 00fe 	and.w	r0, r0, #254	; 0xfe
	((Port *)hw)->Group[submodule_index].PINCFG[index].reg = tmp;
     b4a:	f883 00cc 	strb.w	r0, [r3, #204]	; 0xcc
	((Port *)hw)->Group[submodule_index].DIRCLR.reg = mask;
     b4e:	f44f 5000 	mov.w	r0, #8192	; 0x2000
     b52:	f8c3 0084 	str.w	r0, [r3, #132]	; 0x84
	((Port *)hw)->Group[submodule_index].WRCONFIG.reg = data;
     b56:	4850      	ldr	r0, [pc, #320]	; (c98 <system_init+0x3c4>)
     b58:	f8c3 00a8 	str.w	r0, [r3, #168]	; 0xa8
     b5c:	f8c3 10a8 	str.w	r1, [r3, #168]	; 0xa8
	((Port *)hw)->Group[submodule_index].PINCFG[index].reg &= ~PORT_PINCFG_PULLEN;
     b60:	f893 00cd 	ldrb.w	r0, [r3, #205]	; 0xcd
     b64:	f000 00fb 	and.w	r0, r0, #251	; 0xfb
     b68:	f883 00cd 	strb.w	r0, [r3, #205]	; 0xcd
	tmp = ((Port *)hw)->Group[submodule_index].PINCFG[index].reg;
     b6c:	f893 00cd 	ldrb.w	r0, [r3, #205]	; 0xcd
	tmp &= ~PORT_PINCFG_PMUXEN;
     b70:	f000 00fe 	and.w	r0, r0, #254	; 0xfe
	((Port *)hw)->Group[submodule_index].PINCFG[index].reg = tmp;
     b74:	f883 00cd 	strb.w	r0, [r3, #205]	; 0xcd
	((Port *)hw)->Group[submodule_index].DIRCLR.reg = mask;
     b78:	f44f 4080 	mov.w	r0, #16384	; 0x4000
     b7c:	f8c3 0084 	str.w	r0, [r3, #132]	; 0x84
	((Port *)hw)->Group[submodule_index].WRCONFIG.reg = data;
     b80:	4846      	ldr	r0, [pc, #280]	; (c9c <system_init+0x3c8>)
     b82:	f8c3 00a8 	str.w	r0, [r3, #168]	; 0xa8
     b86:	f8c3 10a8 	str.w	r1, [r3, #168]	; 0xa8
	((Port *)hw)->Group[submodule_index].PINCFG[index].reg &= ~PORT_PINCFG_PULLEN;
     b8a:	f893 00ce 	ldrb.w	r0, [r3, #206]	; 0xce
     b8e:	f000 00fb 	and.w	r0, r0, #251	; 0xfb
     b92:	f883 00ce 	strb.w	r0, [r3, #206]	; 0xce
	tmp = ((Port *)hw)->Group[submodule_index].PINCFG[index].reg;
     b96:	f893 00ce 	ldrb.w	r0, [r3, #206]	; 0xce
	tmp &= ~PORT_PINCFG_PMUXEN;
     b9a:	f000 00fe 	and.w	r0, r0, #254	; 0xfe
	((Port *)hw)->Group[submodule_index].PINCFG[index].reg = tmp;
     b9e:	f883 00ce 	strb.w	r0, [r3, #206]	; 0xce
	((Port *)hw)->Group[submodule_index].DIRCLR.reg = mask;
     ba2:	f8c3 8084 	str.w	r8, [r3, #132]	; 0x84
	((Port *)hw)->Group[submodule_index].WRCONFIG.reg = data;
     ba6:	f8c3 c0a8 	str.w	ip, [r3, #168]	; 0xa8
     baa:	f8c3 10a8 	str.w	r1, [r3, #168]	; 0xa8
	((Port *)hw)->Group[submodule_index].PINCFG[index].reg &= ~PORT_PINCFG_PULLEN;
     bae:	f893 10cf 	ldrb.w	r1, [r3, #207]	; 0xcf
     bb2:	f001 01fb 	and.w	r1, r1, #251	; 0xfb
     bb6:	f883 10cf 	strb.w	r1, [r3, #207]	; 0xcf
	tmp = ((Port *)hw)->Group[submodule_index].PINCFG[index].reg;
     bba:	f893 10cf 	ldrb.w	r1, [r3, #207]	; 0xcf
	tmp &= ~PORT_PINCFG_PMUXEN;
     bbe:	f001 01fe 	and.w	r1, r1, #254	; 0xfe
	((Port *)hw)->Group[submodule_index].PINCFG[index].reg = tmp;
     bc2:	f883 10cf 	strb.w	r1, [r3, #207]	; 0xcf
	((Port *)hw)->Group[submodule_index].DIRCLR.reg = mask;
     bc6:	f8c3 e084 	str.w	lr, [r3, #132]	; 0x84
	((Port *)hw)->Group[submodule_index].WRCONFIG.reg = data;
     bca:	f8c3 20a8 	str.w	r2, [r3, #168]	; 0xa8
     bce:	f8c3 70a8 	str.w	r7, [r3, #168]	; 0xa8
	((Port *)hw)->Group[submodule_index].PINCFG[index].reg &= ~PORT_PINCFG_PULLEN;
     bd2:	f893 10d0 	ldrb.w	r1, [r3, #208]	; 0xd0
     bd6:	f001 01fb 	and.w	r1, r1, #251	; 0xfb
     bda:	f883 10d0 	strb.w	r1, [r3, #208]	; 0xd0
	tmp = ((Port *)hw)->Group[submodule_index].PINCFG[index].reg;
     bde:	f893 10d0 	ldrb.w	r1, [r3, #208]	; 0xd0
	tmp &= ~PORT_PINCFG_PMUXEN;
     be2:	f001 01fe 	and.w	r1, r1, #254	; 0xfe
	((Port *)hw)->Group[submodule_index].PINCFG[index].reg = tmp;
     be6:	f883 10d0 	strb.w	r1, [r3, #208]	; 0xd0
	((Port *)hw)->Group[submodule_index].DIRCLR.reg = mask;
     bea:	f8c3 6084 	str.w	r6, [r3, #132]	; 0x84
	((Port *)hw)->Group[submodule_index].WRCONFIG.reg = data;
     bee:	f8c3 20a8 	str.w	r2, [r3, #168]	; 0xa8
     bf2:	f8c3 50a8 	str.w	r5, [r3, #168]	; 0xa8
	((Port *)hw)->Group[submodule_index].PINCFG[index].reg &= ~PORT_PINCFG_PULLEN;
     bf6:	f893 10d1 	ldrb.w	r1, [r3, #209]	; 0xd1
     bfa:	f001 01fb 	and.w	r1, r1, #251	; 0xfb
     bfe:	f883 10d1 	strb.w	r1, [r3, #209]	; 0xd1
	tmp = ((Port *)hw)->Group[submodule_index].PINCFG[index].reg;
     c02:	f893 10d1 	ldrb.w	r1, [r3, #209]	; 0xd1
	tmp &= ~PORT_PINCFG_PMUXEN;
     c06:	f001 01fe 	and.w	r1, r1, #254	; 0xfe
	((Port *)hw)->Group[submodule_index].PINCFG[index].reg = tmp;
     c0a:	f883 10d1 	strb.w	r1, [r3, #209]	; 0xd1
	((Port *)hw)->Group[submodule_index].OUTCLR.reg = mask;
     c0e:	f44f 0180 	mov.w	r1, #4194304	; 0x400000
     c12:	f8c3 1094 	str.w	r1, [r3, #148]	; 0x94
	((Port *)hw)->Group[submodule_index].DIRSET.reg = mask;
     c16:	f8c3 1088 	str.w	r1, [r3, #136]	; 0x88
	((Port *)hw)->Group[submodule_index].WRCONFIG.reg = data;
     c1a:	f8c3 40a8 	str.w	r4, [r3, #168]	; 0xa8
     c1e:	4920      	ldr	r1, [pc, #128]	; (ca0 <system_init+0x3cc>)
     c20:	f8c3 10a8 	str.w	r1, [r3, #168]	; 0xa8
	tmp = ((Port *)hw)->Group[submodule_index].PINCFG[index].reg;
     c24:	f893 10d6 	ldrb.w	r1, [r3, #214]	; 0xd6
	tmp &= ~PORT_PINCFG_PMUXEN;
     c28:	f001 01fe 	and.w	r1, r1, #254	; 0xfe
	((Port *)hw)->Group[submodule_index].PINCFG[index].reg = tmp;
     c2c:	f883 10d6 	strb.w	r1, [r3, #214]	; 0xd6
	((Port *)hw)->Group[submodule_index].DIRCLR.reg = mask;
     c30:	f44f 0100 	mov.w	r1, #8388608	; 0x800000
     c34:	f8c3 1084 	str.w	r1, [r3, #132]	; 0x84
	((Port *)hw)->Group[submodule_index].WRCONFIG.reg = data;
     c38:	f8c3 20a8 	str.w	r2, [r3, #168]	; 0xa8
     c3c:	f102 4200 	add.w	r2, r2, #2147483648	; 0x80000000
     c40:	3280      	adds	r2, #128	; 0x80
     c42:	f8c3 20a8 	str.w	r2, [r3, #168]	; 0xa8
	((Port *)hw)->Group[submodule_index].PINCFG[index].reg &= ~PORT_PINCFG_PULLEN;
     c46:	f893 20d7 	ldrb.w	r2, [r3, #215]	; 0xd7
     c4a:	f002 02fb 	and.w	r2, r2, #251	; 0xfb
     c4e:	f883 20d7 	strb.w	r2, [r3, #215]	; 0xd7
	tmp = ((Port *)hw)->Group[submodule_index].PINCFG[index].reg;
     c52:	f893 20d7 	ldrb.w	r2, [r3, #215]	; 0xd7
	tmp &= ~PORT_PINCFG_PMUXEN;
     c56:	f002 02fe 	and.w	r2, r2, #254	; 0xfe
	((Port *)hw)->Group[submodule_index].PINCFG[index].reg = tmp;
     c5a:	f883 20d7 	strb.w	r2, [r3, #215]	; 0xd7
	                       // <GPIO_PULL_DOWN"> Pull-down
	                       GPIO_PULL_OFF);

	gpio_set_pin_function(NC4, GPIO_PIN_FUNCTION_OFF);

	ADC_0_init();
     c5e:	4b11      	ldr	r3, [pc, #68]	; (ca4 <system_init+0x3d0>)
     c60:	4798      	blx	r3

	EVENT_SYSTEM_0_init();
     c62:	4b11      	ldr	r3, [pc, #68]	; (ca8 <system_init+0x3d4>)
     c64:	4798      	blx	r3
     c66:	e025      	b.n	cb4 <system_init+0x3e0>
     c68:	00001bd1 	.word	0x00001bd1
     c6c:	41008000 	.word	0x41008000
     c70:	40000001 	.word	0x40000001
     c74:	40020080 	.word	0x40020080
     c78:	c0020000 	.word	0xc0020000
     c7c:	40020000 	.word	0x40020000
     c80:	c0020001 	.word	0xc0020001
     c84:	c0020002 	.word	0xc0020002
     c88:	c0020004 	.word	0xc0020004
     c8c:	c0020008 	.word	0xc0020008
     c90:	c0020010 	.word	0xc0020010
     c94:	c0020020 	.word	0xc0020020
     c98:	40022000 	.word	0x40022000
     c9c:	40024000 	.word	0x40024000
     ca0:	c0000040 	.word	0xc0000040
     ca4:	000004c1 	.word	0x000004c1
     ca8:	000004ed 	.word	0x000004ed
     cac:	40028000 	.word	0x40028000
     cb0:	c0000800 	.word	0xc0000800

	FLASH_0_init();
     cb4:	4b09      	ldr	r3, [pc, #36]	; (cdc <system_init+0x408>)
     cb6:	4798      	blx	r3

	TIMER_0_init();
     cb8:	4b09      	ldr	r3, [pc, #36]	; (ce0 <system_init+0x40c>)
     cba:	4798      	blx	r3

	SPI_M_SYNC_SERCOM0_init();
     cbc:	4b09      	ldr	r3, [pc, #36]	; (ce4 <system_init+0x410>)
     cbe:	4798      	blx	r3
	USART_0_init();
     cc0:	4b09      	ldr	r3, [pc, #36]	; (ce8 <system_init+0x414>)
     cc2:	4798      	blx	r3

	I2C_0_init();
     cc4:	4b09      	ldr	r3, [pc, #36]	; (cec <system_init+0x418>)
     cc6:	4798      	blx	r3

	delay_driver_init();
     cc8:	4b09      	ldr	r3, [pc, #36]	; (cf0 <system_init+0x41c>)
     cca:	4798      	blx	r3

	RAND_0_init();
     ccc:	4b09      	ldr	r3, [pc, #36]	; (cf4 <system_init+0x420>)
     cce:	4798      	blx	r3

	USB_DEVICE_INSTANCE_init();
     cd0:	4b09      	ldr	r3, [pc, #36]	; (cf8 <system_init+0x424>)
     cd2:	4798      	blx	r3

	WDT_0_init();
     cd4:	4b09      	ldr	r3, [pc, #36]	; (cfc <system_init+0x428>)
     cd6:	4798      	blx	r3
     cd8:	e8bd 87f0 	ldmia.w	sp!, {r4, r5, r6, r7, r8, r9, sl, pc}
     cdc:	00000519 	.word	0x00000519
     ce0:	00000351 	.word	0x00000351
     ce4:	0000060d 	.word	0x0000060d
     ce8:	000006a1 	.word	0x000006a1
     cec:	0000075d 	.word	0x0000075d
     cf0:	00000785 	.word	0x00000785
     cf4:	000007a9 	.word	0x000007a9
     cf8:	00000875 	.word	0x00000875
     cfc:	000008a1 	.word	0x000008a1

00000d00 <adc_sync_init>:

/**
 * \brief Initialize ADC
 */
int32_t adc_sync_init(struct adc_sync_descriptor *const descr, void *const hw, void *const func)
{
     d00:	b538      	push	{r3, r4, r5, lr}
     d02:	460c      	mov	r4, r1
	ASSERT(descr && hw);
     d04:	4605      	mov	r5, r0
     d06:	b160      	cbz	r0, d22 <adc_sync_init+0x22>
     d08:	b149      	cbz	r1, d1e <adc_sync_init+0x1e>
     d0a:	2001      	movs	r0, #1
     d0c:	2239      	movs	r2, #57	; 0x39
     d0e:	4906      	ldr	r1, [pc, #24]	; (d28 <adc_sync_init+0x28>)
     d10:	4b06      	ldr	r3, [pc, #24]	; (d2c <adc_sync_init+0x2c>)
     d12:	4798      	blx	r3

	return _adc_sync_init(&descr->device, hw);
     d14:	4621      	mov	r1, r4
     d16:	4628      	mov	r0, r5
     d18:	4b05      	ldr	r3, [pc, #20]	; (d30 <adc_sync_init+0x30>)
     d1a:	4798      	blx	r3
}
     d1c:	bd38      	pop	{r3, r4, r5, pc}
	ASSERT(descr && hw);
     d1e:	2000      	movs	r0, #0
     d20:	e7f4      	b.n	d0c <adc_sync_init+0xc>
     d22:	2000      	movs	r0, #0
     d24:	e7f2      	b.n	d0c <adc_sync_init+0xc>
     d26:	bf00      	nop
     d28:	00006d5c 	.word	0x00006d5c
     d2c:	0000182d 	.word	0x0000182d
     d30:	00001b99 	.word	0x00001b99

00000d34 <atomic_enter_critical>:
 */
__STATIC_FORCEINLINE uint32_t __get_PRIMASK(void)
{
  uint32_t result;

  __ASM volatile ("MRS %0, primask" : "=r" (result) :: "memory");
     d34:	f3ef 8310 	mrs	r3, PRIMASK
/**
 * \brief Disable interrupts, enter critical section
 */
void atomic_enter_critical(hal_atomic_t volatile *atomic)
{
	*atomic = __get_PRIMASK();
     d38:	6003      	str	r3, [r0, #0]
  __ASM volatile ("cpsid i" : : : "memory");
     d3a:	b672      	cpsid	i
  \details Ensures the apparent order of the explicit memory operations before
           and after the instruction, without ensuring their completion.
 */
__STATIC_FORCEINLINE void __DMB(void)
{
  __ASM volatile ("dmb 0xF":::"memory");
     d3c:	f3bf 8f5f 	dmb	sy
     d40:	4770      	bx	lr

00000d42 <atomic_leave_critical>:
     d42:	f3bf 8f5f 	dmb	sy
 * \brief Exit atomic section
 */
void atomic_leave_critical(hal_atomic_t volatile *atomic)
{
	__DMB();
	__set_PRIMASK(*atomic);
     d46:	6803      	ldr	r3, [r0, #0]
  __ASM volatile ("MSR primask, %0" : : "r" (priMask) : "memory");
     d48:	f383 8810 	msr	PRIMASK, r3
     d4c:	4770      	bx	lr
	...

00000d50 <delay_init>:

/**
 * \brief Initialize Delay driver
 */
void delay_init(void *const hw)
{
     d50:	b508      	push	{r3, lr}
	_delay_init(hardware = hw);
     d52:	4b02      	ldr	r3, [pc, #8]	; (d5c <delay_init+0xc>)
     d54:	6018      	str	r0, [r3, #0]
     d56:	4b02      	ldr	r3, [pc, #8]	; (d60 <delay_init+0x10>)
     d58:	4798      	blx	r3
     d5a:	bd08      	pop	{r3, pc}
     d5c:	200004f0 	.word	0x200004f0
     d60:	00002c25 	.word	0x00002c25

00000d64 <event_system_init>:

/**
 * \brief Initialize event system.
 */
int32_t event_system_init(void)
{
     d64:	b508      	push	{r3, lr}
	return _event_system_init();
     d66:	4b01      	ldr	r3, [pc, #4]	; (d6c <event_system_init+0x8>)
     d68:	4798      	blx	r3
}
     d6a:	bd08      	pop	{r3, pc}
     d6c:	00001c11 	.word	0x00001c11

00000d70 <flash_ready>:
 * \internal Ready for a new flash command
 *
 * \param[in] device The pointer to flash device structure
 */
static void flash_ready(struct _flash_device *device)
{
     d70:	b508      	push	{r3, lr}
	struct flash_descriptor *const descr = CONTAINER_OF(device, struct flash_descriptor, dev);
	if (descr->callbacks.cb_ready) {
     d72:	6943      	ldr	r3, [r0, #20]
     d74:	b103      	cbz	r3, d78 <flash_ready+0x8>
		descr->callbacks.cb_ready(descr);
     d76:	4798      	blx	r3
     d78:	bd08      	pop	{r3, pc}

00000d7a <flash_error>:
 * \internal Error occurs in flash command
 *
 * \param[in] device The pointer to flash device structure
 */
static void flash_error(struct _flash_device *device)
{
     d7a:	b508      	push	{r3, lr}
	struct flash_descriptor *const descr = CONTAINER_OF(device, struct flash_descriptor, dev);
	if (descr->callbacks.cb_error) {
     d7c:	6983      	ldr	r3, [r0, #24]
     d7e:	b103      	cbz	r3, d82 <flash_error+0x8>
		descr->callbacks.cb_error(descr);
     d80:	4798      	blx	r3
     d82:	bd08      	pop	{r3, pc}

00000d84 <flash_init>:
{
     d84:	b538      	push	{r3, r4, r5, lr}
     d86:	460d      	mov	r5, r1
	ASSERT(flash && hw);
     d88:	4604      	mov	r4, r0
     d8a:	b198      	cbz	r0, db4 <flash_init+0x30>
     d8c:	b181      	cbz	r1, db0 <flash_init+0x2c>
     d8e:	2001      	movs	r0, #1
     d90:	2238      	movs	r2, #56	; 0x38
     d92:	4909      	ldr	r1, [pc, #36]	; (db8 <flash_init+0x34>)
     d94:	4b09      	ldr	r3, [pc, #36]	; (dbc <flash_init+0x38>)
     d96:	4798      	blx	r3
	rc = _flash_init(&flash->dev, hw);
     d98:	4629      	mov	r1, r5
     d9a:	4620      	mov	r0, r4
     d9c:	4b08      	ldr	r3, [pc, #32]	; (dc0 <flash_init+0x3c>)
     d9e:	4798      	blx	r3
	if (rc) {
     da0:	4603      	mov	r3, r0
     da2:	b918      	cbnz	r0, dac <flash_init+0x28>
	flash->dev.flash_cb.ready_cb = flash_ready;
     da4:	4a07      	ldr	r2, [pc, #28]	; (dc4 <flash_init+0x40>)
     da6:	6022      	str	r2, [r4, #0]
	flash->dev.flash_cb.error_cb = flash_error;
     da8:	4a07      	ldr	r2, [pc, #28]	; (dc8 <flash_init+0x44>)
     daa:	6062      	str	r2, [r4, #4]
}
     dac:	4618      	mov	r0, r3
     dae:	bd38      	pop	{r3, r4, r5, pc}
	ASSERT(flash && hw);
     db0:	2000      	movs	r0, #0
     db2:	e7ed      	b.n	d90 <flash_init+0xc>
     db4:	2000      	movs	r0, #0
     db6:	e7eb      	b.n	d90 <flash_init+0xc>
     db8:	00006d7c 	.word	0x00006d7c
     dbc:	0000182d 	.word	0x0000182d
     dc0:	00001d21 	.word	0x00001d21
     dc4:	00000d71 	.word	0x00000d71
     dc8:	00000d7b 	.word	0x00000d7b

00000dcc <i2c_m_sync_write>:

/**
 * \brief Sync version of I2C I/O write
 */
static int32_t i2c_m_sync_write(struct io_descriptor *io, const uint8_t *buf, const uint16_t n)
{
     dcc:	b510      	push	{r4, lr}
     dce:	b084      	sub	sp, #16
	struct i2c_m_sync_desc *i2c = CONTAINER_OF(io, struct i2c_m_sync_desc, io);
	struct _i2c_m_msg       msg;
	int32_t                 ret;

	msg.addr   = i2c->slave_addr;
     dd0:	8903      	ldrh	r3, [r0, #8]
     dd2:	f8ad 3004 	strh.w	r3, [sp, #4]
	msg.len    = n;
     dd6:	4614      	mov	r4, r2
     dd8:	9202      	str	r2, [sp, #8]
	msg.flags  = I2C_M_STOP;
     dda:	f44f 4300 	mov.w	r3, #32768	; 0x8000
     dde:	f8ad 3006 	strh.w	r3, [sp, #6]
	msg.buffer = (uint8_t *)buf;
     de2:	9103      	str	r1, [sp, #12]

	ret = _i2c_m_sync_transfer(&i2c->device, &msg);
     de4:	a901      	add	r1, sp, #4
     de6:	3814      	subs	r0, #20
     de8:	4b03      	ldr	r3, [pc, #12]	; (df8 <i2c_m_sync_write+0x2c>)
     dea:	4798      	blx	r3

	if (ret) {
     dec:	b910      	cbnz	r0, df4 <i2c_m_sync_write+0x28>
		return ret;
	}

	return n;
}
     dee:	4620      	mov	r0, r4
     df0:	b004      	add	sp, #16
     df2:	bd10      	pop	{r4, pc}
		return ret;
     df4:	4604      	mov	r4, r0
     df6:	e7fa      	b.n	dee <i2c_m_sync_write+0x22>
     df8:	00002695 	.word	0x00002695

00000dfc <i2c_m_sync_read>:
{
     dfc:	b510      	push	{r4, lr}
     dfe:	b084      	sub	sp, #16
	msg.addr   = i2c->slave_addr;
     e00:	8903      	ldrh	r3, [r0, #8]
     e02:	f8ad 3004 	strh.w	r3, [sp, #4]
	msg.len    = n;
     e06:	4614      	mov	r4, r2
     e08:	9202      	str	r2, [sp, #8]
	msg.flags  = I2C_M_STOP | I2C_M_RD;
     e0a:	f248 0301 	movw	r3, #32769	; 0x8001
     e0e:	f8ad 3006 	strh.w	r3, [sp, #6]
	msg.buffer = buf;
     e12:	9103      	str	r1, [sp, #12]
	ret = _i2c_m_sync_transfer(&i2c->device, &msg);
     e14:	a901      	add	r1, sp, #4
     e16:	3814      	subs	r0, #20
     e18:	4b03      	ldr	r3, [pc, #12]	; (e28 <i2c_m_sync_read+0x2c>)
     e1a:	4798      	blx	r3
	if (ret) {
     e1c:	b910      	cbnz	r0, e24 <i2c_m_sync_read+0x28>
}
     e1e:	4620      	mov	r0, r4
     e20:	b004      	add	sp, #16
     e22:	bd10      	pop	{r4, pc}
		return ret;
     e24:	4604      	mov	r4, r0
     e26:	e7fa      	b.n	e1e <i2c_m_sync_read+0x22>
     e28:	00002695 	.word	0x00002695

00000e2c <i2c_m_sync_init>:

/**
 * \brief Sync version of i2c initialize
 */
int32_t i2c_m_sync_init(struct i2c_m_sync_desc *i2c, void *hw)
{
     e2c:	b538      	push	{r3, r4, r5, lr}
     e2e:	460d      	mov	r5, r1
	int32_t init_status;
	ASSERT(i2c);
     e30:	4604      	mov	r4, r0
     e32:	225e      	movs	r2, #94	; 0x5e
     e34:	4908      	ldr	r1, [pc, #32]	; (e58 <i2c_m_sync_init+0x2c>)
     e36:	3000      	adds	r0, #0
     e38:	bf18      	it	ne
     e3a:	2001      	movne	r0, #1
     e3c:	4b07      	ldr	r3, [pc, #28]	; (e5c <i2c_m_sync_init+0x30>)
     e3e:	4798      	blx	r3

	init_status = _i2c_m_sync_init(&i2c->device, hw);
     e40:	4629      	mov	r1, r5
     e42:	4620      	mov	r0, r4
     e44:	4b06      	ldr	r3, [pc, #24]	; (e60 <i2c_m_sync_init+0x34>)
     e46:	4798      	blx	r3
	if (init_status) {
     e48:	4603      	mov	r3, r0
     e4a:	b918      	cbnz	r0, e54 <i2c_m_sync_init+0x28>
		return init_status;
	}

	/* Init I/O */
	i2c->io.read  = i2c_m_sync_read;
     e4c:	4a05      	ldr	r2, [pc, #20]	; (e64 <i2c_m_sync_init+0x38>)
     e4e:	61a2      	str	r2, [r4, #24]
	i2c->io.write = i2c_m_sync_write;
     e50:	4a05      	ldr	r2, [pc, #20]	; (e68 <i2c_m_sync_init+0x3c>)
     e52:	6162      	str	r2, [r4, #20]

	return ERR_NONE;
}
     e54:	4618      	mov	r0, r3
     e56:	bd38      	pop	{r3, r4, r5, pc}
     e58:	00006d98 	.word	0x00006d98
     e5c:	0000182d 	.word	0x0000182d
     e60:	00002665 	.word	0x00002665
     e64:	00000dfd 	.word	0x00000dfd
     e68:	00000dcd 	.word	0x00000dcd

00000e6c <rand_sync_init>:
#include "hal_rand_sync.h"

#define HAL_RNG_SYNC_VERSION 0x00000001u

int32_t rand_sync_init(struct rand_sync_desc *const desc, void *const hw)
{
     e6c:	b538      	push	{r3, r4, r5, lr}
     e6e:	460d      	mov	r5, r1
	ASSERT(desc);
     e70:	4604      	mov	r4, r0
     e72:	2229      	movs	r2, #41	; 0x29
     e74:	4905      	ldr	r1, [pc, #20]	; (e8c <rand_sync_init+0x20>)
     e76:	3000      	adds	r0, #0
     e78:	bf18      	it	ne
     e7a:	2001      	movne	r0, #1
     e7c:	4b04      	ldr	r3, [pc, #16]	; (e90 <rand_sync_init+0x24>)
     e7e:	4798      	blx	r3

	return _rand_sync_init(&desc->dev, hw);
     e80:	4629      	mov	r1, r5
     e82:	4620      	mov	r0, r4
     e84:	4b03      	ldr	r3, [pc, #12]	; (e94 <rand_sync_init+0x28>)
     e86:	4798      	blx	r3
}
     e88:	bd38      	pop	{r3, r4, r5, pc}
     e8a:	bf00      	nop
     e8c:	00006dbc 	.word	0x00006dbc
     e90:	0000182d 	.word	0x0000182d
     e94:	00002c31 	.word	0x00002c31

00000e98 <spi_m_sync_init>:
	ASSERT(spi);
	spi->func = (struct _spi_m_sync_hpl_interface *)func;
}

int32_t spi_m_sync_init(struct spi_m_sync_descriptor *spi, void *const hw)
{
     e98:	b538      	push	{r3, r4, r5, lr}
     e9a:	460d      	mov	r5, r1
	int32_t rc = 0;
	ASSERT(spi && hw);
     e9c:	4604      	mov	r4, r0
     e9e:	b1c0      	cbz	r0, ed2 <spi_m_sync_init+0x3a>
     ea0:	b1a9      	cbz	r1, ece <spi_m_sync_init+0x36>
     ea2:	2001      	movs	r0, #1
     ea4:	2240      	movs	r2, #64	; 0x40
     ea6:	490c      	ldr	r1, [pc, #48]	; (ed8 <spi_m_sync_init+0x40>)
     ea8:	4b0c      	ldr	r3, [pc, #48]	; (edc <spi_m_sync_init+0x44>)
     eaa:	4798      	blx	r3
	spi->dev.prvt = (void *)hw;
     eac:	4620      	mov	r0, r4
     eae:	f840 5f04 	str.w	r5, [r0, #4]!
	rc            = _spi_m_sync_init(&spi->dev, hw);
     eb2:	4629      	mov	r1, r5
     eb4:	4b0a      	ldr	r3, [pc, #40]	; (ee0 <spi_m_sync_init+0x48>)
     eb6:	4798      	blx	r3

	if (rc < 0) {
     eb8:	2800      	cmp	r0, #0
     eba:	db07      	blt.n	ecc <spi_m_sync_init+0x34>
		return rc;
	}

	spi->flags    = SPI_DEACTIVATE_NEXT;
     ebc:	f44f 4300 	mov.w	r3, #32768	; 0x8000
     ec0:	82a3      	strh	r3, [r4, #20]
	spi->io.read  = _spi_m_sync_io_read;
     ec2:	4b08      	ldr	r3, [pc, #32]	; (ee4 <spi_m_sync_init+0x4c>)
     ec4:	6123      	str	r3, [r4, #16]
	spi->io.write = _spi_m_sync_io_write;
     ec6:	4b08      	ldr	r3, [pc, #32]	; (ee8 <spi_m_sync_init+0x50>)
     ec8:	60e3      	str	r3, [r4, #12]

	return ERR_NONE;
     eca:	2000      	movs	r0, #0
}
     ecc:	bd38      	pop	{r3, r4, r5, pc}
	ASSERT(spi && hw);
     ece:	2000      	movs	r0, #0
     ed0:	e7e8      	b.n	ea4 <spi_m_sync_init+0xc>
     ed2:	2000      	movs	r0, #0
     ed4:	e7e6      	b.n	ea4 <spi_m_sync_init+0xc>
     ed6:	bf00      	nop
     ed8:	00006ddc 	.word	0x00006ddc
     edc:	0000182d 	.word	0x0000182d
     ee0:	00002995 	.word	0x00002995
     ee4:	00000f6d 	.word	0x00000f6d
     ee8:	00000f31 	.word	0x00000f31

00000eec <spi_m_sync_transfer>:

	return spi_m_sync_transfer(spi, &xfer);
}

int32_t spi_m_sync_transfer(struct spi_m_sync_descriptor *spi, const struct spi_xfer *p_xfer)
{
     eec:	b530      	push	{r4, r5, lr}
     eee:	b085      	sub	sp, #20
     ef0:	460c      	mov	r4, r1
	struct spi_msg msg;

	ASSERT(spi && p_xfer);
     ef2:	4605      	mov	r5, r0
     ef4:	b198      	cbz	r0, f1e <spi_m_sync_transfer+0x32>
     ef6:	b181      	cbz	r1, f1a <spi_m_sync_transfer+0x2e>
     ef8:	2001      	movs	r0, #1
     efa:	22b3      	movs	r2, #179	; 0xb3
     efc:	4909      	ldr	r1, [pc, #36]	; (f24 <spi_m_sync_transfer+0x38>)
     efe:	4b0a      	ldr	r3, [pc, #40]	; (f28 <spi_m_sync_transfer+0x3c>)
     f00:	4798      	blx	r3

	msg.txbuf = p_xfer->txbuf;
     f02:	6823      	ldr	r3, [r4, #0]
     f04:	9301      	str	r3, [sp, #4]
	msg.rxbuf = p_xfer->rxbuf;
     f06:	6863      	ldr	r3, [r4, #4]
     f08:	9302      	str	r3, [sp, #8]
	msg.size  = p_xfer->size;
     f0a:	68a3      	ldr	r3, [r4, #8]
     f0c:	9303      	str	r3, [sp, #12]
	return _spi_m_sync_trans(&spi->dev, &msg);
     f0e:	a901      	add	r1, sp, #4
     f10:	1d28      	adds	r0, r5, #4
     f12:	4b06      	ldr	r3, [pc, #24]	; (f2c <spi_m_sync_transfer+0x40>)
     f14:	4798      	blx	r3
}
     f16:	b005      	add	sp, #20
     f18:	bd30      	pop	{r4, r5, pc}
	ASSERT(spi && p_xfer);
     f1a:	2000      	movs	r0, #0
     f1c:	e7ed      	b.n	efa <spi_m_sync_transfer+0xe>
     f1e:	2000      	movs	r0, #0
     f20:	e7eb      	b.n	efa <spi_m_sync_transfer+0xe>
     f22:	bf00      	nop
     f24:	00006ddc 	.word	0x00006ddc
     f28:	0000182d 	.word	0x0000182d
     f2c:	00002b11 	.word	0x00002b11

00000f30 <_spi_m_sync_io_write>:
{
     f30:	b570      	push	{r4, r5, r6, lr}
     f32:	b084      	sub	sp, #16
     f34:	460e      	mov	r6, r1
     f36:	4615      	mov	r5, r2
	ASSERT(io);
     f38:	4604      	mov	r4, r0
     f3a:	22a3      	movs	r2, #163	; 0xa3
     f3c:	4908      	ldr	r1, [pc, #32]	; (f60 <_spi_m_sync_io_write+0x30>)
     f3e:	3000      	adds	r0, #0
     f40:	bf18      	it	ne
     f42:	2001      	movne	r0, #1
     f44:	4b07      	ldr	r3, [pc, #28]	; (f64 <_spi_m_sync_io_write+0x34>)
     f46:	4798      	blx	r3
	xfer.rxbuf = 0;
     f48:	2300      	movs	r3, #0
     f4a:	9302      	str	r3, [sp, #8]
	xfer.txbuf = (uint8_t *)buf;
     f4c:	9601      	str	r6, [sp, #4]
	xfer.size  = length;
     f4e:	9503      	str	r5, [sp, #12]
	return spi_m_sync_transfer(spi, &xfer);
     f50:	a901      	add	r1, sp, #4
     f52:	f1a4 000c 	sub.w	r0, r4, #12
     f56:	4b04      	ldr	r3, [pc, #16]	; (f68 <_spi_m_sync_io_write+0x38>)
     f58:	4798      	blx	r3
}
     f5a:	b004      	add	sp, #16
     f5c:	bd70      	pop	{r4, r5, r6, pc}
     f5e:	bf00      	nop
     f60:	00006ddc 	.word	0x00006ddc
     f64:	0000182d 	.word	0x0000182d
     f68:	00000eed 	.word	0x00000eed

00000f6c <_spi_m_sync_io_read>:
{
     f6c:	b570      	push	{r4, r5, r6, lr}
     f6e:	b084      	sub	sp, #16
     f70:	460e      	mov	r6, r1
     f72:	4615      	mov	r5, r2
	ASSERT(io);
     f74:	4604      	mov	r4, r0
     f76:	2287      	movs	r2, #135	; 0x87
     f78:	4908      	ldr	r1, [pc, #32]	; (f9c <_spi_m_sync_io_read+0x30>)
     f7a:	3000      	adds	r0, #0
     f7c:	bf18      	it	ne
     f7e:	2001      	movne	r0, #1
     f80:	4b07      	ldr	r3, [pc, #28]	; (fa0 <_spi_m_sync_io_read+0x34>)
     f82:	4798      	blx	r3
	xfer.rxbuf = buf;
     f84:	9602      	str	r6, [sp, #8]
	xfer.txbuf = 0;
     f86:	2300      	movs	r3, #0
     f88:	9301      	str	r3, [sp, #4]
	xfer.size  = length;
     f8a:	9503      	str	r5, [sp, #12]
	return spi_m_sync_transfer(spi, &xfer);
     f8c:	a901      	add	r1, sp, #4
     f8e:	f1a4 000c 	sub.w	r0, r4, #12
     f92:	4b04      	ldr	r3, [pc, #16]	; (fa4 <_spi_m_sync_io_read+0x38>)
     f94:	4798      	blx	r3
}
     f96:	b004      	add	sp, #16
     f98:	bd70      	pop	{r4, r5, r6, pc}
     f9a:	bf00      	nop
     f9c:	00006ddc 	.word	0x00006ddc
     fa0:	0000182d 	.word	0x0000182d
     fa4:	00000eed 	.word	0x00000eed

00000fa8 <timer_add_timer_task>:
 * \param[in] head The pointer to the head of timer task list
 * \param[in] task The pointer to task to add
 * \param[in] time Current timer time
 */
static void timer_add_timer_task(struct list_descriptor *list, struct timer_task *const new_task, const uint32_t time)
{
     fa8:	b5f8      	push	{r3, r4, r5, r6, r7, lr}
 * \return A pointer to the head of the given list or NULL if the list is
 * empty
 */
static inline void *list_get_head(const struct list_descriptor *const list)
{
	return (void *)list->head;
     faa:	6807      	ldr	r7, [r0, #0]
	struct timer_task *it, *prev = NULL, *head = (struct timer_task *)list_get_head(list);

	if (!head) {
     fac:	b117      	cbz	r7, fb4 <timer_add_timer_task+0xc>
     fae:	463c      	mov	r4, r7
     fb0:	2600      	movs	r6, #0
     fb2:	e00b      	b.n	fcc <timer_add_timer_task+0x24>
		list_insert_as_head(list, new_task);
     fb4:	4b0e      	ldr	r3, [pc, #56]	; (ff0 <timer_add_timer_task+0x48>)
     fb6:	4798      	blx	r3
		return;
     fb8:	bdf8      	pop	{r3, r4, r5, r6, r7, pc}
		uint32_t time_left;

		if (it->time_label <= time) {
			time_left = it->interval - (time - it->time_label);
		} else {
			time_left = it->interval - (0xFFFFFFFF - it->time_label) - time;
     fba:	68a5      	ldr	r5, [r4, #8]
     fbc:	442b      	add	r3, r5
     fbe:	1a9b      	subs	r3, r3, r2
     fc0:	3301      	adds	r3, #1
		}
		if (time_left >= new_task->interval)
     fc2:	688d      	ldr	r5, [r1, #8]
     fc4:	42ab      	cmp	r3, r5
     fc6:	d209      	bcs.n	fdc <timer_add_timer_task+0x34>
			break;
		prev = it;
     fc8:	4626      	mov	r6, r4
	for (it = head; it; it = (struct timer_task *)list_get_next_element(it)) {
     fca:	6824      	ldr	r4, [r4, #0]
     fcc:	b134      	cbz	r4, fdc <timer_add_timer_task+0x34>
		if (it->time_label <= time) {
     fce:	6863      	ldr	r3, [r4, #4]
     fd0:	4293      	cmp	r3, r2
     fd2:	d8f2      	bhi.n	fba <timer_add_timer_task+0x12>
			time_left = it->interval - (time - it->time_label);
     fd4:	68a5      	ldr	r5, [r4, #8]
     fd6:	1a9b      	subs	r3, r3, r2
     fd8:	442b      	add	r3, r5
     fda:	e7f2      	b.n	fc2 <timer_add_timer_task+0x1a>
	}

	if (it == head) {
     fdc:	42bc      	cmp	r4, r7
     fde:	d003      	beq.n	fe8 <timer_add_timer_task+0x40>
		list_insert_as_head(list, new_task);
	} else {
		list_insert_after(prev, new_task);
     fe0:	4630      	mov	r0, r6
     fe2:	4b04      	ldr	r3, [pc, #16]	; (ff4 <timer_add_timer_task+0x4c>)
     fe4:	4798      	blx	r3
     fe6:	bdf8      	pop	{r3, r4, r5, r6, r7, pc}
		list_insert_as_head(list, new_task);
     fe8:	4b01      	ldr	r3, [pc, #4]	; (ff0 <timer_add_timer_task+0x48>)
     fea:	4798      	blx	r3
     fec:	bdf8      	pop	{r3, r4, r5, r6, r7, pc}
     fee:	bf00      	nop
     ff0:	00001849 	.word	0x00001849
     ff4:	00001875 	.word	0x00001875

00000ff8 <timer_process_counted>:

/**
 * \internal Process interrupts
 */
static void timer_process_counted(struct _timer_device *device)
{
     ff8:	b5f8      	push	{r3, r4, r5, r6, r7, lr}
     ffa:	6944      	ldr	r4, [r0, #20]
	struct timer_descriptor *timer = CONTAINER_OF(device, struct timer_descriptor, device);
	struct timer_task *      it    = (struct timer_task *)list_get_head(&timer->tasks);
	uint32_t                 time  = ++timer->time;
     ffc:	6906      	ldr	r6, [r0, #16]
     ffe:	3601      	adds	r6, #1
    1000:	6106      	str	r6, [r0, #16]

	if ((timer->flags & TIMER_FLAG_QUEUE_IS_TAKEN) || (timer->flags & TIMER_FLAG_INTERRUPT_TRIGERRED)) {
    1002:	7e03      	ldrb	r3, [r0, #24]
    1004:	f013 0f01 	tst.w	r3, #1
    1008:	d105      	bne.n	1016 <timer_process_counted+0x1e>
    100a:	7e03      	ldrb	r3, [r0, #24]
    100c:	f013 0f02 	tst.w	r3, #2
    1010:	d101      	bne.n	1016 <timer_process_counted+0x1e>
    1012:	4605      	mov	r5, r0
    1014:	e009      	b.n	102a <timer_process_counted+0x32>
		timer->flags |= TIMER_FLAG_INTERRUPT_TRIGERRED;
    1016:	7e03      	ldrb	r3, [r0, #24]
    1018:	f043 0302 	orr.w	r3, r3, #2
    101c:	7603      	strb	r3, [r0, #24]
		return;
    101e:	bdf8      	pop	{r3, r4, r5, r6, r7, pc}
    1020:	696f      	ldr	r7, [r5, #20]
			tmp->time_label = time;
			timer_add_timer_task(&timer->tasks, tmp, time);
		}
		it = (struct timer_task *)list_get_head(&timer->tasks);

		tmp->cb(tmp);
    1022:	68e3      	ldr	r3, [r4, #12]
    1024:	4620      	mov	r0, r4
    1026:	4798      	blx	r3
		it = (struct timer_task *)list_get_head(&timer->tasks);
    1028:	463c      	mov	r4, r7
	while (it && ((time - it->time_label) >= it->interval)) {
    102a:	b19c      	cbz	r4, 1054 <timer_process_counted+0x5c>
    102c:	6863      	ldr	r3, [r4, #4]
    102e:	1af3      	subs	r3, r6, r3
    1030:	68a2      	ldr	r2, [r4, #8]
    1032:	4293      	cmp	r3, r2
    1034:	d30e      	bcc.n	1054 <timer_process_counted+0x5c>
		list_remove_head(&timer->tasks);
    1036:	f105 0714 	add.w	r7, r5, #20
    103a:	4638      	mov	r0, r7
    103c:	4b06      	ldr	r3, [pc, #24]	; (1058 <timer_process_counted+0x60>)
    103e:	4798      	blx	r3
		if (TIMER_TASK_REPEAT == tmp->mode) {
    1040:	7c23      	ldrb	r3, [r4, #16]
    1042:	2b01      	cmp	r3, #1
    1044:	d1ec      	bne.n	1020 <timer_process_counted+0x28>
			tmp->time_label = time;
    1046:	6066      	str	r6, [r4, #4]
			timer_add_timer_task(&timer->tasks, tmp, time);
    1048:	4632      	mov	r2, r6
    104a:	4621      	mov	r1, r4
    104c:	4638      	mov	r0, r7
    104e:	4b03      	ldr	r3, [pc, #12]	; (105c <timer_process_counted+0x64>)
    1050:	4798      	blx	r3
    1052:	e7e5      	b.n	1020 <timer_process_counted+0x28>
    1054:	bdf8      	pop	{r3, r4, r5, r6, r7, pc}
    1056:	bf00      	nop
    1058:	000018bd 	.word	0x000018bd
    105c:	00000fa9 	.word	0x00000fa9

00001060 <timer_init>:
{
    1060:	b538      	push	{r3, r4, r5, lr}
    1062:	460d      	mov	r5, r1
	ASSERT(descr && hw);
    1064:	4604      	mov	r4, r0
    1066:	b180      	cbz	r0, 108a <timer_init+0x2a>
    1068:	b169      	cbz	r1, 1086 <timer_init+0x26>
    106a:	2001      	movs	r0, #1
    106c:	223b      	movs	r2, #59	; 0x3b
    106e:	4908      	ldr	r1, [pc, #32]	; (1090 <timer_init+0x30>)
    1070:	4b08      	ldr	r3, [pc, #32]	; (1094 <timer_init+0x34>)
    1072:	4798      	blx	r3
	_timer_init(&descr->device, hw);
    1074:	4629      	mov	r1, r5
    1076:	4620      	mov	r0, r4
    1078:	4b07      	ldr	r3, [pc, #28]	; (1098 <timer_init+0x38>)
    107a:	4798      	blx	r3
	descr->time                           = 0;
    107c:	2000      	movs	r0, #0
    107e:	6120      	str	r0, [r4, #16]
	descr->device.timer_cb.period_expired = timer_process_counted;
    1080:	4b06      	ldr	r3, [pc, #24]	; (109c <timer_init+0x3c>)
    1082:	6023      	str	r3, [r4, #0]
}
    1084:	bd38      	pop	{r3, r4, r5, pc}
	ASSERT(descr && hw);
    1086:	2000      	movs	r0, #0
    1088:	e7f0      	b.n	106c <timer_init+0xc>
    108a:	2000      	movs	r0, #0
    108c:	e7ee      	b.n	106c <timer_init+0xc>
    108e:	bf00      	nop
    1090:	00006e00 	.word	0x00006e00
    1094:	0000182d 	.word	0x0000182d
    1098:	00001f7d 	.word	0x00001f7d
    109c:	00000ff9 	.word	0x00000ff9

000010a0 <usart_transmission_complete>:
 * \brief Process completion of data sending
 *
 * \param[in] device The pointer to device structure
 */
static void usart_transmission_complete(struct _usart_async_device *device)
{
    10a0:	b508      	push	{r3, lr}
	struct usart_async_descriptor *descr = CONTAINER_OF(device, struct usart_async_descriptor, device);

	descr->stat = 0;
    10a2:	2300      	movs	r3, #0
    10a4:	6283      	str	r3, [r0, #40]	; 0x28
	if (descr->usart_cb.tx_done) {
    10a6:	69c3      	ldr	r3, [r0, #28]
    10a8:	b11b      	cbz	r3, 10b2 <usart_transmission_complete+0x12>
    10aa:	f1a0 0208 	sub.w	r2, r0, #8
		descr->usart_cb.tx_done(descr);
    10ae:	4610      	mov	r0, r2
    10b0:	4798      	blx	r3
    10b2:	bd08      	pop	{r3, pc}

000010b4 <usart_error>:
 * \brief Process error interrupt
 *
 * \param[in] device The pointer to device structure
 */
static void usart_error(struct _usart_async_device *device)
{
    10b4:	b508      	push	{r3, lr}
	struct usart_async_descriptor *descr = CONTAINER_OF(device, struct usart_async_descriptor, device);

	descr->stat = 0;
    10b6:	2300      	movs	r3, #0
    10b8:	6283      	str	r3, [r0, #40]	; 0x28
	if (descr->usart_cb.error) {
    10ba:	6a43      	ldr	r3, [r0, #36]	; 0x24
    10bc:	b11b      	cbz	r3, 10c6 <usart_error+0x12>
    10be:	f1a0 0208 	sub.w	r2, r0, #8
		descr->usart_cb.error(descr);
    10c2:	4610      	mov	r0, r2
    10c4:	4798      	blx	r3
    10c6:	bd08      	pop	{r3, pc}

000010c8 <usart_fill_rx_buffer>:
{
    10c8:	b538      	push	{r3, r4, r5, lr}
    10ca:	4604      	mov	r4, r0
	struct usart_async_descriptor *descr = CONTAINER_OF(device, struct usart_async_descriptor, device);
    10cc:	f1a0 0508 	sub.w	r5, r0, #8
	ringbuffer_put(&descr->rx, data);
    10d0:	302c      	adds	r0, #44	; 0x2c
    10d2:	4b03      	ldr	r3, [pc, #12]	; (10e0 <usart_fill_rx_buffer+0x18>)
    10d4:	4798      	blx	r3
	if (descr->usart_cb.rx_done) {
    10d6:	6a23      	ldr	r3, [r4, #32]
    10d8:	b10b      	cbz	r3, 10de <usart_fill_rx_buffer+0x16>
		descr->usart_cb.rx_done(descr);
    10da:	4628      	mov	r0, r5
    10dc:	4798      	blx	r3
    10de:	bd38      	pop	{r3, r4, r5, pc}
    10e0:	00001959 	.word	0x00001959

000010e4 <usart_async_write>:
{
    10e4:	b570      	push	{r4, r5, r6, lr}
    10e6:	460e      	mov	r6, r1
    10e8:	4615      	mov	r5, r2
	ASSERT(descr && buf && length);
    10ea:	4604      	mov	r4, r0
    10ec:	b1d8      	cbz	r0, 1126 <usart_async_write+0x42>
    10ee:	b1e1      	cbz	r1, 112a <usart_async_write+0x46>
    10f0:	b9ea      	cbnz	r2, 112e <usart_async_write+0x4a>
    10f2:	2000      	movs	r0, #0
    10f4:	f240 123b 	movw	r2, #315	; 0x13b
    10f8:	490f      	ldr	r1, [pc, #60]	; (1138 <usart_async_write+0x54>)
    10fa:	4b10      	ldr	r3, [pc, #64]	; (113c <usart_async_write+0x58>)
    10fc:	4798      	blx	r3
	if (descr->tx_por != descr->tx_buffer_length) {
    10fe:	f8b4 2044 	ldrh.w	r2, [r4, #68]	; 0x44
    1102:	f8b4 304c 	ldrh.w	r3, [r4, #76]	; 0x4c
    1106:	429a      	cmp	r2, r3
    1108:	d113      	bne.n	1132 <usart_async_write+0x4e>
	descr->tx_buffer        = (uint8_t *)buf;
    110a:	64a6      	str	r6, [r4, #72]	; 0x48
	descr->tx_buffer_length = length;
    110c:	f8a4 504c 	strh.w	r5, [r4, #76]	; 0x4c
	descr->tx_por           = 0;
    1110:	2300      	movs	r3, #0
    1112:	f8a4 3044 	strh.w	r3, [r4, #68]	; 0x44
	descr->stat             = USART_ASYNC_STATUS_BUSY;
    1116:	2301      	movs	r3, #1
    1118:	6323      	str	r3, [r4, #48]	; 0x30
	_usart_async_enable_byte_sent_irq(&descr->device);
    111a:	f104 0008 	add.w	r0, r4, #8
    111e:	4b08      	ldr	r3, [pc, #32]	; (1140 <usart_async_write+0x5c>)
    1120:	4798      	blx	r3
	return (int32_t)length;
    1122:	4628      	mov	r0, r5
    1124:	bd70      	pop	{r4, r5, r6, pc}
	ASSERT(descr && buf && length);
    1126:	2000      	movs	r0, #0
    1128:	e7e4      	b.n	10f4 <usart_async_write+0x10>
    112a:	2000      	movs	r0, #0
    112c:	e7e2      	b.n	10f4 <usart_async_write+0x10>
    112e:	2001      	movs	r0, #1
    1130:	e7e0      	b.n	10f4 <usart_async_write+0x10>
		return ERR_NO_RESOURCE;
    1132:	f06f 001b 	mvn.w	r0, #27
}
    1136:	bd70      	pop	{r4, r5, r6, pc}
    1138:	00006e1c 	.word	0x00006e1c
    113c:	0000182d 	.word	0x0000182d
    1140:	00002653 	.word	0x00002653

00001144 <usart_process_byte_sent>:
{
    1144:	b510      	push	{r4, lr}
    1146:	4604      	mov	r4, r0
	if (descr->tx_por != descr->tx_buffer_length) {
    1148:	8f83      	ldrh	r3, [r0, #60]	; 0x3c
    114a:	f8b0 2044 	ldrh.w	r2, [r0, #68]	; 0x44
    114e:	4293      	cmp	r3, r2
    1150:	d009      	beq.n	1166 <usart_process_byte_sent+0x22>
		_usart_async_write_byte(&descr->device, descr->tx_buffer[descr->tx_por++]);
    1152:	6c02      	ldr	r2, [r0, #64]	; 0x40
    1154:	1c59      	adds	r1, r3, #1
    1156:	8781      	strh	r1, [r0, #60]	; 0x3c
    1158:	5cd1      	ldrb	r1, [r2, r3]
    115a:	4b04      	ldr	r3, [pc, #16]	; (116c <usart_process_byte_sent+0x28>)
    115c:	4798      	blx	r3
		_usart_async_enable_byte_sent_irq(&descr->device);
    115e:	4620      	mov	r0, r4
    1160:	4b03      	ldr	r3, [pc, #12]	; (1170 <usart_process_byte_sent+0x2c>)
    1162:	4798      	blx	r3
    1164:	bd10      	pop	{r4, pc}
		_usart_async_enable_tx_done_irq(&descr->device);
    1166:	4b03      	ldr	r3, [pc, #12]	; (1174 <usart_process_byte_sent+0x30>)
    1168:	4798      	blx	r3
    116a:	bd10      	pop	{r4, pc}
    116c:	0000264d 	.word	0x0000264d
    1170:	00002653 	.word	0x00002653
    1174:	0000265b 	.word	0x0000265b

00001178 <usart_async_read>:
{
    1178:	e92d 41f0 	stmdb	sp!, {r4, r5, r6, r7, r8, lr}
    117c:	b082      	sub	sp, #8
    117e:	4688      	mov	r8, r1
    1180:	4616      	mov	r6, r2
	ASSERT(descr && buf && length);
    1182:	4605      	mov	r5, r0
    1184:	b1a0      	cbz	r0, 11b0 <usart_async_read+0x38>
    1186:	b1a9      	cbz	r1, 11b4 <usart_async_read+0x3c>
    1188:	b9b2      	cbnz	r2, 11b8 <usart_async_read+0x40>
    118a:	2000      	movs	r0, #0
    118c:	f44f 72ac 	mov.w	r2, #344	; 0x158
    1190:	4912      	ldr	r1, [pc, #72]	; (11dc <usart_async_read+0x64>)
    1192:	4b13      	ldr	r3, [pc, #76]	; (11e0 <usart_async_read+0x68>)
    1194:	4798      	blx	r3
	CRITICAL_SECTION_ENTER()
    1196:	a801      	add	r0, sp, #4
    1198:	4b12      	ldr	r3, [pc, #72]	; (11e4 <usart_async_read+0x6c>)
    119a:	4798      	blx	r3
	num = ringbuffer_num(&descr->rx);
    119c:	3534      	adds	r5, #52	; 0x34
    119e:	4628      	mov	r0, r5
    11a0:	4b11      	ldr	r3, [pc, #68]	; (11e8 <usart_async_read+0x70>)
    11a2:	4798      	blx	r3
    11a4:	4607      	mov	r7, r0
	CRITICAL_SECTION_LEAVE()
    11a6:	a801      	add	r0, sp, #4
    11a8:	4b10      	ldr	r3, [pc, #64]	; (11ec <usart_async_read+0x74>)
    11aa:	4798      	blx	r3
	uint16_t                       was_read = 0;
    11ac:	2400      	movs	r4, #0
	while ((was_read < num) && (was_read < length)) {
    11ae:	e00b      	b.n	11c8 <usart_async_read+0x50>
	ASSERT(descr && buf && length);
    11b0:	2000      	movs	r0, #0
    11b2:	e7eb      	b.n	118c <usart_async_read+0x14>
    11b4:	2000      	movs	r0, #0
    11b6:	e7e9      	b.n	118c <usart_async_read+0x14>
    11b8:	2001      	movs	r0, #1
    11ba:	e7e7      	b.n	118c <usart_async_read+0x14>
		ringbuffer_get(&descr->rx, &buf[was_read++]);
    11bc:	3401      	adds	r4, #1
    11be:	b2a4      	uxth	r4, r4
    11c0:	4441      	add	r1, r8
    11c2:	4628      	mov	r0, r5
    11c4:	4b0a      	ldr	r3, [pc, #40]	; (11f0 <usart_async_read+0x78>)
    11c6:	4798      	blx	r3
	while ((was_read < num) && (was_read < length)) {
    11c8:	4621      	mov	r1, r4
    11ca:	42a7      	cmp	r7, r4
    11cc:	d901      	bls.n	11d2 <usart_async_read+0x5a>
    11ce:	42b4      	cmp	r4, r6
    11d0:	d3f4      	bcc.n	11bc <usart_async_read+0x44>
}
    11d2:	4620      	mov	r0, r4
    11d4:	b002      	add	sp, #8
    11d6:	e8bd 81f0 	ldmia.w	sp!, {r4, r5, r6, r7, r8, pc}
    11da:	bf00      	nop
    11dc:	00006e1c 	.word	0x00006e1c
    11e0:	0000182d 	.word	0x0000182d
    11e4:	00000d35 	.word	0x00000d35
    11e8:	00001999 	.word	0x00001999
    11ec:	00000d43 	.word	0x00000d43
    11f0:	00001911 	.word	0x00001911

000011f4 <usart_async_init>:
{
    11f4:	b5f8      	push	{r3, r4, r5, r6, r7, lr}
    11f6:	460d      	mov	r5, r1
    11f8:	4616      	mov	r6, r2
    11fa:	461f      	mov	r7, r3
	ASSERT(descr && hw && rx_buffer && rx_buffer_length);
    11fc:	4604      	mov	r4, r0
    11fe:	b318      	cbz	r0, 1248 <usart_async_init+0x54>
    1200:	b321      	cbz	r1, 124c <usart_async_init+0x58>
    1202:	b32a      	cbz	r2, 1250 <usart_async_init+0x5c>
    1204:	bb33      	cbnz	r3, 1254 <usart_async_init+0x60>
    1206:	2000      	movs	r0, #0
    1208:	223a      	movs	r2, #58	; 0x3a
    120a:	4915      	ldr	r1, [pc, #84]	; (1260 <usart_async_init+0x6c>)
    120c:	4b15      	ldr	r3, [pc, #84]	; (1264 <usart_async_init+0x70>)
    120e:	4798      	blx	r3
	if (ERR_NONE != ringbuffer_init(&descr->rx, rx_buffer, rx_buffer_length)) {
    1210:	463a      	mov	r2, r7
    1212:	4631      	mov	r1, r6
    1214:	f104 0034 	add.w	r0, r4, #52	; 0x34
    1218:	4b13      	ldr	r3, [pc, #76]	; (1268 <usart_async_init+0x74>)
    121a:	4798      	blx	r3
    121c:	b9e0      	cbnz	r0, 1258 <usart_async_init+0x64>
	init_status = _usart_async_init(&descr->device, hw);
    121e:	4629      	mov	r1, r5
    1220:	f104 0008 	add.w	r0, r4, #8
    1224:	4b11      	ldr	r3, [pc, #68]	; (126c <usart_async_init+0x78>)
    1226:	4798      	blx	r3
	if (init_status) {
    1228:	4603      	mov	r3, r0
    122a:	b958      	cbnz	r0, 1244 <usart_async_init+0x50>
	descr->io.read  = usart_async_read;
    122c:	4a10      	ldr	r2, [pc, #64]	; (1270 <usart_async_init+0x7c>)
    122e:	6062      	str	r2, [r4, #4]
	descr->io.write = usart_async_write;
    1230:	4a10      	ldr	r2, [pc, #64]	; (1274 <usart_async_init+0x80>)
    1232:	6022      	str	r2, [r4, #0]
	descr->device.usart_cb.tx_byte_sent = usart_process_byte_sent;
    1234:	4a10      	ldr	r2, [pc, #64]	; (1278 <usart_async_init+0x84>)
    1236:	60a2      	str	r2, [r4, #8]
	descr->device.usart_cb.rx_done_cb   = usart_fill_rx_buffer;
    1238:	4a10      	ldr	r2, [pc, #64]	; (127c <usart_async_init+0x88>)
    123a:	60e2      	str	r2, [r4, #12]
	descr->device.usart_cb.tx_done_cb   = usart_transmission_complete;
    123c:	4a10      	ldr	r2, [pc, #64]	; (1280 <usart_async_init+0x8c>)
    123e:	6122      	str	r2, [r4, #16]
	descr->device.usart_cb.error_cb     = usart_error;
    1240:	4a10      	ldr	r2, [pc, #64]	; (1284 <usart_async_init+0x90>)
    1242:	6162      	str	r2, [r4, #20]
}
    1244:	4618      	mov	r0, r3
    1246:	bdf8      	pop	{r3, r4, r5, r6, r7, pc}
	ASSERT(descr && hw && rx_buffer && rx_buffer_length);
    1248:	2000      	movs	r0, #0
    124a:	e7dd      	b.n	1208 <usart_async_init+0x14>
    124c:	2000      	movs	r0, #0
    124e:	e7db      	b.n	1208 <usart_async_init+0x14>
    1250:	2000      	movs	r0, #0
    1252:	e7d9      	b.n	1208 <usart_async_init+0x14>
    1254:	2001      	movs	r0, #1
    1256:	e7d7      	b.n	1208 <usart_async_init+0x14>
		return ERR_INVALID_ARG;
    1258:	f06f 030c 	mvn.w	r3, #12
    125c:	e7f2      	b.n	1244 <usart_async_init+0x50>
    125e:	bf00      	nop
    1260:	00006e1c 	.word	0x00006e1c
    1264:	0000182d 	.word	0x0000182d
    1268:	000018cd 	.word	0x000018cd
    126c:	000025c9 	.word	0x000025c9
    1270:	00001179 	.word	0x00001179
    1274:	000010e5 	.word	0x000010e5
    1278:	00001145 	.word	0x00001145
    127c:	000010c9 	.word	0x000010c9
    1280:	000010a1 	.word	0x000010a1
    1284:	000010b5 	.word	0x000010b5

00001288 <_usb_d_find_ep>:
 * \retval <0 Not found (endpoint is not initialized).
 */
static int8_t _usb_d_find_ep(const uint8_t ep)
{
	int8_t i;
	for (i = 0; i < CONF_USB_D_NUM_EP_SP; i++) {
    1288:	2300      	movs	r3, #0
    128a:	2b03      	cmp	r3, #3
    128c:	dc20      	bgt.n	12d0 <_usb_d_find_ep+0x48>
		if (usb_d_inst.ep[i].xfer.hdr.ep == ep) {
    128e:	4a12      	ldr	r2, [pc, #72]	; (12d8 <_usb_d_find_ep+0x50>)
    1290:	eb02 1243 	add.w	r2, r2, r3, lsl #5
    1294:	7851      	ldrb	r1, [r2, #1]
    1296:	4281      	cmp	r1, r0
    1298:	d01c      	beq.n	12d4 <_usb_d_find_ep+0x4c>
{
    129a:	b410      	push	{r4}
    129c:	e009      	b.n	12b2 <_usb_d_find_ep+0x2a>
	for (i = 0; i < CONF_USB_D_NUM_EP_SP; i++) {
    129e:	3301      	adds	r3, #1
    12a0:	b25b      	sxtb	r3, r3
    12a2:	2b03      	cmp	r3, #3
    12a4:	dc0f      	bgt.n	12c6 <_usb_d_find_ep+0x3e>
		if (usb_d_inst.ep[i].xfer.hdr.ep == ep) {
    12a6:	4a0c      	ldr	r2, [pc, #48]	; (12d8 <_usb_d_find_ep+0x50>)
    12a8:	eb02 1243 	add.w	r2, r2, r3, lsl #5
    12ac:	7851      	ldrb	r1, [r2, #1]
    12ae:	4281      	cmp	r1, r0
    12b0:	d00b      	beq.n	12ca <_usb_d_find_ep+0x42>
			return i;
		}
		if (usb_d_inst.ep[i].xfer.hdr.type == USB_EP_XTYPE_CTRL
    12b2:	015a      	lsls	r2, r3, #5
    12b4:	4c08      	ldr	r4, [pc, #32]	; (12d8 <_usb_d_find_ep+0x50>)
    12b6:	5ca2      	ldrb	r2, [r4, r2]
    12b8:	2a00      	cmp	r2, #0
    12ba:	d1f0      	bne.n	129e <_usb_d_find_ep+0x16>
		    && (ep & USB_EP_N_MASK) == usb_d_inst.ep[i].xfer.hdr.ep) {
    12bc:	f000 020f 	and.w	r2, r0, #15
    12c0:	428a      	cmp	r2, r1
    12c2:	d1ec      	bne.n	129e <_usb_d_find_ep+0x16>
    12c4:	e001      	b.n	12ca <_usb_d_find_ep+0x42>
			return i;
		}
	}
	return -1;
    12c6:	f04f 33ff 	mov.w	r3, #4294967295
}
    12ca:	4618      	mov	r0, r3
    12cc:	bc10      	pop	{r4}
    12ce:	4770      	bx	lr
	return -1;
    12d0:	f04f 33ff 	mov.w	r3, #4294967295
}
    12d4:	4618      	mov	r0, r3
    12d6:	4770      	bx	lr
    12d8:	200004f4 	.word	0x200004f4

000012dc <usb_d_dummy_cb_false>:
{
	(void)unused0;
	(void)unused1;
	(void)unused2;
	return false;
}
    12dc:	2000      	movs	r0, #0
    12de:	4770      	bx	lr

000012e0 <usb_d_cb_trans_more>:
 * \brief Callback invoked when request more data
 * \param[in] ep Endpoint number with transfer direction on bit 8.
 * \param[in] transfered Number of bytes transfered.
 */
static bool usb_d_cb_trans_more(const uint8_t ep, const uint32_t transfered)
{
    12e0:	b538      	push	{r3, r4, r5, lr}
    12e2:	4604      	mov	r4, r0
    12e4:	460d      	mov	r5, r1
	int8_t           ep_index = _usb_d_find_ep(ep);
    12e6:	4b09      	ldr	r3, [pc, #36]	; (130c <usb_d_cb_trans_more+0x2c>)
    12e8:	4798      	blx	r3
	struct usb_d_ep *ept      = &usb_d_inst.ep[ep_index];
	if (ept->xfer.hdr.state == USB_EP_S_X_DATA) {
    12ea:	4b09      	ldr	r3, [pc, #36]	; (1310 <usb_d_cb_trans_more+0x30>)
    12ec:	eb03 1340 	add.w	r3, r3, r0, lsl #5
    12f0:	789b      	ldrb	r3, [r3, #2]
    12f2:	2b03      	cmp	r3, #3
    12f4:	d001      	beq.n	12fa <usb_d_cb_trans_more+0x1a>
		return ept->callbacks.more(ep, transfered);
	}
	return false;
    12f6:	2000      	movs	r0, #0
}
    12f8:	bd38      	pop	{r3, r4, r5, pc}
		return ept->callbacks.more(ep, transfered);
    12fa:	4b05      	ldr	r3, [pc, #20]	; (1310 <usb_d_cb_trans_more+0x30>)
    12fc:	eb03 1040 	add.w	r0, r3, r0, lsl #5
    1300:	6983      	ldr	r3, [r0, #24]
    1302:	4629      	mov	r1, r5
    1304:	4620      	mov	r0, r4
    1306:	4798      	blx	r3
    1308:	bd38      	pop	{r3, r4, r5, pc}
    130a:	bf00      	nop
    130c:	00001289 	.word	0x00001289
    1310:	200004f4 	.word	0x200004f4

00001314 <_usb_d_cb_trans_done>:

/**
 * Callback when USB transactions are finished.
 */
static void _usb_d_cb_trans_done(const uint8_t ep, const int32_t code, const uint32_t transferred)
{
    1314:	e92d 41f0 	stmdb	sp!, {r4, r5, r6, r7, r8, lr}
    1318:	b084      	sub	sp, #16
    131a:	4607      	mov	r7, r0
    131c:	460d      	mov	r5, r1
    131e:	4690      	mov	r8, r2
	int8_t           ep_index = _usb_d_find_ep(ep);
    1320:	4b48      	ldr	r3, [pc, #288]	; (1444 <_usb_d_cb_trans_done+0x130>)
    1322:	4798      	blx	r3
    1324:	4604      	mov	r4, r0
	struct usb_d_ep *ept      = &usb_d_inst.ep[ep_index];
    1326:	4e48      	ldr	r6, [pc, #288]	; (1448 <_usb_d_cb_trans_done+0x134>)
    1328:	eb06 1640 	add.w	r6, r6, r0, lsl #5

	if (code == USB_TRANS_DONE) {
    132c:	2d00      	cmp	r5, #0
    132e:	d14f      	bne.n	13d0 <_usb_d_cb_trans_done+0xbc>
		ept->xfer.hdr.status = USB_XFER_DONE;
    1330:	4a45      	ldr	r2, [pc, #276]	; (1448 <_usb_d_cb_trans_done+0x134>)
    1332:	0143      	lsls	r3, r0, #5
    1334:	2000      	movs	r0, #0
    1336:	70f0      	strb	r0, [r6, #3]
		if (ept->xfer.hdr.type == USB_EP_XTYPE_CTRL) {
    1338:	5cd3      	ldrb	r3, [r2, r3]
    133a:	b17b      	cbz	r3, 135c <_usb_d_cb_trans_done+0x48>
			usb_d_ctrl_trans_done(ept);
			return;
		}
		ept->xfer.hdr.state = USB_EP_S_IDLE;
    133c:	4b42      	ldr	r3, [pc, #264]	; (1448 <_usb_d_cb_trans_done+0x134>)
    133e:	eb03 1344 	add.w	r3, r3, r4, lsl #5
    1342:	2201      	movs	r2, #1
    1344:	709a      	strb	r2, [r3, #2]
	} else {
		ept->xfer.hdr.state  = USB_EP_S_ERROR;
		ept->xfer.hdr.status = USB_XFER_ERROR;
	}

	ept->callbacks.xfer(ep, (enum usb_xfer_code)ept->xfer.hdr.status, (void *)transferred);
    1346:	4b40      	ldr	r3, [pc, #256]	; (1448 <_usb_d_cb_trans_done+0x134>)
    1348:	eb03 1444 	add.w	r4, r3, r4, lsl #5
    134c:	69e3      	ldr	r3, [r4, #28]
    134e:	4642      	mov	r2, r8
    1350:	78e1      	ldrb	r1, [r4, #3]
    1352:	4638      	mov	r0, r7
    1354:	4798      	blx	r3
}
    1356:	b004      	add	sp, #16
    1358:	e8bd 81f0 	ldmia.w	sp!, {r4, r5, r6, r7, r8, pc}
	uint8_t state   = ept->xfer.hdr.state;
    135c:	78b3      	ldrb	r3, [r6, #2]
    135e:	f996 400c 	ldrsb.w	r4, [r6, #12]
	if (state == USB_EP_S_X_DATA) {
    1362:	2b03      	cmp	r3, #3
    1364:	d008      	beq.n	1378 <_usb_d_cb_trans_done+0x64>
		ept->callbacks.xfer(ept->xfer.hdr.ep, USB_XFER_DONE, ept->xfer.req);
    1366:	69f3      	ldr	r3, [r6, #28]
    1368:	f106 020c 	add.w	r2, r6, #12
    136c:	2100      	movs	r1, #0
    136e:	7870      	ldrb	r0, [r6, #1]
    1370:	4798      	blx	r3
		ept->xfer.hdr.state = USB_EP_S_X_SETUP;
    1372:	2302      	movs	r3, #2
    1374:	70b3      	strb	r3, [r6, #2]
    1376:	e7ee      	b.n	1356 <_usb_d_cb_trans_done+0x42>
		bool err = ept->callbacks.xfer(ept->xfer.hdr.ep, USB_XFER_DATA, ept->xfer.req);
    1378:	69f3      	ldr	r3, [r6, #28]
    137a:	f106 020c 	add.w	r2, r6, #12
    137e:	2101      	movs	r1, #1
    1380:	7870      	ldrb	r0, [r6, #1]
    1382:	4798      	blx	r3
		if (err) {
    1384:	b170      	cbz	r0, 13a4 <_usb_d_cb_trans_done+0x90>
			ept->xfer.hdr.state  = USB_EP_S_HALTED;
    1386:	2305      	movs	r3, #5
    1388:	70b3      	strb	r3, [r6, #2]
			ept->xfer.hdr.status = USB_XFER_HALT;
    138a:	2302      	movs	r3, #2
    138c:	70f3      	strb	r3, [r6, #3]
			_usb_d_dev_ep_stall(req_dir ? ept->xfer.hdr.ep : (ept->xfer.hdr.ep | USB_EP_DIR), USB_EP_STALL_SET);
    138e:	2c00      	cmp	r4, #0
    1390:	db06      	blt.n	13a0 <_usb_d_cb_trans_done+0x8c>
    1392:	7870      	ldrb	r0, [r6, #1]
    1394:	f040 0080 	orr.w	r0, r0, #128	; 0x80
    1398:	2101      	movs	r1, #1
    139a:	4b2c      	ldr	r3, [pc, #176]	; (144c <_usb_d_cb_trans_done+0x138>)
    139c:	4798      	blx	r3
    139e:	e7da      	b.n	1356 <_usb_d_cb_trans_done+0x42>
    13a0:	7870      	ldrb	r0, [r6, #1]
    13a2:	e7f9      	b.n	1398 <_usb_d_cb_trans_done+0x84>
			ept->xfer.hdr.state = USB_EP_S_X_STATUS;
    13a4:	2304      	movs	r3, #4
    13a6:	70b3      	strb	r3, [r6, #2]
			_usb_d_trans(ept->xfer.hdr.ep, !req_dir, NULL, 0, 1);
    13a8:	7873      	ldrb	r3, [r6, #1]
	struct usb_d_transfer trans
    13aa:	2200      	movs	r2, #0
    13ac:	9201      	str	r2, [sp, #4]
    13ae:	9202      	str	r2, [sp, #8]
    13b0:	4294      	cmp	r4, r2
    13b2:	db0a      	blt.n	13ca <_usb_d_cb_trans_done+0xb6>
    13b4:	f043 0380 	orr.w	r3, r3, #128	; 0x80
    13b8:	f88d 300c 	strb.w	r3, [sp, #12]
    13bc:	2301      	movs	r3, #1
    13be:	f88d 300d 	strb.w	r3, [sp, #13]
	return _usb_d_dev_ep_trans(&trans);
    13c2:	a801      	add	r0, sp, #4
    13c4:	4b22      	ldr	r3, [pc, #136]	; (1450 <_usb_d_cb_trans_done+0x13c>)
    13c6:	4798      	blx	r3
    13c8:	e7c5      	b.n	1356 <_usb_d_cb_trans_done+0x42>
	struct usb_d_transfer trans
    13ca:	f003 030f 	and.w	r3, r3, #15
    13ce:	e7f3      	b.n	13b8 <_usb_d_cb_trans_done+0xa4>
	} else if (code == USB_TRANS_STALL) {
    13d0:	2d01      	cmp	r5, #1
    13d2:	d00a      	beq.n	13ea <_usb_d_cb_trans_done+0xd6>
	} else if (code == USB_TRANS_ABORT) {
    13d4:	2d02      	cmp	r5, #2
    13d6:	d01c      	beq.n	1412 <_usb_d_cb_trans_done+0xfe>
	} else if (code == USB_TRANS_RESET) {
    13d8:	2d03      	cmp	r5, #3
    13da:	d02a      	beq.n	1432 <_usb_d_cb_trans_done+0x11e>
		ept->xfer.hdr.state  = USB_EP_S_ERROR;
    13dc:	4b1a      	ldr	r3, [pc, #104]	; (1448 <_usb_d_cb_trans_done+0x134>)
    13de:	eb03 1340 	add.w	r3, r3, r0, lsl #5
    13e2:	2206      	movs	r2, #6
    13e4:	709a      	strb	r2, [r3, #2]
		ept->xfer.hdr.status = USB_XFER_ERROR;
    13e6:	70da      	strb	r2, [r3, #3]
    13e8:	e7ad      	b.n	1346 <_usb_d_cb_trans_done+0x32>
		ept->xfer.hdr.status = USB_XFER_HALT;
    13ea:	4a17      	ldr	r2, [pc, #92]	; (1448 <_usb_d_cb_trans_done+0x134>)
    13ec:	0143      	lsls	r3, r0, #5
    13ee:	18d1      	adds	r1, r2, r3
    13f0:	2002      	movs	r0, #2
    13f2:	70c8      	strb	r0, [r1, #3]
		if (ept->xfer.hdr.type == USB_EP_XTYPE_CTRL) {
    13f4:	5cd3      	ldrb	r3, [r2, r3]
    13f6:	b12b      	cbz	r3, 1404 <_usb_d_cb_trans_done+0xf0>
			ept->xfer.hdr.state = USB_EP_S_HALTED;
    13f8:	4b13      	ldr	r3, [pc, #76]	; (1448 <_usb_d_cb_trans_done+0x134>)
    13fa:	eb03 1344 	add.w	r3, r3, r4, lsl #5
    13fe:	2205      	movs	r2, #5
    1400:	709a      	strb	r2, [r3, #2]
    1402:	e7a0      	b.n	1346 <_usb_d_cb_trans_done+0x32>
			ept->xfer.hdr.state = USB_EP_S_X_SETUP;
    1404:	460b      	mov	r3, r1
    1406:	7098      	strb	r0, [r3, #2]
			_usb_d_dev_ep_stall(ep, USB_EP_STALL_CLR);
    1408:	2100      	movs	r1, #0
    140a:	4638      	mov	r0, r7
    140c:	4b0f      	ldr	r3, [pc, #60]	; (144c <_usb_d_cb_trans_done+0x138>)
    140e:	4798      	blx	r3
    1410:	e799      	b.n	1346 <_usb_d_cb_trans_done+0x32>
		ept->xfer.hdr.status = USB_XFER_ABORT;
    1412:	4a0d      	ldr	r2, [pc, #52]	; (1448 <_usb_d_cb_trans_done+0x134>)
    1414:	0143      	lsls	r3, r0, #5
    1416:	18d1      	adds	r1, r2, r3
    1418:	2004      	movs	r0, #4
    141a:	70c8      	strb	r0, [r1, #3]
		if (ept->xfer.hdr.type == USB_EP_XTYPE_CTRL) {
    141c:	5cd3      	ldrb	r3, [r2, r3]
    141e:	b12b      	cbz	r3, 142c <_usb_d_cb_trans_done+0x118>
		ept->xfer.hdr.state = USB_EP_S_IDLE;
    1420:	4b09      	ldr	r3, [pc, #36]	; (1448 <_usb_d_cb_trans_done+0x134>)
    1422:	eb03 1344 	add.w	r3, r3, r4, lsl #5
    1426:	2201      	movs	r2, #1
    1428:	709a      	strb	r2, [r3, #2]
    142a:	e78c      	b.n	1346 <_usb_d_cb_trans_done+0x32>
			ept->xfer.hdr.state = USB_EP_S_X_SETUP;
    142c:	2302      	movs	r3, #2
    142e:	708b      	strb	r3, [r1, #2]
			return;
    1430:	e791      	b.n	1356 <_usb_d_cb_trans_done+0x42>
		ept->xfer.hdr.state  = USB_EP_S_DISABLED;
    1432:	4b05      	ldr	r3, [pc, #20]	; (1448 <_usb_d_cb_trans_done+0x134>)
    1434:	eb03 1340 	add.w	r3, r3, r0, lsl #5
    1438:	2200      	movs	r2, #0
    143a:	709a      	strb	r2, [r3, #2]
		ept->xfer.hdr.status = USB_XFER_RESET;
    143c:	2205      	movs	r2, #5
    143e:	70da      	strb	r2, [r3, #3]
    1440:	e781      	b.n	1346 <_usb_d_cb_trans_done+0x32>
    1442:	bf00      	nop
    1444:	00001289 	.word	0x00001289
    1448:	200004f4 	.word	0x200004f4
    144c:	0000375d 	.word	0x0000375d
    1450:	00003911 	.word	0x00003911

00001454 <usb_d_cb_trans_setup>:
{
    1454:	e92d 41f0 	stmdb	sp!, {r4, r5, r6, r7, r8, lr}
    1458:	4605      	mov	r5, r0
	int8_t           ep_index = _usb_d_find_ep(ep);
    145a:	4b1d      	ldr	r3, [pc, #116]	; (14d0 <usb_d_cb_trans_setup+0x7c>)
    145c:	4798      	blx	r3
    145e:	4606      	mov	r6, r0
	uint8_t *        req      = ept->xfer.req;
    1460:	0144      	lsls	r4, r0, #5
    1462:	f104 0308 	add.w	r3, r4, #8
    1466:	4c1b      	ldr	r4, [pc, #108]	; (14d4 <usb_d_cb_trans_setup+0x80>)
    1468:	441c      	add	r4, r3
    146a:	3404      	adds	r4, #4
	uint8_t n = _usb_d_dev_ep_read_req(ep, req);
    146c:	4621      	mov	r1, r4
    146e:	4628      	mov	r0, r5
    1470:	4b19      	ldr	r3, [pc, #100]	; (14d8 <usb_d_cb_trans_setup+0x84>)
    1472:	4798      	blx	r3
    1474:	b2c0      	uxtb	r0, r0
	if (n != 8) {
    1476:	2808      	cmp	r0, #8
    1478:	d009      	beq.n	148e <usb_d_cb_trans_setup+0x3a>
		_usb_d_dev_ep_stall(ep, USB_EP_STALL_SET);
    147a:	2101      	movs	r1, #1
    147c:	4628      	mov	r0, r5
    147e:	4c17      	ldr	r4, [pc, #92]	; (14dc <usb_d_cb_trans_setup+0x88>)
    1480:	47a0      	blx	r4
		_usb_d_dev_ep_stall(ep | USB_EP_DIR, USB_EP_STALL_SET);
    1482:	2101      	movs	r1, #1
    1484:	f045 0080 	orr.w	r0, r5, #128	; 0x80
    1488:	47a0      	blx	r4
		return;
    148a:	e8bd 81f0 	ldmia.w	sp!, {r4, r5, r6, r7, r8, pc}
	_usb_d_dev_ep_stall(ep, USB_EP_STALL_CLR);
    148e:	2100      	movs	r1, #0
    1490:	4628      	mov	r0, r5
    1492:	4f12      	ldr	r7, [pc, #72]	; (14dc <usb_d_cb_trans_setup+0x88>)
    1494:	47b8      	blx	r7
	_usb_d_dev_ep_stall(ep | USB_EP_DIR, USB_EP_STALL_CLR);
    1496:	f045 0880 	orr.w	r8, r5, #128	; 0x80
    149a:	2100      	movs	r1, #0
    149c:	4640      	mov	r0, r8
    149e:	47b8      	blx	r7
	ept->xfer.hdr.state = USB_EP_S_IDLE;
    14a0:	4b0c      	ldr	r3, [pc, #48]	; (14d4 <usb_d_cb_trans_setup+0x80>)
    14a2:	eb03 1346 	add.w	r3, r3, r6, lsl #5
    14a6:	2201      	movs	r2, #1
    14a8:	709a      	strb	r2, [r3, #2]
	if (!ept->callbacks.req(ep, req)) {
    14aa:	695b      	ldr	r3, [r3, #20]
    14ac:	4621      	mov	r1, r4
    14ae:	4628      	mov	r0, r5
    14b0:	4798      	blx	r3
    14b2:	b108      	cbz	r0, 14b8 <usb_d_cb_trans_setup+0x64>
    14b4:	e8bd 81f0 	ldmia.w	sp!, {r4, r5, r6, r7, r8, pc}
		ept->xfer.hdr.state = USB_EP_S_HALTED;
    14b8:	4b06      	ldr	r3, [pc, #24]	; (14d4 <usb_d_cb_trans_setup+0x80>)
    14ba:	eb03 1646 	add.w	r6, r3, r6, lsl #5
    14be:	2305      	movs	r3, #5
    14c0:	70b3      	strb	r3, [r6, #2]
		_usb_d_dev_ep_stall(ep, USB_EP_STALL_SET);
    14c2:	2101      	movs	r1, #1
    14c4:	4628      	mov	r0, r5
    14c6:	47b8      	blx	r7
		_usb_d_dev_ep_stall(ep | USB_EP_DIR, USB_EP_STALL_SET);
    14c8:	2101      	movs	r1, #1
    14ca:	4640      	mov	r0, r8
    14cc:	47b8      	blx	r7
    14ce:	e7f1      	b.n	14b4 <usb_d_cb_trans_setup+0x60>
    14d0:	00001289 	.word	0x00001289
    14d4:	200004f4 	.word	0x200004f4
    14d8:	0000389d 	.word	0x0000389d
    14dc:	0000375d 	.word	0x0000375d

000014e0 <usb_d_init>:

int32_t usb_d_init(void)
{
    14e0:	b510      	push	{r4, lr}
	int32_t rc = _usb_d_dev_init();
    14e2:	4b12      	ldr	r3, [pc, #72]	; (152c <usb_d_init+0x4c>)
    14e4:	4798      	blx	r3
	uint8_t i;
	if (rc < 0) {
    14e6:	2800      	cmp	r0, #0
    14e8:	db1e      	blt.n	1528 <usb_d_init+0x48>
		return rc;
	}
	memset(usb_d_inst.ep, 0x00, sizeof(struct usb_d_ep) * CONF_USB_D_NUM_EP_SP);
    14ea:	2280      	movs	r2, #128	; 0x80
    14ec:	2100      	movs	r1, #0
    14ee:	4810      	ldr	r0, [pc, #64]	; (1530 <usb_d_init+0x50>)
    14f0:	4b10      	ldr	r3, [pc, #64]	; (1534 <usb_d_init+0x54>)
    14f2:	4798      	blx	r3
	for (i = 0; i < CONF_USB_D_NUM_EP_SP; i++) {
    14f4:	2200      	movs	r2, #0
    14f6:	e00a      	b.n	150e <usb_d_init+0x2e>
		usb_d_inst.ep[i].xfer.hdr.ep    = 0xFF;
    14f8:	4b0d      	ldr	r3, [pc, #52]	; (1530 <usb_d_init+0x50>)
    14fa:	eb03 1342 	add.w	r3, r3, r2, lsl #5
    14fe:	21ff      	movs	r1, #255	; 0xff
    1500:	7059      	strb	r1, [r3, #1]
		usb_d_inst.ep[i].callbacks.req  = (usb_d_ep_cb_setup_t)usb_d_dummy_cb_false;
    1502:	490d      	ldr	r1, [pc, #52]	; (1538 <usb_d_init+0x58>)
    1504:	6159      	str	r1, [r3, #20]
		usb_d_inst.ep[i].callbacks.more = (usb_d_ep_cb_more_t)usb_d_dummy_cb_false;
    1506:	6199      	str	r1, [r3, #24]
		usb_d_inst.ep[i].callbacks.xfer = (usb_d_ep_cb_xfer_t)usb_d_dummy_cb_false;
    1508:	61d9      	str	r1, [r3, #28]
	for (i = 0; i < CONF_USB_D_NUM_EP_SP; i++) {
    150a:	3201      	adds	r2, #1
    150c:	b2d2      	uxtb	r2, r2
    150e:	2a03      	cmp	r2, #3
    1510:	d9f2      	bls.n	14f8 <usb_d_init+0x18>
	}
	/* Handles device driver endpoint callbacks to build transfer. */
	_usb_d_dev_register_ep_callback(USB_D_DEV_EP_CB_SETUP, (FUNC_PTR)usb_d_cb_trans_setup);
    1512:	490a      	ldr	r1, [pc, #40]	; (153c <usb_d_init+0x5c>)
    1514:	2000      	movs	r0, #0
    1516:	4c0a      	ldr	r4, [pc, #40]	; (1540 <usb_d_init+0x60>)
    1518:	47a0      	blx	r4
	_usb_d_dev_register_ep_callback(USB_D_DEV_EP_CB_MORE, (FUNC_PTR)usb_d_cb_trans_more);
    151a:	490a      	ldr	r1, [pc, #40]	; (1544 <usb_d_init+0x64>)
    151c:	2001      	movs	r0, #1
    151e:	47a0      	blx	r4
	_usb_d_dev_register_ep_callback(USB_D_DEV_EP_CB_DONE, (FUNC_PTR)_usb_d_cb_trans_done);
    1520:	4909      	ldr	r1, [pc, #36]	; (1548 <usb_d_init+0x68>)
    1522:	2002      	movs	r0, #2
    1524:	47a0      	blx	r4
	return ERR_NONE;
    1526:	2000      	movs	r0, #0
}
    1528:	bd10      	pop	{r4, pc}
    152a:	bf00      	nop
    152c:	00003145 	.word	0x00003145
    1530:	200004f4 	.word	0x200004f4
    1534:	00006aa1 	.word	0x00006aa1
    1538:	000012dd 	.word	0x000012dd
    153c:	00001455 	.word	0x00001455
    1540:	00003ad9 	.word	0x00003ad9
    1544:	000012e1 	.word	0x000012e1
    1548:	00001315 	.word	0x00001315

0000154c <usb_d_register_callback>:
{
	_usb_d_dev_deinit();
}

void usb_d_register_callback(const enum usb_d_cb_type type, const FUNC_PTR func)
{
    154c:	b508      	push	{r3, lr}
	/* Directly uses device driver callback. */
	_usb_d_dev_register_callback(type, func);
    154e:	4b01      	ldr	r3, [pc, #4]	; (1554 <usb_d_register_callback+0x8>)
    1550:	4798      	blx	r3
    1552:	bd08      	pop	{r3, pc}
    1554:	00003ab5 	.word	0x00003ab5

00001558 <usb_d_enable>:
}

int32_t usb_d_enable(void)
{
    1558:	b508      	push	{r3, lr}
	return _usb_d_dev_enable();
    155a:	4b01      	ldr	r3, [pc, #4]	; (1560 <usb_d_enable+0x8>)
    155c:	4798      	blx	r3
}
    155e:	bd08      	pop	{r3, pc}
    1560:	00003211 	.word	0x00003211

00001564 <usb_d_attach>:
{
	_usb_d_dev_disable();
}

void usb_d_attach(void)
{
    1564:	b508      	push	{r3, lr}
	_usb_d_dev_attach();
    1566:	4b01      	ldr	r3, [pc, #4]	; (156c <usb_d_attach+0x8>)
    1568:	4798      	blx	r3
    156a:	bd08      	pop	{r3, pc}
    156c:	00003281 	.word	0x00003281

00001570 <usb_d_set_address>:
{
	return _usb_d_dev_get_uframe_n();
}

void usb_d_set_address(const uint8_t addr)
{
    1570:	b508      	push	{r3, lr}
	_usb_d_dev_set_address(addr);
    1572:	4b01      	ldr	r3, [pc, #4]	; (1578 <usb_d_set_address+0x8>)
    1574:	4798      	blx	r3
    1576:	bd08      	pop	{r3, pc}
    1578:	00003293 	.word	0x00003293

0000157c <usb_d_ep_init>:
{
	return usb_d_ep_init(0, USB_EP_XTYPE_CTRL, max_pkt_size);
}

int32_t usb_d_ep_init(const uint8_t ep, const uint8_t attr, const uint16_t max_pkt_size)
{
    157c:	b5f8      	push	{r3, r4, r5, r6, r7, lr}
    157e:	4606      	mov	r6, r0
    1580:	460c      	mov	r4, r1
    1582:	4617      	mov	r7, r2
	int32_t          rc;
	int8_t           ep_index = _usb_d_find_ep(ep);
    1584:	4b0f      	ldr	r3, [pc, #60]	; (15c4 <usb_d_ep_init+0x48>)
    1586:	4798      	blx	r3
	struct usb_d_ep *ept      = &usb_d_inst.ep[ep_index];
	if (ep_index >= 0) {
    1588:	2800      	cmp	r0, #0
    158a:	da14      	bge.n	15b6 <usb_d_ep_init+0x3a>
		return -USB_ERR_REDO;
	} else {
		ep_index = _usb_d_find_ep(0xFF);
    158c:	20ff      	movs	r0, #255	; 0xff
    158e:	4b0d      	ldr	r3, [pc, #52]	; (15c4 <usb_d_ep_init+0x48>)
    1590:	4798      	blx	r3
		if (ep_index < 0) {
    1592:	1e05      	subs	r5, r0, #0
    1594:	db12      	blt.n	15bc <usb_d_ep_init+0x40>
			return -USB_ERR_ALLOC_FAIL;
		}
		ept = &usb_d_inst.ep[ep_index];
	}
	rc = _usb_d_dev_ep_init(ep, attr, max_pkt_size);
    1596:	463a      	mov	r2, r7
    1598:	4621      	mov	r1, r4
    159a:	4630      	mov	r0, r6
    159c:	4b0a      	ldr	r3, [pc, #40]	; (15c8 <usb_d_ep_init+0x4c>)
    159e:	4798      	blx	r3
	if (rc < 0) {
    15a0:	2800      	cmp	r0, #0
    15a2:	db0d      	blt.n	15c0 <usb_d_ep_init+0x44>
		return rc;
	}
	ept->xfer.hdr.ep   = ep;
    15a4:	4b09      	ldr	r3, [pc, #36]	; (15cc <usb_d_ep_init+0x50>)
    15a6:	0168      	lsls	r0, r5, #5
    15a8:	181a      	adds	r2, r3, r0
    15aa:	7056      	strb	r6, [r2, #1]
	ept->xfer.hdr.type = attr & USB_EP_XTYPE_MASK;
    15ac:	f004 0403 	and.w	r4, r4, #3
    15b0:	541c      	strb	r4, [r3, r0]
	return ERR_NONE;
    15b2:	2000      	movs	r0, #0
    15b4:	bdf8      	pop	{r3, r4, r5, r6, r7, pc}
		return -USB_ERR_REDO;
    15b6:	f06f 0013 	mvn.w	r0, #19
    15ba:	bdf8      	pop	{r3, r4, r5, r6, r7, pc}
			return -USB_ERR_ALLOC_FAIL;
    15bc:	f06f 0014 	mvn.w	r0, #20
}
    15c0:	bdf8      	pop	{r3, r4, r5, r6, r7, pc}
    15c2:	bf00      	nop
    15c4:	00001289 	.word	0x00001289
    15c8:	000032a1 	.word	0x000032a1
    15cc:	200004f4 	.word	0x200004f4

000015d0 <usb_d_ep0_init>:
{
    15d0:	b508      	push	{r3, lr}
	return usb_d_ep_init(0, USB_EP_XTYPE_CTRL, max_pkt_size);
    15d2:	4602      	mov	r2, r0
    15d4:	2100      	movs	r1, #0
    15d6:	4608      	mov	r0, r1
    15d8:	4b01      	ldr	r3, [pc, #4]	; (15e0 <usb_d_ep0_init+0x10>)
    15da:	4798      	blx	r3
}
    15dc:	bd08      	pop	{r3, pc}
    15de:	bf00      	nop
    15e0:	0000157d 	.word	0x0000157d

000015e4 <usb_d_ep_deinit>:

void usb_d_ep_deinit(const uint8_t ep)
{
    15e4:	b538      	push	{r3, r4, r5, lr}
    15e6:	4605      	mov	r5, r0
	int8_t           ep_index = _usb_d_find_ep(ep);
    15e8:	4b06      	ldr	r3, [pc, #24]	; (1604 <usb_d_ep_deinit+0x20>)
    15ea:	4798      	blx	r3
	struct usb_d_ep *ept      = &usb_d_inst.ep[ep_index];
	if (ep_index < 0) {
    15ec:	1e04      	subs	r4, r0, #0
    15ee:	db07      	blt.n	1600 <usb_d_ep_deinit+0x1c>
		return;
	}
	_usb_d_dev_ep_deinit(ep);
    15f0:	4628      	mov	r0, r5
    15f2:	4b05      	ldr	r3, [pc, #20]	; (1608 <usb_d_ep_deinit+0x24>)
    15f4:	4798      	blx	r3
	ept->xfer.hdr.ep = 0xFF;
    15f6:	4805      	ldr	r0, [pc, #20]	; (160c <usb_d_ep_deinit+0x28>)
    15f8:	eb00 1044 	add.w	r0, r0, r4, lsl #5
    15fc:	23ff      	movs	r3, #255	; 0xff
    15fe:	7043      	strb	r3, [r0, #1]
    1600:	bd38      	pop	{r3, r4, r5, pc}
    1602:	bf00      	nop
    1604:	00001289 	.word	0x00001289
    1608:	000033c1 	.word	0x000033c1
    160c:	200004f4 	.word	0x200004f4

00001610 <usb_d_ep_enable>:
}

int32_t usb_d_ep_enable(const uint8_t ep)
{
    1610:	b538      	push	{r3, r4, r5, lr}
    1612:	4605      	mov	r5, r0
	int8_t           ep_index = _usb_d_find_ep(ep);
    1614:	4b0e      	ldr	r3, [pc, #56]	; (1650 <usb_d_ep_enable+0x40>)
    1616:	4798      	blx	r3
	struct usb_d_ep *ept      = &usb_d_inst.ep[ep_index];
	int32_t          rc;
	if (ep_index < 0) {
    1618:	1e04      	subs	r4, r0, #0
    161a:	db16      	blt.n	164a <usb_d_ep_enable+0x3a>
		return -USB_ERR_PARAM;
	}
	ept->xfer.hdr.state = (ept->xfer.hdr.type == USB_EP_XTYPE_CTRL) ? USB_EP_S_X_SETUP : USB_EP_S_IDLE;
    161c:	0163      	lsls	r3, r4, #5
    161e:	4a0d      	ldr	r2, [pc, #52]	; (1654 <usb_d_ep_enable+0x44>)
    1620:	5cd3      	ldrb	r3, [r2, r3]
    1622:	b953      	cbnz	r3, 163a <usb_d_ep_enable+0x2a>
    1624:	2202      	movs	r2, #2
    1626:	4b0b      	ldr	r3, [pc, #44]	; (1654 <usb_d_ep_enable+0x44>)
    1628:	eb03 1344 	add.w	r3, r3, r4, lsl #5
    162c:	709a      	strb	r2, [r3, #2]
	rc                  = _usb_d_dev_ep_enable(ep);
    162e:	4628      	mov	r0, r5
    1630:	4b09      	ldr	r3, [pc, #36]	; (1658 <usb_d_ep_enable+0x48>)
    1632:	4798      	blx	r3
	if (rc < 0) {
    1634:	2800      	cmp	r0, #0
    1636:	db02      	blt.n	163e <usb_d_ep_enable+0x2e>
		ept->xfer.hdr.state = USB_EP_S_DISABLED;
	}
	return rc;
}
    1638:	bd38      	pop	{r3, r4, r5, pc}
	ept->xfer.hdr.state = (ept->xfer.hdr.type == USB_EP_XTYPE_CTRL) ? USB_EP_S_X_SETUP : USB_EP_S_IDLE;
    163a:	2201      	movs	r2, #1
    163c:	e7f3      	b.n	1626 <usb_d_ep_enable+0x16>
		ept->xfer.hdr.state = USB_EP_S_DISABLED;
    163e:	4b05      	ldr	r3, [pc, #20]	; (1654 <usb_d_ep_enable+0x44>)
    1640:	eb03 1444 	add.w	r4, r3, r4, lsl #5
    1644:	2300      	movs	r3, #0
    1646:	70a3      	strb	r3, [r4, #2]
    1648:	bd38      	pop	{r3, r4, r5, pc}
		return -USB_ERR_PARAM;
    164a:	f06f 0011 	mvn.w	r0, #17
    164e:	e7f3      	b.n	1638 <usb_d_ep_enable+0x28>
    1650:	00001289 	.word	0x00001289
    1654:	200004f4 	.word	0x200004f4
    1658:	0000347d 	.word	0x0000347d

0000165c <usb_d_ep_transfer>:
	}
	return usb_d_inst.ep[ep_index].xfer.req;
}

int32_t usb_d_ep_transfer(const struct usb_d_transfer *xfer)
{
    165c:	e92d 47f0 	stmdb	sp!, {r4, r5, r6, r7, r8, r9, sl, lr}
    1660:	b086      	sub	sp, #24
    1662:	4605      	mov	r5, r0
	int8_t                ep_index = _usb_d_find_ep(xfer->ep);
    1664:	7a06      	ldrb	r6, [r0, #8]
    1666:	4630      	mov	r0, r6
    1668:	4b3c      	ldr	r3, [pc, #240]	; (175c <usb_d_ep_transfer+0x100>)
    166a:	4798      	blx	r3
	struct usb_d_ep *     ept      = &usb_d_inst.ep[ep_index];
	bool                  dir = USB_EP_GET_DIR(xfer->ep), zlp = xfer->zlp;
    166c:	7a6c      	ldrb	r4, [r5, #9]
    166e:	3400      	adds	r4, #0
    1670:	bf18      	it	ne
    1672:	2401      	movne	r4, #1
	uint32_t              len = xfer->size;
    1674:	f8d5 8004 	ldr.w	r8, [r5, #4]
	int32_t               rc;
	volatile uint8_t      state;
	volatile hal_atomic_t flags;

	if (ep_index < 0) {
    1678:	1e07      	subs	r7, r0, #0
    167a:	db69      	blt.n	1750 <usb_d_ep_transfer+0xf4>
    167c:	09f6      	lsrs	r6, r6, #7
		return -USB_ERR_PARAM;
	}

	atomic_enter_critical(&flags);
    167e:	a804      	add	r0, sp, #16
    1680:	4b37      	ldr	r3, [pc, #220]	; (1760 <usb_d_ep_transfer+0x104>)
    1682:	4798      	blx	r3
	state = ept->xfer.hdr.state;
    1684:	4b37      	ldr	r3, [pc, #220]	; (1764 <usb_d_ep_transfer+0x108>)
    1686:	eb03 1347 	add.w	r3, r3, r7, lsl #5
    168a:	789b      	ldrb	r3, [r3, #2]
    168c:	f88d 3017 	strb.w	r3, [sp, #23]
	if (state == USB_EP_S_IDLE) {
    1690:	f89d 3017 	ldrb.w	r3, [sp, #23]
    1694:	b2db      	uxtb	r3, r3
    1696:	2b01      	cmp	r3, #1
    1698:	d00c      	beq.n	16b4 <usb_d_ep_transfer+0x58>
		ept->xfer.hdr.state = USB_EP_S_X_DATA;
		atomic_leave_critical(&flags);
	} else {
		atomic_leave_critical(&flags);
    169a:	a804      	add	r0, sp, #16
    169c:	4b32      	ldr	r3, [pc, #200]	; (1768 <usb_d_ep_transfer+0x10c>)
    169e:	4798      	blx	r3
		switch (state) {
    16a0:	f89d 3017 	ldrb.w	r3, [sp, #23]
    16a4:	b2db      	uxtb	r3, r3
    16a6:	2b05      	cmp	r3, #5
    16a8:	d025      	beq.n	16f6 <usb_d_ep_transfer+0x9a>
    16aa:	2b06      	cmp	r3, #6
    16ac:	d053      	beq.n	1756 <usb_d_ep_transfer+0xfa>
    16ae:	b323      	cbz	r3, 16fa <usb_d_ep_transfer+0x9e>
		case USB_EP_S_ERROR:
			return -USB_ERROR;
		case USB_EP_S_DISABLED:
			return -USB_ERR_FUNC;
		default: /* USB_EP_S_X_xxxx  */
			return USB_BUSY;
    16b0:	2001      	movs	r0, #1
    16b2:	e01d      	b.n	16f0 <usb_d_ep_transfer+0x94>
		ept->xfer.hdr.state = USB_EP_S_X_DATA;
    16b4:	f8df a0ac 	ldr.w	sl, [pc, #172]	; 1764 <usb_d_ep_transfer+0x108>
    16b8:	ea4f 1947 	mov.w	r9, r7, lsl #5
    16bc:	eb0a 0309 	add.w	r3, sl, r9
    16c0:	2203      	movs	r2, #3
    16c2:	709a      	strb	r2, [r3, #2]
		atomic_leave_critical(&flags);
    16c4:	a804      	add	r0, sp, #16
    16c6:	4b28      	ldr	r3, [pc, #160]	; (1768 <usb_d_ep_transfer+0x10c>)
    16c8:	4798      	blx	r3
		}
	}

	if (ept->xfer.hdr.type == USB_EP_XTYPE_CTRL) {
    16ca:	f81a 3009 	ldrb.w	r3, [sl, r9]
    16ce:	b1bb      	cbz	r3, 1700 <usb_d_ep_transfer+0xa4>
				zlp = false;
			}
		}
	}

	rc = _usb_d_trans(xfer->ep, dir, xfer->buf, len, zlp);
    16d0:	7a2b      	ldrb	r3, [r5, #8]
    16d2:	682a      	ldr	r2, [r5, #0]
	struct usb_d_transfer trans
    16d4:	9201      	str	r2, [sp, #4]
    16d6:	f8cd 8008 	str.w	r8, [sp, #8]
    16da:	2e00      	cmp	r6, #0
    16dc:	d035      	beq.n	174a <usb_d_ep_transfer+0xee>
    16de:	f043 0380 	orr.w	r3, r3, #128	; 0x80
    16e2:	f88d 300c 	strb.w	r3, [sp, #12]
    16e6:	f88d 400d 	strb.w	r4, [sp, #13]
	return _usb_d_dev_ep_trans(&trans);
    16ea:	a801      	add	r0, sp, #4
    16ec:	4b1f      	ldr	r3, [pc, #124]	; (176c <usb_d_ep_transfer+0x110>)
    16ee:	4798      	blx	r3
	return rc;
}
    16f0:	b006      	add	sp, #24
    16f2:	e8bd 87f0 	ldmia.w	sp!, {r4, r5, r6, r7, r8, r9, sl, pc}
			return USB_HALTED;
    16f6:	2002      	movs	r0, #2
    16f8:	e7fa      	b.n	16f0 <usb_d_ep_transfer+0x94>
			return -USB_ERR_FUNC;
    16fa:	f06f 0012 	mvn.w	r0, #18
    16fe:	e7f7      	b.n	16f0 <usb_d_ep_transfer+0x94>
		uint16_t req_len = USB_GET_wLength(ept->xfer.req);
    1700:	4b18      	ldr	r3, [pc, #96]	; (1764 <usb_d_ep_transfer+0x108>)
    1702:	eb03 1347 	add.w	r3, r3, r7, lsl #5
    1706:	7c9c      	ldrb	r4, [r3, #18]
    1708:	7cdb      	ldrb	r3, [r3, #19]
    170a:	eb04 2403 	add.w	r4, r4, r3, lsl #8
    170e:	b2a4      	uxth	r4, r4
		if (req_len == 0) {
    1710:	b94c      	cbnz	r4, 1726 <usb_d_ep_transfer+0xca>
			ept->xfer.hdr.state = USB_EP_S_X_STATUS;
    1712:	4b14      	ldr	r3, [pc, #80]	; (1764 <usb_d_ep_transfer+0x108>)
    1714:	eb03 1747 	add.w	r7, r3, r7, lsl #5
    1718:	2304      	movs	r3, #4
    171a:	70bb      	strb	r3, [r7, #2]
			len                 = 0;
    171c:	f04f 0800 	mov.w	r8, #0
			zlp                 = true;
    1720:	2401      	movs	r4, #1
			dir                 = true;
    1722:	4626      	mov	r6, r4
    1724:	e7d4      	b.n	16d0 <usb_d_ep_transfer+0x74>
			dir = (USB_GET_bmRequestType(ept->xfer.req) & USB_REQ_TYPE_IN);
    1726:	4b0f      	ldr	r3, [pc, #60]	; (1764 <usb_d_ep_transfer+0x108>)
    1728:	eb03 1747 	add.w	r7, r3, r7, lsl #5
    172c:	f997 300c 	ldrsb.w	r3, [r7, #12]
    1730:	0fde      	lsrs	r6, r3, #31
			if (len > req_len) {
    1732:	45a0      	cmp	r8, r4
    1734:	d900      	bls.n	1738 <usb_d_ep_transfer+0xdc>
				len = req_len;
    1736:	46a0      	mov	r8, r4
			if (dir) {
    1738:	2b00      	cmp	r3, #0
    173a:	db01      	blt.n	1740 <usb_d_ep_transfer+0xe4>
				zlp = false;
    173c:	2400      	movs	r4, #0
    173e:	e7c7      	b.n	16d0 <usb_d_ep_transfer+0x74>
				zlp = (req_len > len);
    1740:	45a0      	cmp	r8, r4
    1742:	bf2c      	ite	cs
    1744:	2400      	movcs	r4, #0
    1746:	2401      	movcc	r4, #1
    1748:	e7c2      	b.n	16d0 <usb_d_ep_transfer+0x74>
	struct usb_d_transfer trans
    174a:	f003 030f 	and.w	r3, r3, #15
    174e:	e7c8      	b.n	16e2 <usb_d_ep_transfer+0x86>
		return -USB_ERR_PARAM;
    1750:	f06f 0011 	mvn.w	r0, #17
    1754:	e7cc      	b.n	16f0 <usb_d_ep_transfer+0x94>
			return -USB_ERROR;
    1756:	f06f 000f 	mvn.w	r0, #15
    175a:	e7c9      	b.n	16f0 <usb_d_ep_transfer+0x94>
    175c:	00001289 	.word	0x00001289
    1760:	00000d35 	.word	0x00000d35
    1764:	200004f4 	.word	0x200004f4
    1768:	00000d43 	.word	0x00000d43
    176c:	00003911 	.word	0x00003911

00001770 <usb_d_ep_halt>:
	}
	return ERR_NONE;
}

int32_t usb_d_ep_halt(const uint8_t ep, const enum usb_ep_halt_ctrl ctrl)
{
    1770:	b538      	push	{r3, r4, r5, lr}
    1772:	4604      	mov	r4, r0
	if (ctrl == USB_EP_HALT_CLR) {
    1774:	b139      	cbz	r1, 1786 <usb_d_ep_halt+0x16>
		return _usb_d_ep_halt_clr(ep);
	} else if (ctrl == USB_EP_HALT_SET) {
    1776:	2901      	cmp	r1, #1
    1778:	d026      	beq.n	17c8 <usb_d_ep_halt+0x58>
		return _usb_d_dev_ep_stall(ep, USB_EP_STALL_SET);
	} else {
		return _usb_d_dev_ep_stall(ep, USB_EP_STALL_GET);
    177a:	2102      	movs	r1, #2
    177c:	4b15      	ldr	r3, [pc, #84]	; (17d4 <usb_d_ep_halt+0x64>)
    177e:	4798      	blx	r3
    1780:	4603      	mov	r3, r0
	}
}
    1782:	4618      	mov	r0, r3
    1784:	bd38      	pop	{r3, r4, r5, pc}
	int8_t           ep_index = _usb_d_find_ep(ep);
    1786:	4b14      	ldr	r3, [pc, #80]	; (17d8 <usb_d_ep_halt+0x68>)
    1788:	4798      	blx	r3
	if (ep_index < 0) {
    178a:	1e05      	subs	r5, r0, #0
    178c:	db19      	blt.n	17c2 <usb_d_ep_halt+0x52>
	if (_usb_d_dev_ep_stall(ep, USB_EP_STALL_GET)) {
    178e:	2102      	movs	r1, #2
    1790:	4620      	mov	r0, r4
    1792:	4b10      	ldr	r3, [pc, #64]	; (17d4 <usb_d_ep_halt+0x64>)
    1794:	4798      	blx	r3
    1796:	4603      	mov	r3, r0
    1798:	2800      	cmp	r0, #0
    179a:	d0f2      	beq.n	1782 <usb_d_ep_halt+0x12>
		rc = _usb_d_dev_ep_stall(ep, USB_EP_STALL_CLR);
    179c:	2100      	movs	r1, #0
    179e:	4620      	mov	r0, r4
    17a0:	4b0c      	ldr	r3, [pc, #48]	; (17d4 <usb_d_ep_halt+0x64>)
    17a2:	4798      	blx	r3
		if (rc < 0) {
    17a4:	1e03      	subs	r3, r0, #0
    17a6:	dbec      	blt.n	1782 <usb_d_ep_halt+0x12>
		ept->xfer.hdr.state  = USB_EP_S_IDLE;
    17a8:	4b0c      	ldr	r3, [pc, #48]	; (17dc <usb_d_ep_halt+0x6c>)
    17aa:	eb03 1345 	add.w	r3, r3, r5, lsl #5
    17ae:	2201      	movs	r2, #1
    17b0:	709a      	strb	r2, [r3, #2]
		ept->xfer.hdr.status = USB_XFER_UNHALT;
    17b2:	2103      	movs	r1, #3
    17b4:	70d9      	strb	r1, [r3, #3]
		ept->callbacks.xfer(ep, USB_XFER_UNHALT, NULL);
    17b6:	69db      	ldr	r3, [r3, #28]
    17b8:	2200      	movs	r2, #0
    17ba:	4620      	mov	r0, r4
    17bc:	4798      	blx	r3
	return ERR_NONE;
    17be:	2300      	movs	r3, #0
    17c0:	e7df      	b.n	1782 <usb_d_ep_halt+0x12>
		return -USB_ERR_PARAM;
    17c2:	f06f 0311 	mvn.w	r3, #17
		return _usb_d_ep_halt_clr(ep);
    17c6:	e7dc      	b.n	1782 <usb_d_ep_halt+0x12>
		return _usb_d_dev_ep_stall(ep, USB_EP_STALL_SET);
    17c8:	2101      	movs	r1, #1
    17ca:	4b02      	ldr	r3, [pc, #8]	; (17d4 <usb_d_ep_halt+0x64>)
    17cc:	4798      	blx	r3
    17ce:	4603      	mov	r3, r0
    17d0:	e7d7      	b.n	1782 <usb_d_ep_halt+0x12>
    17d2:	bf00      	nop
    17d4:	0000375d 	.word	0x0000375d
    17d8:	00001289 	.word	0x00001289
    17dc:	200004f4 	.word	0x200004f4

000017e0 <usb_d_ep_register_callback>:

void usb_d_ep_register_callback(const uint8_t ep, const enum usb_d_ep_cb_type type, const FUNC_PTR func)
{
    17e0:	b538      	push	{r3, r4, r5, lr}
    17e2:	460d      	mov	r5, r1
    17e4:	4614      	mov	r4, r2
	int8_t           ep_index = _usb_d_find_ep(ep);
    17e6:	4b0e      	ldr	r3, [pc, #56]	; (1820 <usb_d_ep_register_callback+0x40>)
    17e8:	4798      	blx	r3
	struct usb_d_ep *ept      = &usb_d_inst.ep[ep_index];
	FUNC_PTR         f        = func ? (FUNC_PTR)func : (FUNC_PTR)usb_d_dummy_cb_false;
    17ea:	b13c      	cbz	r4, 17fc <usb_d_ep_register_callback+0x1c>
	if (ep_index < 0) {
    17ec:	2800      	cmp	r0, #0
    17ee:	db15      	blt.n	181c <usb_d_ep_register_callback+0x3c>
		return;
	}
	switch (type) {
    17f0:	2d01      	cmp	r5, #1
    17f2:	d00a      	beq.n	180a <usb_d_ep_register_callback+0x2a>
    17f4:	b125      	cbz	r5, 1800 <usb_d_ep_register_callback+0x20>
    17f6:	2d02      	cmp	r5, #2
    17f8:	d00c      	beq.n	1814 <usb_d_ep_register_callback+0x34>
    17fa:	bd38      	pop	{r3, r4, r5, pc}
	FUNC_PTR         f        = func ? (FUNC_PTR)func : (FUNC_PTR)usb_d_dummy_cb_false;
    17fc:	4c09      	ldr	r4, [pc, #36]	; (1824 <usb_d_ep_register_callback+0x44>)
    17fe:	e7f5      	b.n	17ec <usb_d_ep_register_callback+0xc>
	case USB_D_EP_CB_SETUP:
		ept->callbacks.req = (usb_d_ep_cb_setup_t)f;
    1800:	4b09      	ldr	r3, [pc, #36]	; (1828 <usb_d_ep_register_callback+0x48>)
    1802:	eb03 1040 	add.w	r0, r3, r0, lsl #5
    1806:	6144      	str	r4, [r0, #20]
		break;
    1808:	bd38      	pop	{r3, r4, r5, pc}
	case USB_D_EP_CB_MORE:
		ept->callbacks.more = (usb_d_ep_cb_more_t)f;
    180a:	4b07      	ldr	r3, [pc, #28]	; (1828 <usb_d_ep_register_callback+0x48>)
    180c:	eb03 1040 	add.w	r0, r3, r0, lsl #5
    1810:	6184      	str	r4, [r0, #24]
		break;
    1812:	bd38      	pop	{r3, r4, r5, pc}
	case USB_D_EP_CB_XFER:
		ept->callbacks.xfer = (usb_d_ep_cb_xfer_t)f;
    1814:	4b04      	ldr	r3, [pc, #16]	; (1828 <usb_d_ep_register_callback+0x48>)
    1816:	eb03 1040 	add.w	r0, r3, r0, lsl #5
    181a:	61c4      	str	r4, [r0, #28]
    181c:	bd38      	pop	{r3, r4, r5, pc}
    181e:	bf00      	nop
    1820:	00001289 	.word	0x00001289
    1824:	000012dd 	.word	0x000012dd
    1828:	200004f4 	.word	0x200004f4

0000182c <assert>:
/**
 * \brief Assert function
 */
void assert(const bool condition, const char *const file, const int line)
{
	if (!(condition)) {
    182c:	b900      	cbnz	r0, 1830 <assert+0x4>
		__asm("BKPT #0");
    182e:	be00      	bkpt	0x0000
    1830:	4770      	bx	lr

00001832 <is_list_element>:
 * \brief Check whether element belongs to list
 */
bool is_list_element(const struct list_descriptor *const list, const void *const element)
{
	struct list_element *it;
	for (it = list->head; it; it = it->next) {
    1832:	6803      	ldr	r3, [r0, #0]
    1834:	b11b      	cbz	r3, 183e <is_list_element+0xc>
		if (it == element) {
    1836:	428b      	cmp	r3, r1
    1838:	d003      	beq.n	1842 <is_list_element+0x10>
	for (it = list->head; it; it = it->next) {
    183a:	681b      	ldr	r3, [r3, #0]
    183c:	e7fa      	b.n	1834 <is_list_element+0x2>
			return true;
		}
	}

	return false;
    183e:	2000      	movs	r0, #0
    1840:	4770      	bx	lr
			return true;
    1842:	2001      	movs	r0, #1
}
    1844:	4770      	bx	lr
	...

00001848 <list_insert_as_head>:

/**
 * \brief Insert an element as list head
 */
void list_insert_as_head(struct list_descriptor *const list, void *const element)
{
    1848:	b538      	push	{r3, r4, r5, lr}
    184a:	4604      	mov	r4, r0
    184c:	460d      	mov	r5, r1
	ASSERT(!is_list_element(list, element));
    184e:	4b06      	ldr	r3, [pc, #24]	; (1868 <list_insert_as_head+0x20>)
    1850:	4798      	blx	r3
    1852:	f080 0001 	eor.w	r0, r0, #1
    1856:	2239      	movs	r2, #57	; 0x39
    1858:	4904      	ldr	r1, [pc, #16]	; (186c <list_insert_as_head+0x24>)
    185a:	b2c0      	uxtb	r0, r0
    185c:	4b04      	ldr	r3, [pc, #16]	; (1870 <list_insert_as_head+0x28>)
    185e:	4798      	blx	r3

	((struct list_element *)element)->next = list->head;
    1860:	6823      	ldr	r3, [r4, #0]
    1862:	602b      	str	r3, [r5, #0]
	list->head                             = (struct list_element *)element;
    1864:	6025      	str	r5, [r4, #0]
    1866:	bd38      	pop	{r3, r4, r5, pc}
    1868:	00001833 	.word	0x00001833
    186c:	00006e40 	.word	0x00006e40
    1870:	0000182d 	.word	0x0000182d

00001874 <list_insert_after>:
/**
 * \brief Insert an element after the given list element
 */
void list_insert_after(void *const after, void *const element)
{
	((struct list_element *)element)->next = ((struct list_element *)after)->next;
    1874:	6803      	ldr	r3, [r0, #0]
    1876:	600b      	str	r3, [r1, #0]
	((struct list_element *)after)->next   = (struct list_element *)element;
    1878:	6001      	str	r1, [r0, #0]
    187a:	4770      	bx	lr

0000187c <list_insert_at_end>:

/**
 * \brief Insert an element at list end
 */
void list_insert_at_end(struct list_descriptor *const list, void *const element)
{
    187c:	b570      	push	{r4, r5, r6, lr}
    187e:	4605      	mov	r5, r0
    1880:	460e      	mov	r6, r1
	struct list_element *it = list->head;
    1882:	6804      	ldr	r4, [r0, #0]

	ASSERT(!is_list_element(list, element));
    1884:	4b0a      	ldr	r3, [pc, #40]	; (18b0 <list_insert_at_end+0x34>)
    1886:	4798      	blx	r3
    1888:	f080 0001 	eor.w	r0, r0, #1
    188c:	224f      	movs	r2, #79	; 0x4f
    188e:	4909      	ldr	r1, [pc, #36]	; (18b4 <list_insert_at_end+0x38>)
    1890:	b2c0      	uxtb	r0, r0
    1892:	4b09      	ldr	r3, [pc, #36]	; (18b8 <list_insert_at_end+0x3c>)
    1894:	4798      	blx	r3

	if (!list->head) {
    1896:	682b      	ldr	r3, [r5, #0]
    1898:	b91b      	cbnz	r3, 18a2 <list_insert_at_end+0x26>
		list->head                             = (struct list_element *)element;
    189a:	602e      	str	r6, [r5, #0]
		((struct list_element *)element)->next = NULL;
    189c:	6033      	str	r3, [r6, #0]
		return;
    189e:	bd70      	pop	{r4, r5, r6, pc}
	}

	while (it->next) {
		it = it->next;
    18a0:	461c      	mov	r4, r3
	while (it->next) {
    18a2:	6823      	ldr	r3, [r4, #0]
    18a4:	2b00      	cmp	r3, #0
    18a6:	d1fb      	bne.n	18a0 <list_insert_at_end+0x24>
	}
	it->next                               = (struct list_element *)element;
    18a8:	6026      	str	r6, [r4, #0]
	((struct list_element *)element)->next = NULL;
    18aa:	6033      	str	r3, [r6, #0]
    18ac:	bd70      	pop	{r4, r5, r6, pc}
    18ae:	bf00      	nop
    18b0:	00001833 	.word	0x00001833
    18b4:	00006e40 	.word	0x00006e40
    18b8:	0000182d 	.word	0x0000182d

000018bc <list_remove_head>:
/**
 * \brief Removes list head
 */
void *list_remove_head(struct list_descriptor *const list)
{
	if (list->head) {
    18bc:	6803      	ldr	r3, [r0, #0]
    18be:	b11b      	cbz	r3, 18c8 <list_remove_head+0xc>
		struct list_element *tmp = list->head;

		list->head = list->head->next;
    18c0:	681a      	ldr	r2, [r3, #0]
    18c2:	6002      	str	r2, [r0, #0]
		return (void *)tmp;
    18c4:	4618      	mov	r0, r3
    18c6:	4770      	bx	lr
	}

	return NULL;
    18c8:	2000      	movs	r0, #0
}
    18ca:	4770      	bx	lr

000018cc <ringbuffer_init>:

/**
 * \brief Ringbuffer init
 */
int32_t ringbuffer_init(struct ringbuffer *const rb, void *buf, uint32_t size)
{
    18cc:	b570      	push	{r4, r5, r6, lr}
    18ce:	460e      	mov	r6, r1
    18d0:	4615      	mov	r5, r2
	ASSERT(rb && buf && size);
    18d2:	4604      	mov	r4, r0
    18d4:	b178      	cbz	r0, 18f6 <ringbuffer_init+0x2a>
    18d6:	b181      	cbz	r1, 18fa <ringbuffer_init+0x2e>
    18d8:	b98a      	cbnz	r2, 18fe <ringbuffer_init+0x32>
    18da:	2000      	movs	r0, #0
    18dc:	2228      	movs	r2, #40	; 0x28
    18de:	490a      	ldr	r1, [pc, #40]	; (1908 <ringbuffer_init+0x3c>)
    18e0:	4b0a      	ldr	r3, [pc, #40]	; (190c <ringbuffer_init+0x40>)
    18e2:	4798      	blx	r3

	/*
	 * buf size must be aligned to power of 2
	 */
	if ((size & (size - 1)) != 0) {
    18e4:	1e6b      	subs	r3, r5, #1
    18e6:	421d      	tst	r5, r3
    18e8:	d10b      	bne.n	1902 <ringbuffer_init+0x36>
		return ERR_INVALID_ARG;
	}

	/* size - 1 is faster in calculation */
	rb->size        = size - 1;
    18ea:	6063      	str	r3, [r4, #4]
	rb->read_index  = 0;
    18ec:	2000      	movs	r0, #0
    18ee:	60a0      	str	r0, [r4, #8]
	rb->write_index = rb->read_index;
    18f0:	60e0      	str	r0, [r4, #12]
	rb->buf         = (uint8_t *)buf;
    18f2:	6026      	str	r6, [r4, #0]

	return ERR_NONE;
    18f4:	bd70      	pop	{r4, r5, r6, pc}
	ASSERT(rb && buf && size);
    18f6:	2000      	movs	r0, #0
    18f8:	e7f0      	b.n	18dc <ringbuffer_init+0x10>
    18fa:	2000      	movs	r0, #0
    18fc:	e7ee      	b.n	18dc <ringbuffer_init+0x10>
    18fe:	2001      	movs	r0, #1
    1900:	e7ec      	b.n	18dc <ringbuffer_init+0x10>
		return ERR_INVALID_ARG;
    1902:	f06f 000c 	mvn.w	r0, #12
}
    1906:	bd70      	pop	{r4, r5, r6, pc}
    1908:	00006e64 	.word	0x00006e64
    190c:	0000182d 	.word	0x0000182d

00001910 <ringbuffer_get>:
/**
 * \brief Get one byte from ringbuffer
 *
 */
int32_t ringbuffer_get(struct ringbuffer *const rb, uint8_t *data)
{
    1910:	b538      	push	{r3, r4, r5, lr}
    1912:	460d      	mov	r5, r1
	ASSERT(rb && data);
    1914:	4604      	mov	r4, r0
    1916:	b1a8      	cbz	r0, 1944 <ringbuffer_get+0x34>
    1918:	b191      	cbz	r1, 1940 <ringbuffer_get+0x30>
    191a:	2001      	movs	r0, #1
    191c:	2240      	movs	r2, #64	; 0x40
    191e:	490c      	ldr	r1, [pc, #48]	; (1950 <ringbuffer_get+0x40>)
    1920:	4b0c      	ldr	r3, [pc, #48]	; (1954 <ringbuffer_get+0x44>)
    1922:	4798      	blx	r3

	if (rb->write_index != rb->read_index) {
    1924:	68e2      	ldr	r2, [r4, #12]
    1926:	68a3      	ldr	r3, [r4, #8]
    1928:	429a      	cmp	r2, r3
    192a:	d00d      	beq.n	1948 <ringbuffer_get+0x38>
		*data = rb->buf[rb->read_index & rb->size];
    192c:	6822      	ldr	r2, [r4, #0]
    192e:	6861      	ldr	r1, [r4, #4]
    1930:	400b      	ands	r3, r1
    1932:	5cd3      	ldrb	r3, [r2, r3]
    1934:	702b      	strb	r3, [r5, #0]
		rb->read_index++;
    1936:	68a3      	ldr	r3, [r4, #8]
    1938:	3301      	adds	r3, #1
    193a:	60a3      	str	r3, [r4, #8]
		return ERR_NONE;
    193c:	2000      	movs	r0, #0
    193e:	bd38      	pop	{r3, r4, r5, pc}
	ASSERT(rb && data);
    1940:	2000      	movs	r0, #0
    1942:	e7eb      	b.n	191c <ringbuffer_get+0xc>
    1944:	2000      	movs	r0, #0
    1946:	e7e9      	b.n	191c <ringbuffer_get+0xc>
	}

	return ERR_NOT_FOUND;
    1948:	f06f 0009 	mvn.w	r0, #9
}
    194c:	bd38      	pop	{r3, r4, r5, pc}
    194e:	bf00      	nop
    1950:	00006e64 	.word	0x00006e64
    1954:	0000182d 	.word	0x0000182d

00001958 <ringbuffer_put>:
/**
 * \brief Put one byte to ringbuffer
 *
 */
int32_t ringbuffer_put(struct ringbuffer *const rb, uint8_t data)
{
    1958:	b538      	push	{r3, r4, r5, lr}
    195a:	460d      	mov	r5, r1
	ASSERT(rb);
    195c:	4604      	mov	r4, r0
    195e:	2251      	movs	r2, #81	; 0x51
    1960:	490b      	ldr	r1, [pc, #44]	; (1990 <ringbuffer_put+0x38>)
    1962:	3000      	adds	r0, #0
    1964:	bf18      	it	ne
    1966:	2001      	movne	r0, #1
    1968:	4b0a      	ldr	r3, [pc, #40]	; (1994 <ringbuffer_put+0x3c>)
    196a:	4798      	blx	r3

	rb->buf[rb->write_index & rb->size] = data;
    196c:	6822      	ldr	r2, [r4, #0]
    196e:	68e3      	ldr	r3, [r4, #12]
    1970:	6861      	ldr	r1, [r4, #4]
    1972:	400b      	ands	r3, r1
    1974:	54d5      	strb	r5, [r2, r3]

	/*
	 * buffer full strategy: new data will overwrite the oldest data in
	 * the buffer
	 */
	if ((rb->write_index - rb->read_index) > rb->size) {
    1976:	68e3      	ldr	r3, [r4, #12]
    1978:	68a2      	ldr	r2, [r4, #8]
    197a:	1a9a      	subs	r2, r3, r2
    197c:	6861      	ldr	r1, [r4, #4]
    197e:	428a      	cmp	r2, r1
    1980:	d901      	bls.n	1986 <ringbuffer_put+0x2e>
		rb->read_index = rb->write_index - rb->size;
    1982:	1a59      	subs	r1, r3, r1
    1984:	60a1      	str	r1, [r4, #8]
	}

	rb->write_index++;
    1986:	3301      	adds	r3, #1
    1988:	60e3      	str	r3, [r4, #12]

	return ERR_NONE;
}
    198a:	2000      	movs	r0, #0
    198c:	bd38      	pop	{r3, r4, r5, pc}
    198e:	bf00      	nop
    1990:	00006e64 	.word	0x00006e64
    1994:	0000182d 	.word	0x0000182d

00001998 <ringbuffer_num>:

/**
 * \brief Return the element number of ringbuffer
 */
uint32_t ringbuffer_num(const struct ringbuffer *const rb)
{
    1998:	b510      	push	{r4, lr}
	ASSERT(rb);
    199a:	4604      	mov	r4, r0
    199c:	2267      	movs	r2, #103	; 0x67
    199e:	4905      	ldr	r1, [pc, #20]	; (19b4 <ringbuffer_num+0x1c>)
    19a0:	3000      	adds	r0, #0
    19a2:	bf18      	it	ne
    19a4:	2001      	movne	r0, #1
    19a6:	4b04      	ldr	r3, [pc, #16]	; (19b8 <ringbuffer_num+0x20>)
    19a8:	4798      	blx	r3

	return rb->write_index - rb->read_index;
    19aa:	68e0      	ldr	r0, [r4, #12]
    19ac:	68a3      	ldr	r3, [r4, #8]
}
    19ae:	1ac0      	subs	r0, r0, r3
    19b0:	bd10      	pop	{r4, pc}
    19b2:	bf00      	nop
    19b4:	00006e64 	.word	0x00006e64
    19b8:	0000182d 	.word	0x0000182d

000019bc <_adc_get_hardware_index>:
/**
 * \brief Retrieve ordinal number of the given adc hardware instance
 */
static uint8_t _adc_get_hardware_index(const void *const hw)
{
	return ((uint32_t)hw - (uint32_t)ADC0) >> 10;
    19bc:	f100 403d 	add.w	r0, r0, #3170893824	; 0xbd000000
    19c0:	f5a0 50e0 	sub.w	r0, r0, #7168	; 0x1c00
}
    19c4:	f3c0 2087 	ubfx	r0, r0, #10, #8
    19c8:	4770      	bx	lr
	...

000019cc <_adc_init>:
 *
 * \param[in] hw The pointer to hardware instance
 * \param[in] i The number of hardware instance
 */
static int32_t _adc_init(void *const hw, const uint8_t i)
{
    19cc:	b410      	push	{r4}
	uint16_t calib_reg = 0;
	if (hw == ADC0) {
    19ce:	4b5f      	ldr	r3, [pc, #380]	; (1b4c <_adc_init+0x180>)
    19d0:	4298      	cmp	r0, r3
    19d2:	f000 809b 	beq.w	1b0c <_adc_init+0x140>
		calib_reg = ADC_CALIB_BIASREFBUF((*(uint32_t *)ADC0_FUSES_BIASREFBUF_ADDR >> ADC0_FUSES_BIASREFBUF_Pos))
		            | ADC_CALIB_BIASR2R((*(uint32_t *)ADC0_FUSES_BIASR2R_ADDR >> ADC0_FUSES_BIASR2R_Pos))
		            | ADC_CALIB_BIASCOMP((*(uint32_t *)ADC0_FUSES_BIASCOMP_ADDR >> ADC0_FUSES_BIASCOMP_Pos));
	} else if (hw == ADC1) {
    19d6:	4b5e      	ldr	r3, [pc, #376]	; (1b50 <_adc_init+0x184>)
    19d8:	4298      	cmp	r0, r3
    19da:	f000 80a7 	beq.w	1b2c <_adc_init+0x160>
	uint16_t calib_reg = 0;
    19de:	2200      	movs	r2, #0
	};
}

static inline bool hri_adc_is_syncing(const void *const hw, hri_adc_syncbusy_reg_t reg)
{
	return ((Adc *)hw)->SYNCBUSY.reg & reg;
    19e0:	6b03      	ldr	r3, [r0, #48]	; 0x30
		calib_reg = ADC_CALIB_BIASREFBUF((*(uint32_t *)ADC1_FUSES_BIASREFBUF_ADDR >> ADC1_FUSES_BIASREFBUF_Pos))
		            | ADC_CALIB_BIASR2R((*(uint32_t *)ADC1_FUSES_BIASR2R_ADDR >> ADC1_FUSES_BIASR2R_Pos))
		            | ADC_CALIB_BIASCOMP((*(uint32_t *)ADC1_FUSES_BIASCOMP_ADDR >> ADC1_FUSES_BIASCOMP_Pos));
	}

	if (!hri_adc_is_syncing(hw, ADC_SYNCBUSY_SWRST)) {
    19e2:	f013 0f01 	tst.w	r3, #1
    19e6:	d11b      	bne.n	1a20 <_adc_init+0x54>
	while (((Adc *)hw)->SYNCBUSY.reg & reg) {
    19e8:	6b03      	ldr	r3, [r0, #48]	; 0x30
    19ea:	f013 0f03 	tst.w	r3, #3
    19ee:	d1fb      	bne.n	19e8 <_adc_init+0x1c>

static inline hri_adc_ctrla_reg_t hri_adc_get_CTRLA_reg(const void *const hw, hri_adc_ctrla_reg_t mask)
{
	uint16_t tmp;
	hri_adc_wait_for_sync(hw, ADC_SYNCBUSY_SWRST | ADC_SYNCBUSY_ENABLE);
	tmp = ((Adc *)hw)->CTRLA.reg;
    19f0:	8803      	ldrh	r3, [r0, #0]
		if (hri_adc_get_CTRLA_reg(hw, ADC_CTRLA_ENABLE)) {
    19f2:	f013 0f02 	tst.w	r3, #2
    19f6:	d00d      	beq.n	1a14 <_adc_init+0x48>
	((Adc *)hw)->CTRLA.reg &= ~ADC_CTRLA_ENABLE;
    19f8:	8803      	ldrh	r3, [r0, #0]
    19fa:	b29b      	uxth	r3, r3
    19fc:	f023 0302 	bic.w	r3, r3, #2
    1a00:	b29b      	uxth	r3, r3
    1a02:	8003      	strh	r3, [r0, #0]
	while (((Adc *)hw)->SYNCBUSY.reg & reg) {
    1a04:	6b03      	ldr	r3, [r0, #48]	; 0x30
    1a06:	f013 0f03 	tst.w	r3, #3
    1a0a:	d1fb      	bne.n	1a04 <_adc_init+0x38>
    1a0c:	6b03      	ldr	r3, [r0, #48]	; 0x30
    1a0e:	f013 0f02 	tst.w	r3, #2
    1a12:	d1fb      	bne.n	1a0c <_adc_init+0x40>
}

static inline void hri_adc_write_CTRLA_reg(const void *const hw, hri_adc_ctrla_reg_t data)
{
	ADC_CRITICAL_SECTION_ENTER();
	((Adc *)hw)->CTRLA.reg = data;
    1a14:	2301      	movs	r3, #1
    1a16:	8003      	strh	r3, [r0, #0]
	while (((Adc *)hw)->SYNCBUSY.reg & reg) {
    1a18:	6b03      	ldr	r3, [r0, #48]	; 0x30
    1a1a:	f013 0f03 	tst.w	r3, #3
    1a1e:	d1fb      	bne.n	1a18 <_adc_init+0x4c>
    1a20:	6b03      	ldr	r3, [r0, #48]	; 0x30
    1a22:	f013 0f01 	tst.w	r3, #1
    1a26:	d1fb      	bne.n	1a20 <_adc_init+0x54>
}

static inline void hri_adc_write_CALIB_reg(const void *const hw, hri_adc_calib_reg_t data)
{
	ADC_CRITICAL_SECTION_ENTER();
	((Adc *)hw)->CALIB.reg = data;
    1a28:	f8a0 2048 	strh.w	r2, [r0, #72]	; 0x48
		hri_adc_write_CTRLA_reg(hw, ADC_CTRLA_SWRST);
	}
	hri_adc_wait_for_sync(hw, ADC_SYNCBUSY_SWRST);

	hri_adc_write_CALIB_reg(hw, calib_reg);
	hri_adc_write_CTRLB_reg(hw, _adcs[i].ctrl_b);
    1a2c:	2316      	movs	r3, #22
    1a2e:	4a49      	ldr	r2, [pc, #292]	; (1b54 <_adc_init+0x188>)
    1a30:	fb03 2301 	mla	r3, r3, r1, r2
    1a34:	889b      	ldrh	r3, [r3, #4]
	((Adc *)hw)->CTRLB.reg = data;
    1a36:	80c3      	strh	r3, [r0, #6]
	while (((Adc *)hw)->SYNCBUSY.reg & reg) {
    1a38:	6b03      	ldr	r3, [r0, #48]	; 0x30
    1a3a:	f3c3 030b 	ubfx	r3, r3, #0, #12
    1a3e:	2b00      	cmp	r3, #0
    1a40:	d1fa      	bne.n	1a38 <_adc_init+0x6c>
	hri_adc_write_REFCTRL_reg(hw, _adcs[i].ref_ctrl);
    1a42:	2316      	movs	r3, #22
    1a44:	4a43      	ldr	r2, [pc, #268]	; (1b54 <_adc_init+0x188>)
    1a46:	fb03 2301 	mla	r3, r3, r1, r2
    1a4a:	799b      	ldrb	r3, [r3, #6]
	((Adc *)hw)->REFCTRL.reg = data;
    1a4c:	7203      	strb	r3, [r0, #8]
	while (((Adc *)hw)->SYNCBUSY.reg & reg) {
    1a4e:	6b03      	ldr	r3, [r0, #48]	; 0x30
    1a50:	f3c3 030b 	ubfx	r3, r3, #0, #12
    1a54:	2b00      	cmp	r3, #0
    1a56:	d1fa      	bne.n	1a4e <_adc_init+0x82>
	hri_adc_write_EVCTRL_reg(hw, _adcs[i].ev_ctrl);
    1a58:	2316      	movs	r3, #22
    1a5a:	4a3e      	ldr	r2, [pc, #248]	; (1b54 <_adc_init+0x188>)
    1a5c:	fb03 2301 	mla	r3, r3, r1, r2
    1a60:	79da      	ldrb	r2, [r3, #7]
	((Adc *)hw)->EVCTRL.reg = data;
    1a62:	7082      	strb	r2, [r0, #2]
	hri_adc_write_INPUTCTRL_reg(hw, _adcs[i].input_ctrl);
    1a64:	891b      	ldrh	r3, [r3, #8]
	((Adc *)hw)->INPUTCTRL.reg = data;
    1a66:	8083      	strh	r3, [r0, #4]
	while (((Adc *)hw)->SYNCBUSY.reg & reg) {
    1a68:	6b03      	ldr	r3, [r0, #48]	; 0x30
    1a6a:	f3c3 030b 	ubfx	r3, r3, #0, #12
    1a6e:	2b00      	cmp	r3, #0
    1a70:	d1fa      	bne.n	1a68 <_adc_init+0x9c>
	hri_adc_write_AVGCTRL_reg(hw, _adcs[i].avg_ctrl);
    1a72:	2316      	movs	r3, #22
    1a74:	4a37      	ldr	r2, [pc, #220]	; (1b54 <_adc_init+0x188>)
    1a76:	fb03 2301 	mla	r3, r3, r1, r2
    1a7a:	7a9b      	ldrb	r3, [r3, #10]
	((Adc *)hw)->AVGCTRL.reg = data;
    1a7c:	7283      	strb	r3, [r0, #10]
	while (((Adc *)hw)->SYNCBUSY.reg & reg) {
    1a7e:	6b03      	ldr	r3, [r0, #48]	; 0x30
    1a80:	f3c3 030b 	ubfx	r3, r3, #0, #12
    1a84:	2b00      	cmp	r3, #0
    1a86:	d1fa      	bne.n	1a7e <_adc_init+0xb2>
	hri_adc_write_SAMPCTRL_reg(hw, _adcs[i].samp_ctrl);
    1a88:	2316      	movs	r3, #22
    1a8a:	4a32      	ldr	r2, [pc, #200]	; (1b54 <_adc_init+0x188>)
    1a8c:	fb03 2301 	mla	r3, r3, r1, r2
    1a90:	7adb      	ldrb	r3, [r3, #11]
	((Adc *)hw)->SAMPCTRL.reg = data;
    1a92:	72c3      	strb	r3, [r0, #11]
	while (((Adc *)hw)->SYNCBUSY.reg & reg) {
    1a94:	6b03      	ldr	r3, [r0, #48]	; 0x30
    1a96:	f3c3 030b 	ubfx	r3, r3, #0, #12
    1a9a:	2b00      	cmp	r3, #0
    1a9c:	d1fa      	bne.n	1a94 <_adc_init+0xc8>
	hri_adc_write_WINLT_reg(hw, _adcs[i].win_lt);
    1a9e:	2316      	movs	r3, #22
    1aa0:	4a2c      	ldr	r2, [pc, #176]	; (1b54 <_adc_init+0x188>)
    1aa2:	fb03 2301 	mla	r3, r3, r1, r2
    1aa6:	899b      	ldrh	r3, [r3, #12]
	((Adc *)hw)->WINLT.reg = data;
    1aa8:	8183      	strh	r3, [r0, #12]
	while (((Adc *)hw)->SYNCBUSY.reg & reg) {
    1aaa:	6b03      	ldr	r3, [r0, #48]	; 0x30
    1aac:	f013 0f80 	tst.w	r3, #128	; 0x80
    1ab0:	d1fb      	bne.n	1aaa <_adc_init+0xde>
	hri_adc_write_WINUT_reg(hw, _adcs[i].win_ut);
    1ab2:	2316      	movs	r3, #22
    1ab4:	4a27      	ldr	r2, [pc, #156]	; (1b54 <_adc_init+0x188>)
    1ab6:	fb03 2301 	mla	r3, r3, r1, r2
    1aba:	89db      	ldrh	r3, [r3, #14]
	((Adc *)hw)->WINUT.reg = data;
    1abc:	81c3      	strh	r3, [r0, #14]
	while (((Adc *)hw)->SYNCBUSY.reg & reg) {
    1abe:	6b03      	ldr	r3, [r0, #48]	; 0x30
    1ac0:	f413 7f80 	tst.w	r3, #256	; 0x100
    1ac4:	d1fb      	bne.n	1abe <_adc_init+0xf2>
	hri_adc_write_GAINCORR_reg(hw, _adcs[i].gain_corr);
    1ac6:	2316      	movs	r3, #22
    1ac8:	4a22      	ldr	r2, [pc, #136]	; (1b54 <_adc_init+0x188>)
    1aca:	fb03 2301 	mla	r3, r3, r1, r2
    1ace:	8a1b      	ldrh	r3, [r3, #16]
	((Adc *)hw)->GAINCORR.reg = data;
    1ad0:	8203      	strh	r3, [r0, #16]
	while (((Adc *)hw)->SYNCBUSY.reg & reg) {
    1ad2:	6b03      	ldr	r3, [r0, #48]	; 0x30
    1ad4:	f413 7f00 	tst.w	r3, #512	; 0x200
    1ad8:	d1fb      	bne.n	1ad2 <_adc_init+0x106>
	hri_adc_write_OFFSETCORR_reg(hw, _adcs[i].offset_corr);
    1ada:	2316      	movs	r3, #22
    1adc:	4a1d      	ldr	r2, [pc, #116]	; (1b54 <_adc_init+0x188>)
    1ade:	fb03 2301 	mla	r3, r3, r1, r2
    1ae2:	8a5b      	ldrh	r3, [r3, #18]
	((Adc *)hw)->OFFSETCORR.reg = data;
    1ae4:	8243      	strh	r3, [r0, #18]
	while (((Adc *)hw)->SYNCBUSY.reg & reg) {
    1ae6:	6b03      	ldr	r3, [r0, #48]	; 0x30
    1ae8:	f413 6f80 	tst.w	r3, #1024	; 0x400
    1aec:	d1fb      	bne.n	1ae6 <_adc_init+0x11a>
	hri_adc_write_DBGCTRL_reg(hw, _adcs[i].dbg_ctrl);
    1aee:	2216      	movs	r2, #22
    1af0:	4b18      	ldr	r3, [pc, #96]	; (1b54 <_adc_init+0x188>)
    1af2:	fb02 3101 	mla	r1, r2, r1, r3
    1af6:	7d0b      	ldrb	r3, [r1, #20]
	((Adc *)hw)->DBGCTRL.reg = data;
    1af8:	70c3      	strb	r3, [r0, #3]
	hri_adc_write_CTRLA_reg(hw, _adcs[i].ctrl_a);
    1afa:	884b      	ldrh	r3, [r1, #2]
	((Adc *)hw)->CTRLA.reg = data;
    1afc:	8003      	strh	r3, [r0, #0]
	while (((Adc *)hw)->SYNCBUSY.reg & reg) {
    1afe:	6b03      	ldr	r3, [r0, #48]	; 0x30
    1b00:	f013 0f03 	tst.w	r3, #3
    1b04:	d1fb      	bne.n	1afe <_adc_init+0x132>

	return ERR_NONE;
}
    1b06:	2000      	movs	r0, #0
    1b08:	bc10      	pop	{r4}
    1b0a:	4770      	bx	lr
		calib_reg = ADC_CALIB_BIASREFBUF((*(uint32_t *)ADC0_FUSES_BIASREFBUF_ADDR >> ADC0_FUSES_BIASREFBUF_Pos))
    1b0c:	f04f 1380 	mov.w	r3, #8388736	; 0x800080
    1b10:	681b      	ldr	r3, [r3, #0]
    1b12:	095a      	lsrs	r2, r3, #5
    1b14:	0212      	lsls	r2, r2, #8
    1b16:	f402 62e0 	and.w	r2, r2, #1792	; 0x700
		            | ADC_CALIB_BIASR2R((*(uint32_t *)ADC0_FUSES_BIASR2R_ADDR >> ADC0_FUSES_BIASR2R_Pos))
    1b1a:	0a1c      	lsrs	r4, r3, #8
    1b1c:	0124      	lsls	r4, r4, #4
    1b1e:	f004 0470 	and.w	r4, r4, #112	; 0x70
    1b22:	4322      	orrs	r2, r4
		            | ADC_CALIB_BIASCOMP((*(uint32_t *)ADC0_FUSES_BIASCOMP_ADDR >> ADC0_FUSES_BIASCOMP_Pos));
    1b24:	f3c3 0382 	ubfx	r3, r3, #2, #3
		calib_reg = ADC_CALIB_BIASREFBUF((*(uint32_t *)ADC0_FUSES_BIASREFBUF_ADDR >> ADC0_FUSES_BIASREFBUF_Pos))
    1b28:	431a      	orrs	r2, r3
    1b2a:	e759      	b.n	19e0 <_adc_init+0x14>
		calib_reg = ADC_CALIB_BIASREFBUF((*(uint32_t *)ADC1_FUSES_BIASREFBUF_ADDR >> ADC1_FUSES_BIASREFBUF_Pos))
    1b2c:	f04f 1380 	mov.w	r3, #8388736	; 0x800080
    1b30:	681b      	ldr	r3, [r3, #0]
    1b32:	0cda      	lsrs	r2, r3, #19
    1b34:	0212      	lsls	r2, r2, #8
    1b36:	f402 62e0 	and.w	r2, r2, #1792	; 0x700
		            | ADC_CALIB_BIASR2R((*(uint32_t *)ADC1_FUSES_BIASR2R_ADDR >> ADC1_FUSES_BIASR2R_Pos))
    1b3a:	0d9c      	lsrs	r4, r3, #22
    1b3c:	0124      	lsls	r4, r4, #4
    1b3e:	f004 0470 	and.w	r4, r4, #112	; 0x70
    1b42:	4322      	orrs	r2, r4
		            | ADC_CALIB_BIASCOMP((*(uint32_t *)ADC1_FUSES_BIASCOMP_ADDR >> ADC1_FUSES_BIASCOMP_Pos));
    1b44:	f3c3 4302 	ubfx	r3, r3, #16, #3
		calib_reg = ADC_CALIB_BIASREFBUF((*(uint32_t *)ADC1_FUSES_BIASREFBUF_ADDR >> ADC1_FUSES_BIASREFBUF_Pos))
    1b48:	431a      	orrs	r2, r3
    1b4a:	e749      	b.n	19e0 <_adc_init+0x14>
    1b4c:	43001c00 	.word	0x43001c00
    1b50:	43002000 	.word	0x43002000
    1b54:	00006e90 	.word	0x00006e90

00001b58 <_adc_get_regs>:
{
    1b58:	b508      	push	{r3, lr}
	uint8_t n = _adc_get_hardware_index((const void *)hw_addr);
    1b5a:	4b0b      	ldr	r3, [pc, #44]	; (1b88 <_adc_get_regs+0x30>)
    1b5c:	4798      	blx	r3
	for (i = 0; i < sizeof(_adcs) / sizeof(struct adc_configuration); i++) {
    1b5e:	2300      	movs	r3, #0
    1b60:	b13b      	cbz	r3, 1b72 <_adc_get_regs+0x1a>
	ASSERT(false);
    1b62:	2288      	movs	r2, #136	; 0x88
    1b64:	4909      	ldr	r1, [pc, #36]	; (1b8c <_adc_get_regs+0x34>)
    1b66:	2000      	movs	r0, #0
    1b68:	4b09      	ldr	r3, [pc, #36]	; (1b90 <_adc_get_regs+0x38>)
    1b6a:	4798      	blx	r3
	return 0;
    1b6c:	2300      	movs	r3, #0
}
    1b6e:	4618      	mov	r0, r3
    1b70:	bd08      	pop	{r3, pc}
		if (_adcs[i].number == n) {
    1b72:	2216      	movs	r2, #22
    1b74:	fb02 f203 	mul.w	r2, r2, r3
    1b78:	4906      	ldr	r1, [pc, #24]	; (1b94 <_adc_get_regs+0x3c>)
    1b7a:	5c8a      	ldrb	r2, [r1, r2]
    1b7c:	4290      	cmp	r0, r2
    1b7e:	d0f6      	beq.n	1b6e <_adc_get_regs+0x16>
	for (i = 0; i < sizeof(_adcs) / sizeof(struct adc_configuration); i++) {
    1b80:	3301      	adds	r3, #1
    1b82:	b2db      	uxtb	r3, r3
    1b84:	e7ec      	b.n	1b60 <_adc_get_regs+0x8>
    1b86:	bf00      	nop
    1b88:	000019bd 	.word	0x000019bd
    1b8c:	00006ea8 	.word	0x00006ea8
    1b90:	0000182d 	.word	0x0000182d
    1b94:	00006e90 	.word	0x00006e90

00001b98 <_adc_sync_init>:

/**
 * \brief Initialize ADC
 */
int32_t _adc_sync_init(struct _adc_sync_device *const device, void *const hw)
{
    1b98:	b538      	push	{r3, r4, r5, lr}
    1b9a:	460c      	mov	r4, r1
	ASSERT(device);
    1b9c:	4605      	mov	r5, r0
    1b9e:	22d9      	movs	r2, #217	; 0xd9
    1ba0:	4907      	ldr	r1, [pc, #28]	; (1bc0 <_adc_sync_init+0x28>)
    1ba2:	3000      	adds	r0, #0
    1ba4:	bf18      	it	ne
    1ba6:	2001      	movne	r0, #1
    1ba8:	4b06      	ldr	r3, [pc, #24]	; (1bc4 <_adc_sync_init+0x2c>)
    1baa:	4798      	blx	r3

	device->hw = hw;
    1bac:	602c      	str	r4, [r5, #0]

	return _adc_init(hw, _adc_get_regs((uint32_t)hw));
    1bae:	4620      	mov	r0, r4
    1bb0:	4b05      	ldr	r3, [pc, #20]	; (1bc8 <_adc_sync_init+0x30>)
    1bb2:	4798      	blx	r3
    1bb4:	4601      	mov	r1, r0
    1bb6:	4620      	mov	r0, r4
    1bb8:	4b04      	ldr	r3, [pc, #16]	; (1bcc <_adc_sync_init+0x34>)
    1bba:	4798      	blx	r3
}
    1bbc:	bd38      	pop	{r3, r4, r5, pc}
    1bbe:	bf00      	nop
    1bc0:	00006ea8 	.word	0x00006ea8
    1bc4:	0000182d 	.word	0x0000182d
    1bc8:	00001b59 	.word	0x00001b59
    1bcc:	000019cd 	.word	0x000019cd

00001bd0 <_init_chip>:

/**
 * \brief Initialize the hardware abstraction layer
 */
void _init_chip(void)
{
    1bd0:	b510      	push	{r4, lr}
}

static inline void hri_nvmctrl_set_CTRLA_RWS_bf(const void *const hw, hri_nvmctrl_ctrla_reg_t mask)
{
	NVMCTRL_CRITICAL_SECTION_ENTER();
	((Nvmctrl *)hw)->CTRLA.reg |= NVMCTRL_CTRLA_RWS(mask);
    1bd2:	4a09      	ldr	r2, [pc, #36]	; (1bf8 <_init_chip+0x28>)
    1bd4:	8813      	ldrh	r3, [r2, #0]
    1bd6:	b29b      	uxth	r3, r3
    1bd8:	8013      	strh	r3, [r2, #0]
	hri_nvmctrl_set_CTRLA_RWS_bf(NVMCTRL, CONF_NVM_WAIT_STATE);

	_osc32kctrl_init_sources();
    1bda:	4b08      	ldr	r3, [pc, #32]	; (1bfc <_init_chip+0x2c>)
    1bdc:	4798      	blx	r3
	_oscctrl_init_sources();
    1bde:	4b08      	ldr	r3, [pc, #32]	; (1c00 <_init_chip+0x30>)
    1be0:	4798      	blx	r3
	_mclk_init();
    1be2:	4b08      	ldr	r3, [pc, #32]	; (1c04 <_init_chip+0x34>)
    1be4:	4798      	blx	r3
#if _GCLK_INIT_1ST
	_gclk_init_generators_by_fref(_GCLK_INIT_1ST);
    1be6:	2004      	movs	r0, #4
    1be8:	4c07      	ldr	r4, [pc, #28]	; (1c08 <_init_chip+0x38>)
    1bea:	47a0      	blx	r4
#endif
	_oscctrl_init_referenced_generators();
    1bec:	4b07      	ldr	r3, [pc, #28]	; (1c0c <_init_chip+0x3c>)
    1bee:	4798      	blx	r3
	_gclk_init_generators_by_fref(_GCLK_INIT_LAST);
    1bf0:	f640 70fb 	movw	r0, #4091	; 0xffb
    1bf4:	47a0      	blx	r4
    1bf6:	bd10      	pop	{r4, pc}
    1bf8:	41004000 	.word	0x41004000
    1bfc:	00001dc5 	.word	0x00001dc5
    1c00:	00001de5 	.word	0x00001de5
    1c04:	00001ce9 	.word	0x00001ce9
    1c08:	00001c75 	.word	0x00001c75
    1c0c:	00001de9 	.word	0x00001de9

00001c10 <_event_system_init>:
 */
int32_t _event_system_init(void)
{
	uint8_t i;
	/* configure user multiplexers */
	for (i = 0; i < EVSYS_USERS; i++) {
    1c10:	2300      	movs	r3, #0
    1c12:	e008      	b.n	1c26 <_event_system_init+0x16>
		hri_evsys_write_USER_reg(EVSYS, i, user_mux_confs[i]);
    1c14:	4a15      	ldr	r2, [pc, #84]	; (1c6c <_event_system_init+0x5c>)
    1c16:	5cd0      	ldrb	r0, [r2, r3]
}

static inline void hri_evsys_write_USER_reg(const void *const hw, uint8_t index, hri_evsys_user_reg_t data)
{
	EVSYS_CRITICAL_SECTION_ENTER();
	((Evsys *)hw)->USER[index].reg = data;
    1c18:	f103 0148 	add.w	r1, r3, #72	; 0x48
    1c1c:	4a14      	ldr	r2, [pc, #80]	; (1c70 <_event_system_init+0x60>)
    1c1e:	f842 0021 	str.w	r0, [r2, r1, lsl #2]
	for (i = 0; i < EVSYS_USERS; i++) {
    1c22:	3301      	adds	r3, #1
    1c24:	b2db      	uxtb	r3, r3
    1c26:	2b42      	cmp	r3, #66	; 0x42
    1c28:	d9f4      	bls.n	1c14 <_event_system_init+0x4>
    1c2a:	2300      	movs	r3, #0
	}

	/* configure channels */
	for (i = 0; i < EVSYS_CHANNELS; i++) {
    1c2c:	2b1f      	cmp	r3, #31
    1c2e:	d81a      	bhi.n	1c66 <_event_system_init+0x56>
{
    1c30:	b410      	push	{r4}
		hri_evsys_write_CHANNEL_reg(EVSYS, i, channel_confs[i]);
    1c32:	4a0e      	ldr	r2, [pc, #56]	; (1c6c <_event_system_init+0x5c>)
    1c34:	eb02 0143 	add.w	r1, r2, r3, lsl #1
    1c38:	f8b1 4044 	ldrh.w	r4, [r1, #68]	; 0x44

static inline void hri_evsys_write_CHANNEL_reg(const void *const hw, uint8_t submodule_index,
                                               hri_evsys_channel_reg_t data)
{
	EVSYS_CRITICAL_SECTION_ENTER();
	((Evsys *)hw)->Channel[submodule_index].CHANNEL.reg = data;
    1c3c:	490c      	ldr	r1, [pc, #48]	; (1c70 <_event_system_init+0x60>)
    1c3e:	1d18      	adds	r0, r3, #4
    1c40:	f841 4030 	str.w	r4, [r1, r0, lsl #3]
		hri_evsys_write_CHINTEN_reg(EVSYS, i, interrupt_cfg[i]);
    1c44:	eb02 0283 	add.w	r2, r2, r3, lsl #2
    1c48:	f892 2084 	ldrb.w	r2, [r2, #132]	; 0x84
	((Evsys *)hw)->Channel[submodule_index].CHINTENSET.reg = data;
    1c4c:	eb01 01c0 	add.w	r1, r1, r0, lsl #3
    1c50:	714a      	strb	r2, [r1, #5]
	((Evsys *)hw)->Channel[submodule_index].CHINTENCLR.reg = ~data;
    1c52:	43d2      	mvns	r2, r2
    1c54:	b2d2      	uxtb	r2, r2
    1c56:	710a      	strb	r2, [r1, #4]
	for (i = 0; i < EVSYS_CHANNELS; i++) {
    1c58:	3301      	adds	r3, #1
    1c5a:	b2db      	uxtb	r3, r3
    1c5c:	2b1f      	cmp	r3, #31
    1c5e:	d9e8      	bls.n	1c32 <_event_system_init+0x22>
	}

	return ERR_NONE;
}
    1c60:	2000      	movs	r0, #0
    1c62:	bc10      	pop	{r4}
    1c64:	4770      	bx	lr
    1c66:	2000      	movs	r0, #0
    1c68:	4770      	bx	lr
    1c6a:	bf00      	nop
    1c6c:	00006ec4 	.word	0x00006ec4
    1c70:	4100e000 	.word	0x4100e000

00001c74 <_gclk_init_generators_by_fref>:

void _gclk_init_generators_by_fref(uint32_t bm)
{

#if CONF_GCLK_GENERATOR_0_CONFIG == 1
	if (bm & (1ul << 0)) {
    1c74:	f010 0f01 	tst.w	r0, #1
    1c78:	d008      	beq.n	1c8c <_gclk_init_generators_by_fref+0x18>
	((Gclk *)hw)->GENCTRL[index].reg = data;
    1c7a:	4a17      	ldr	r2, [pc, #92]	; (1cd8 <_gclk_init_generators_by_fref+0x64>)
    1c7c:	4b17      	ldr	r3, [pc, #92]	; (1cdc <_gclk_init_generators_by_fref+0x68>)
    1c7e:	621a      	str	r2, [r3, #32]
	while (((Gclk *)hw)->SYNCBUSY.reg & reg) {
    1c80:	4b16      	ldr	r3, [pc, #88]	; (1cdc <_gclk_init_generators_by_fref+0x68>)
    1c82:	685a      	ldr	r2, [r3, #4]
    1c84:	f643 73fd 	movw	r3, #16381	; 0x3ffd
    1c88:	421a      	tst	r2, r3
    1c8a:	d1f9      	bne.n	1c80 <_gclk_init_generators_by_fref+0xc>
		        | (CONF_GCLK_GENERATOR_0_CONFIG << GCLK_GENCTRL_GENEN_Pos) | CONF_GCLK_GEN_0_SOURCE);
	}
#endif

#if CONF_GCLK_GENERATOR_1_CONFIG == 1
	if (bm & (1ul << 1)) {
    1c8c:	f010 0f02 	tst.w	r0, #2
    1c90:	d008      	beq.n	1ca4 <_gclk_init_generators_by_fref+0x30>
	((Gclk *)hw)->GENCTRL[index].reg = data;
    1c92:	4a13      	ldr	r2, [pc, #76]	; (1ce0 <_gclk_init_generators_by_fref+0x6c>)
    1c94:	4b11      	ldr	r3, [pc, #68]	; (1cdc <_gclk_init_generators_by_fref+0x68>)
    1c96:	625a      	str	r2, [r3, #36]	; 0x24
	while (((Gclk *)hw)->SYNCBUSY.reg & reg) {
    1c98:	4b10      	ldr	r3, [pc, #64]	; (1cdc <_gclk_init_generators_by_fref+0x68>)
    1c9a:	685a      	ldr	r2, [r3, #4]
    1c9c:	f643 73fd 	movw	r3, #16381	; 0x3ffd
    1ca0:	421a      	tst	r2, r3
    1ca2:	d1f9      	bne.n	1c98 <_gclk_init_generators_by_fref+0x24>
		        | (CONF_GCLK_GENERATOR_1_CONFIG << GCLK_GENCTRL_GENEN_Pos) | CONF_GCLK_GEN_1_SOURCE);
	}
#endif

#if CONF_GCLK_GENERATOR_2_CONFIG == 1
	if (bm & (1ul << 2)) {
    1ca4:	f010 0f04 	tst.w	r0, #4
    1ca8:	d008      	beq.n	1cbc <_gclk_init_generators_by_fref+0x48>
	((Gclk *)hw)->GENCTRL[index].reg = data;
    1caa:	4a0e      	ldr	r2, [pc, #56]	; (1ce4 <_gclk_init_generators_by_fref+0x70>)
    1cac:	4b0b      	ldr	r3, [pc, #44]	; (1cdc <_gclk_init_generators_by_fref+0x68>)
    1cae:	629a      	str	r2, [r3, #40]	; 0x28
	while (((Gclk *)hw)->SYNCBUSY.reg & reg) {
    1cb0:	4b0a      	ldr	r3, [pc, #40]	; (1cdc <_gclk_init_generators_by_fref+0x68>)
    1cb2:	685a      	ldr	r2, [r3, #4]
    1cb4:	f643 73fd 	movw	r3, #16381	; 0x3ffd
    1cb8:	421a      	tst	r2, r3
    1cba:	d1f9      	bne.n	1cb0 <_gclk_init_generators_by_fref+0x3c>
		        | (CONF_GCLK_GENERATOR_2_CONFIG << GCLK_GENCTRL_GENEN_Pos) | CONF_GCLK_GEN_2_SOURCE);
	}
#endif

#if CONF_GCLK_GENERATOR_3_CONFIG == 1
	if (bm & (1ul << 3)) {
    1cbc:	f010 0f08 	tst.w	r0, #8
    1cc0:	d008      	beq.n	1cd4 <_gclk_init_generators_by_fref+0x60>
	((Gclk *)hw)->GENCTRL[index].reg = data;
    1cc2:	4a08      	ldr	r2, [pc, #32]	; (1ce4 <_gclk_init_generators_by_fref+0x70>)
    1cc4:	4b05      	ldr	r3, [pc, #20]	; (1cdc <_gclk_init_generators_by_fref+0x68>)
    1cc6:	62da      	str	r2, [r3, #44]	; 0x2c
	while (((Gclk *)hw)->SYNCBUSY.reg & reg) {
    1cc8:	4b04      	ldr	r3, [pc, #16]	; (1cdc <_gclk_init_generators_by_fref+0x68>)
    1cca:	685a      	ldr	r2, [r3, #4]
    1ccc:	f643 73fd 	movw	r3, #16381	; 0x3ffd
    1cd0:	421a      	tst	r2, r3
    1cd2:	d1f9      	bne.n	1cc8 <_gclk_init_generators_by_fref+0x54>
    1cd4:	4770      	bx	lr
    1cd6:	bf00      	nop
    1cd8:	00012908 	.word	0x00012908
    1cdc:	40001c00 	.word	0x40001c00
    1ce0:	00012906 	.word	0x00012906
    1ce4:	00012904 	.word	0x00012904

00001ce8 <_mclk_init>:
	((Mclk *)hw)->CPUDIV.reg = data;
    1ce8:	2201      	movs	r2, #1
    1cea:	4b01      	ldr	r3, [pc, #4]	; (1cf0 <_mclk_init+0x8>)
    1cec:	715a      	strb	r2, [r3, #5]
    1cee:	4770      	bx	lr
    1cf0:	40000800 	.word	0x40000800

00001cf4 <_nvm_interrupt_handler>:
 * \internal NVM interrupt handler
 *
 * \param[in] p The pointer to interrupt parameter
 */
static void _nvm_interrupt_handler(struct _flash_device *device)
{
    1cf4:	b508      	push	{r3, lr}
	void *const hw = device->hw;
    1cf6:	6903      	ldr	r3, [r0, #16]
	return (((Nvmctrl *)hw)->INTFLAG.reg & NVMCTRL_INTFLAG_DONE) >> NVMCTRL_INTFLAG_DONE_Pos;
    1cf8:	8a1a      	ldrh	r2, [r3, #16]

	if (hri_nvmctrl_get_INTFLAG_DONE_bit(hw)) {
    1cfa:	f012 0f01 	tst.w	r2, #1
    1cfe:	d005      	beq.n	1d0c <_nvm_interrupt_handler+0x18>
	((Nvmctrl *)hw)->INTFLAG.reg = NVMCTRL_INTFLAG_DONE;
    1d00:	2201      	movs	r2, #1
    1d02:	821a      	strh	r2, [r3, #16]
		hri_nvmctrl_clear_INTFLAG_DONE_bit(hw);

		if (NULL != device->flash_cb.ready_cb) {
    1d04:	6803      	ldr	r3, [r0, #0]
    1d06:	b153      	cbz	r3, 1d1e <_nvm_interrupt_handler+0x2a>
			device->flash_cb.ready_cb(device);
    1d08:	4798      	blx	r3
    1d0a:	bd08      	pop	{r3, pc}
	return ((Nvmctrl *)hw)->INTFLAG.reg;
    1d0c:	8a1a      	ldrh	r2, [r3, #16]
    1d0e:	b292      	uxth	r2, r2
		}
	} else if (hri_nvmctrl_read_INTFLAG_reg(hw) && ~NVMCTRL_INTFLAG_ERR) {
    1d10:	b12a      	cbz	r2, 1d1e <_nvm_interrupt_handler+0x2a>
	((Nvmctrl *)hw)->INTFLAG.reg = mask;
    1d12:	f240 225e 	movw	r2, #606	; 0x25e
    1d16:	821a      	strh	r2, [r3, #16]
		hri_nvmctrl_clear_INTFLAG_reg(hw, NVMCTRL_INTFLAG_ERR);

		if (NULL != device->flash_cb.error_cb) {
    1d18:	6843      	ldr	r3, [r0, #4]
    1d1a:	b103      	cbz	r3, 1d1e <_nvm_interrupt_handler+0x2a>
			device->flash_cb.error_cb(device);
    1d1c:	4798      	blx	r3
    1d1e:	bd08      	pop	{r3, pc}

00001d20 <_flash_init>:
{
    1d20:	b538      	push	{r3, r4, r5, lr}
    1d22:	460c      	mov	r4, r1
	ASSERT(device && (hw == NVMCTRL));
    1d24:	4605      	mov	r5, r0
    1d26:	b350      	cbz	r0, 1d7e <_flash_init+0x5e>
    1d28:	4b17      	ldr	r3, [pc, #92]	; (1d88 <_flash_init+0x68>)
    1d2a:	4299      	cmp	r1, r3
    1d2c:	d029      	beq.n	1d82 <_flash_init+0x62>
    1d2e:	2000      	movs	r0, #0
    1d30:	224b      	movs	r2, #75	; 0x4b
    1d32:	4916      	ldr	r1, [pc, #88]	; (1d8c <_flash_init+0x6c>)
    1d34:	4b16      	ldr	r3, [pc, #88]	; (1d90 <_flash_init+0x70>)
    1d36:	4798      	blx	r3
	device->hw = hw;
    1d38:	612c      	str	r4, [r5, #16]
	NVMCTRL_CRITICAL_SECTION_LEAVE();
}

static inline hri_nvmctrl_ctrla_reg_t hri_nvmctrl_read_CTRLA_reg(const void *const hw)
{
	return ((Nvmctrl *)hw)->CTRLA.reg;
    1d3a:	8823      	ldrh	r3, [r4, #0]
	ctrla &= ~(NVMCTRL_CTRLA_CACHEDIS0 | NVMCTRL_CTRLA_CACHEDIS1 | NVMCTRL_CTRLA_PRM_Msk);
    1d3c:	f3c3 030d 	ubfx	r3, r3, #0, #14
    1d40:	f023 03c0 	bic.w	r3, r3, #192	; 0xc0
	hri_nvmctrl_write_CTRLA_reg(hw, ctrla);
    1d44:	b29b      	uxth	r3, r3
	((Nvmctrl *)hw)->CTRLA.reg = data;
    1d46:	8023      	strh	r3, [r4, #0]
	_nvm_dev = device;
    1d48:	4b12      	ldr	r3, [pc, #72]	; (1d94 <_flash_init+0x74>)
    1d4a:	601d      	str	r5, [r3, #0]
 */
__STATIC_INLINE void __NVIC_DisableIRQ(IRQn_Type IRQn)
{
  if ((int32_t)(IRQn) >= 0)
  {
    NVIC->ICER[(((uint32_t)IRQn) >> 5UL)] = (uint32_t)(1UL << (((uint32_t)IRQn) & 0x1FUL));
    1d4c:	4b12      	ldr	r3, [pc, #72]	; (1d98 <_flash_init+0x78>)
    1d4e:	f04f 5100 	mov.w	r1, #536870912	; 0x20000000
    1d52:	f8c3 1080 	str.w	r1, [r3, #128]	; 0x80
  __ASM volatile ("dsb 0xF":::"memory");
    1d56:	f3bf 8f4f 	dsb	sy
  __ASM volatile ("isb 0xF":::"memory");
    1d5a:	f3bf 8f6f 	isb	sy
    1d5e:	f04f 4280 	mov.w	r2, #1073741824	; 0x40000000
    1d62:	f8c3 2080 	str.w	r2, [r3, #128]	; 0x80
  __ASM volatile ("dsb 0xF":::"memory");
    1d66:	f3bf 8f4f 	dsb	sy
  __ASM volatile ("isb 0xF":::"memory");
    1d6a:	f3bf 8f6f 	isb	sy
 */
__STATIC_INLINE void __NVIC_ClearPendingIRQ(IRQn_Type IRQn)
{
  if ((int32_t)(IRQn) >= 0)
  {
    NVIC->ICPR[(((uint32_t)IRQn) >> 5UL)] = (uint32_t)(1UL << (((uint32_t)IRQn) & 0x1FUL));
    1d6e:	f8c3 1180 	str.w	r1, [r3, #384]	; 0x180
    1d72:	f8c3 2180 	str.w	r2, [r3, #384]	; 0x180
    NVIC->ISER[(((uint32_t)IRQn) >> 5UL)] = (uint32_t)(1UL << (((uint32_t)IRQn) & 0x1FUL));
    1d76:	6019      	str	r1, [r3, #0]
    1d78:	601a      	str	r2, [r3, #0]
}
    1d7a:	2000      	movs	r0, #0
    1d7c:	bd38      	pop	{r3, r4, r5, pc}
	ASSERT(device && (hw == NVMCTRL));
    1d7e:	2000      	movs	r0, #0
    1d80:	e7d6      	b.n	1d30 <_flash_init+0x10>
    1d82:	2001      	movs	r0, #1
    1d84:	e7d4      	b.n	1d30 <_flash_init+0x10>
    1d86:	bf00      	nop
    1d88:	41004000 	.word	0x41004000
    1d8c:	00006fc8 	.word	0x00006fc8
    1d90:	0000182d 	.word	0x0000182d
    1d94:	20000574 	.word	0x20000574
    1d98:	e000e100 	.word	0xe000e100

00001d9c <NVMCTRL_0_Handler>:

/**
 * \internal NVM 0 interrupt handler
 */
void NVMCTRL_0_Handler(void)
{
    1d9c:	b508      	push	{r3, lr}
	_nvm_interrupt_handler(_nvm_dev);
    1d9e:	4b02      	ldr	r3, [pc, #8]	; (1da8 <NVMCTRL_0_Handler+0xc>)
    1da0:	6818      	ldr	r0, [r3, #0]
    1da2:	4b02      	ldr	r3, [pc, #8]	; (1dac <NVMCTRL_0_Handler+0x10>)
    1da4:	4798      	blx	r3
    1da6:	bd08      	pop	{r3, pc}
    1da8:	20000574 	.word	0x20000574
    1dac:	00001cf5 	.word	0x00001cf5

00001db0 <NVMCTRL_1_Handler>:

/**
 * \internal NVM 1 interrupt handler
 */
void NVMCTRL_1_Handler(void)
{
    1db0:	b508      	push	{r3, lr}
	_nvm_interrupt_handler(_nvm_dev);
    1db2:	4b02      	ldr	r3, [pc, #8]	; (1dbc <NVMCTRL_1_Handler+0xc>)
    1db4:	6818      	ldr	r0, [r3, #0]
    1db6:	4b02      	ldr	r3, [pc, #8]	; (1dc0 <NVMCTRL_1_Handler+0x10>)
    1db8:	4798      	blx	r3
    1dba:	bd08      	pop	{r3, pc}
    1dbc:	20000574 	.word	0x20000574
    1dc0:	00001cf5 	.word	0x00001cf5

00001dc4 <_osc32kctrl_init_sources>:
}

static inline void hri_osc32kctrl_write_XOSC32K_reg(const void *const hw, hri_osc32kctrl_xosc32k_reg_t data)
{
	OSC32KCTRL_CRITICAL_SECTION_ENTER();
	((Osc32kctrl *)hw)->XOSC32K.reg = data;
    1dc4:	4b06      	ldr	r3, [pc, #24]	; (1de0 <_osc32kctrl_init_sources+0x1c>)
    1dc6:	f242 028a 	movw	r2, #8330	; 0x208a
    1dca:	829a      	strh	r2, [r3, #20]
}

static inline void hri_osc32kctrl_write_CFDCTRL_reg(const void *const hw, hri_osc32kctrl_cfdctrl_reg_t data)
{
	OSC32KCTRL_CRITICAL_SECTION_ENTER();
	((Osc32kctrl *)hw)->CFDCTRL.reg = data;
    1dcc:	2200      	movs	r2, #0
    1dce:	759a      	strb	r2, [r3, #22]
}

static inline void hri_osc32kctrl_write_EVCTRL_reg(const void *const hw, hri_osc32kctrl_evctrl_reg_t data)
{
	OSC32KCTRL_CRITICAL_SECTION_ENTER();
	((Osc32kctrl *)hw)->EVCTRL.reg = data;
    1dd0:	75da      	strb	r2, [r3, #23]
}

static inline hri_osc32kctrl_osculp32k_reg_t hri_osc32kctrl_read_OSCULP32K_CALIB_bf(const void *const hw)
{
	uint32_t tmp;
	tmp = ((Osc32kctrl *)hw)->OSCULP32K.reg;
    1dd2:	69d9      	ldr	r1, [r3, #28]
	calib = hri_osc32kctrl_read_OSCULP32K_CALIB_bf(hw);
	hri_osc32kctrl_write_OSCULP32K_reg(hw,
#if CONF_OSCULP32K_CALIB_ENABLE == 1
	                                   OSC32KCTRL_OSCULP32K_CALIB(CONF_OSCULP32K_CALIB)
#else
	                                   OSC32KCTRL_OSCULP32K_CALIB(calib)
    1dd4:	f401 517c 	and.w	r1, r1, #16128	; 0x3f00
}

static inline void hri_osc32kctrl_write_OSCULP32K_reg(const void *const hw, hri_osc32kctrl_osculp32k_reg_t data)
{
	OSC32KCTRL_CRITICAL_SECTION_ENTER();
	((Osc32kctrl *)hw)->OSCULP32K.reg = data;
    1dd8:	61d9      	str	r1, [r3, #28]
	((Osc32kctrl *)hw)->RTCCTRL.reg = data;
    1dda:	741a      	strb	r2, [r3, #16]
    1ddc:	4770      	bx	lr
    1dde:	bf00      	nop
    1de0:	40001400 	.word	0x40001400

00001de4 <_oscctrl_init_sources>:

/**
 * \brief Initialize clock sources
 */
void _oscctrl_init_sources(void)
{
    1de4:	4770      	bx	lr
	...

00001de8 <_oscctrl_init_referenced_generators>:
	tmp = ((Gclk *)hw)->GENCTRL[index].reg;
    1de8:	4a47      	ldr	r2, [pc, #284]	; (1f08 <_oscctrl_init_referenced_generators+0x120>)
    1dea:	6a13      	ldr	r3, [r2, #32]
	tmp &= ~GCLK_GENCTRL_SRC_Msk;
    1dec:	f023 030f 	bic.w	r3, r3, #15
	tmp |= GCLK_GENCTRL_SRC(data);
    1df0:	f043 0304 	orr.w	r3, r3, #4
	((Gclk *)hw)->GENCTRL[index].reg = tmp;
    1df4:	6213      	str	r3, [r2, #32]
	while (((Gclk *)hw)->SYNCBUSY.reg & reg) {
    1df6:	4b44      	ldr	r3, [pc, #272]	; (1f08 <_oscctrl_init_referenced_generators+0x120>)
    1df8:	685a      	ldr	r2, [r3, #4]
    1dfa:	f643 73fd 	movw	r3, #16381	; 0x3ffd
    1dfe:	421a      	tst	r2, r3
    1e00:	d1f9      	bne.n	1df6 <_oscctrl_init_referenced_generators+0xe>
	return (((Gclk *)hw)->SYNCBUSY.reg & GCLK_SYNCBUSY_GENCTRL0) >> GCLK_SYNCBUSY_GENCTRL0_Pos;
    1e02:	4b41      	ldr	r3, [pc, #260]	; (1f08 <_oscctrl_init_referenced_generators+0x120>)
    1e04:	685b      	ldr	r3, [r3, #4]
{
	void *hw = (void *)OSCCTRL;

#if CONF_DFLL_CONFIG == 1
	hri_gclk_write_GENCTRL_SRC_bf(GCLK, 0, GCLK_GENCTRL_SRC_OSCULP32K);
	while (hri_gclk_get_SYNCBUSY_GENCTRL0_bit(GCLK))
    1e06:	f013 0f04 	tst.w	r3, #4
    1e0a:	d1fa      	bne.n	1e02 <_oscctrl_init_referenced_generators+0x1a>
}

static inline void hri_oscctrl_write_DFLLCTRLA_reg(const void *const hw, hri_oscctrl_dfllctrla_reg_t data)
{
	OSCCTRL_CRITICAL_SECTION_ENTER();
	((Oscctrl *)hw)->DFLLCTRLA.reg = data;
    1e0c:	4b3f      	ldr	r3, [pc, #252]	; (1f0c <_oscctrl_init_referenced_generators+0x124>)
    1e0e:	2200      	movs	r2, #0
    1e10:	771a      	strb	r2, [r3, #28]
}

static inline void hri_oscctrl_write_DFLLMUL_reg(const void *const hw, hri_oscctrl_dfllmul_reg_t data)
{
	OSCCTRL_CRITICAL_SECTION_ENTER();
	((Oscctrl *)hw)->DFLLMUL.reg = data;
    1e12:	4a3f      	ldr	r2, [pc, #252]	; (1f10 <_oscctrl_init_referenced_generators+0x128>)
    1e14:	629a      	str	r2, [r3, #40]	; 0x28
}

static inline bool hri_oscctrl_get_DFLLSYNC_DFLLMUL_bit(const void *const hw)
{
	uint8_t tmp;
	tmp = ((Oscctrl *)hw)->DFLLSYNC.reg;
    1e16:	4b3d      	ldr	r3, [pc, #244]	; (1f0c <_oscctrl_init_referenced_generators+0x124>)
    1e18:	f893 302c 	ldrb.w	r3, [r3, #44]	; 0x2c
#endif

	hri_oscctrl_write_DFLLMUL_reg(hw,
	                              OSCCTRL_DFLLMUL_CSTEP(CONF_DFLL_CSTEP) | OSCCTRL_DFLLMUL_FSTEP(CONF_DFLL_FSTEP)
	                                  | OSCCTRL_DFLLMUL_MUL(CONF_DFLL_MUL));
	while (hri_oscctrl_get_DFLLSYNC_DFLLMUL_bit(hw))
    1e1c:	f013 0f10 	tst.w	r3, #16
    1e20:	d1f9      	bne.n	1e16 <_oscctrl_init_referenced_generators+0x2e>
	((Oscctrl *)hw)->DFLLCTRLB.reg = data;
    1e22:	2200      	movs	r2, #0
    1e24:	4b39      	ldr	r3, [pc, #228]	; (1f0c <_oscctrl_init_referenced_generators+0x124>)
    1e26:	f883 2020 	strb.w	r2, [r3, #32]
	tmp = ((Oscctrl *)hw)->DFLLSYNC.reg;
    1e2a:	4b38      	ldr	r3, [pc, #224]	; (1f0c <_oscctrl_init_referenced_generators+0x124>)
    1e2c:	f893 302c 	ldrb.w	r3, [r3, #44]	; 0x2c
		;

	hri_oscctrl_write_DFLLCTRLB_reg(hw, 0);
	while (hri_oscctrl_get_DFLLSYNC_DFLLCTRLB_bit(hw))
    1e30:	f013 0f04 	tst.w	r3, #4
    1e34:	d1f9      	bne.n	1e2a <_oscctrl_init_referenced_generators+0x42>
	((Oscctrl *)hw)->DFLLCTRLA.reg = data;
    1e36:	2202      	movs	r2, #2
    1e38:	4b34      	ldr	r3, [pc, #208]	; (1f0c <_oscctrl_init_referenced_generators+0x124>)
    1e3a:	771a      	strb	r2, [r3, #28]
	tmp = ((Oscctrl *)hw)->DFLLSYNC.reg;
    1e3c:	4b33      	ldr	r3, [pc, #204]	; (1f0c <_oscctrl_init_referenced_generators+0x124>)
    1e3e:	f893 302c 	ldrb.w	r3, [r3, #44]	; 0x2c
		;

	tmp = (CONF_DFLL_RUNSTDBY << OSCCTRL_DFLLCTRLA_RUNSTDBY_Pos) | OSCCTRL_DFLLCTRLA_ENABLE;
	hri_oscctrl_write_DFLLCTRLA_reg(hw, tmp);
	while (hri_oscctrl_get_DFLLSYNC_ENABLE_bit(hw))
    1e42:	f013 0f02 	tst.w	r3, #2
    1e46:	d1f9      	bne.n	1e3c <_oscctrl_init_referenced_generators+0x54>
	return ((Oscctrl *)hw)->DFLLVAL.reg;
    1e48:	4b30      	ldr	r3, [pc, #192]	; (1f0c <_oscctrl_init_referenced_generators+0x124>)
    1e4a:	6a5a      	ldr	r2, [r3, #36]	; 0x24
	((Oscctrl *)hw)->DFLLVAL.reg = data;
    1e4c:	625a      	str	r2, [r3, #36]	; 0x24
	tmp = ((Oscctrl *)hw)->DFLLSYNC.reg;
    1e4e:	4b2f      	ldr	r3, [pc, #188]	; (1f0c <_oscctrl_init_referenced_generators+0x124>)
    1e50:	f893 302c 	ldrb.w	r3, [r3, #44]	; 0x2c

#if CONF_DFLL_OVERWRITE_CALIBRATION == 1
	hri_oscctrl_write_DFLLVAL_reg(hw, OSCCTRL_DFLLVAL_COARSE(CONF_DFLL_COARSE) | OSCCTRL_DFLLVAL_FINE(CONF_DFLL_FINE));
#endif
	hri_oscctrl_write_DFLLVAL_reg(hw, hri_oscctrl_read_DFLLVAL_reg(hw));
	while (hri_oscctrl_get_DFLLSYNC_DFLLVAL_bit(hw))
    1e54:	f013 0f08 	tst.w	r3, #8
    1e58:	d1f9      	bne.n	1e4e <_oscctrl_init_referenced_generators+0x66>
	((Oscctrl *)hw)->DFLLCTRLB.reg = data;
    1e5a:	2298      	movs	r2, #152	; 0x98
    1e5c:	4b2b      	ldr	r3, [pc, #172]	; (1f0c <_oscctrl_init_referenced_generators+0x124>)
    1e5e:	f883 2020 	strb.w	r2, [r3, #32]
	tmp = ((Oscctrl *)hw)->DFLLSYNC.reg;
    1e62:	4b2a      	ldr	r3, [pc, #168]	; (1f0c <_oscctrl_init_referenced_generators+0x124>)
    1e64:	f893 302c 	ldrb.w	r3, [r3, #44]	; 0x2c
	tmp = (CONF_DFLL_WAITLOCK << OSCCTRL_DFLLCTRLB_WAITLOCK_Pos) | (CONF_DFLL_BPLCKC << OSCCTRL_DFLLCTRLB_BPLCKC_Pos)
	      | (CONF_DFLL_QLDIS << OSCCTRL_DFLLCTRLB_QLDIS_Pos) | (CONF_DFLL_CCDIS << OSCCTRL_DFLLCTRLB_CCDIS_Pos)
	      | (CONF_DFLL_USBCRM << OSCCTRL_DFLLCTRLB_USBCRM_Pos) | (CONF_DFLL_LLAW << OSCCTRL_DFLLCTRLB_LLAW_Pos)
	      | (CONF_DFLL_STABLE << OSCCTRL_DFLLCTRLB_STABLE_Pos) | (CONF_DFLL_MODE << OSCCTRL_DFLLCTRLB_MODE_Pos) | 0;
	hri_oscctrl_write_DFLLCTRLB_reg(hw, tmp);
	while (hri_oscctrl_get_DFLLSYNC_DFLLCTRLB_bit(hw))
    1e68:	f013 0f04 	tst.w	r3, #4
    1e6c:	d1f9      	bne.n	1e62 <_oscctrl_init_referenced_generators+0x7a>
	((Gclk *)hw)->PCHCTRL[index].reg = data;
    1e6e:	2242      	movs	r2, #66	; 0x42
    1e70:	4b25      	ldr	r3, [pc, #148]	; (1f08 <_oscctrl_init_referenced_generators+0x120>)
    1e72:	f8c3 2088 	str.w	r2, [r3, #136]	; 0x88
	((Oscctrl *)hw)->Dpll[submodule_index].DPLLRATIO.reg = data;
    1e76:	4a27      	ldr	r2, [pc, #156]	; (1f14 <_oscctrl_init_referenced_generators+0x12c>)
    1e78:	f5a3 6340 	sub.w	r3, r3, #3072	; 0xc00
    1e7c:	649a      	str	r2, [r3, #72]	; 0x48
	while (((Oscctrl *)hw)->Dpll[submodule_index].DPLLSYNCBUSY.reg & reg) {
    1e7e:	4b23      	ldr	r3, [pc, #140]	; (1f0c <_oscctrl_init_referenced_generators+0x124>)
    1e80:	6d1b      	ldr	r3, [r3, #80]	; 0x50
    1e82:	f013 0f06 	tst.w	r3, #6
    1e86:	d1fa      	bne.n	1e7e <_oscctrl_init_referenced_generators+0x96>
	((Oscctrl *)hw)->Dpll[submodule_index].DPLLCTRLB.reg = data;
    1e88:	4b20      	ldr	r3, [pc, #128]	; (1f0c <_oscctrl_init_referenced_generators+0x124>)
    1e8a:	f44f 6201 	mov.w	r2, #2064	; 0x810
    1e8e:	64da      	str	r2, [r3, #76]	; 0x4c
	((Oscctrl *)hw)->Dpll[submodule_index].DPLLCTRLA.reg = data;
    1e90:	2202      	movs	r2, #2
    1e92:	f883 2044 	strb.w	r2, [r3, #68]	; 0x44
	while (((Oscctrl *)hw)->Dpll[submodule_index].DPLLSYNCBUSY.reg & reg) {
    1e96:	4b1d      	ldr	r3, [pc, #116]	; (1f0c <_oscctrl_init_referenced_generators+0x124>)
    1e98:	6d1b      	ldr	r3, [r3, #80]	; 0x50
    1e9a:	f013 0f02 	tst.w	r3, #2
    1e9e:	d1fa      	bne.n	1e96 <_oscctrl_init_referenced_generators+0xae>
	tmp = ((Oscctrl *)hw)->DFLLCTRLB.reg;
    1ea0:	4b1a      	ldr	r3, [pc, #104]	; (1f0c <_oscctrl_init_referenced_generators+0x124>)
    1ea2:	f893 3020 	ldrb.w	r3, [r3, #32]
	                                (CONF_FDPLL1_RUNSTDBY << OSCCTRL_DPLLCTRLA_RUNSTDBY_Pos)
	                                    | (CONF_FDPLL1_ENABLE << OSCCTRL_DPLLCTRLA_ENABLE_Pos));
#endif

#if CONF_DFLL_CONFIG == 1
	if (hri_oscctrl_get_DFLLCTRLB_MODE_bit(hw)) {
    1ea6:	f013 0f01 	tst.w	r3, #1
    1eaa:	d027      	beq.n	1efc <_oscctrl_init_referenced_generators+0x114>
	tmp = ((Oscctrl *)hw)->STATUS.reg;
    1eac:	4b17      	ldr	r3, [pc, #92]	; (1f0c <_oscctrl_init_referenced_generators+0x124>)
    1eae:	691b      	ldr	r3, [r3, #16]
	tmp &= mask;
    1eb0:	f403 6310 	and.w	r3, r3, #2304	; 0x900
		hri_oscctrl_status_reg_t status_mask = OSCCTRL_STATUS_DFLLRDY | OSCCTRL_STATUS_DFLLLCKC;

		while (hri_oscctrl_get_STATUS_reg(hw, status_mask) != status_mask)
    1eb4:	f5b3 6f10 	cmp.w	r3, #2304	; 0x900
    1eb8:	d1f8      	bne.n	1eac <_oscctrl_init_referenced_generators+0xc4>
	return (((Oscctrl *)hw)->Dpll[submodule_index].DPLLSTATUS.reg & OSCCTRL_DPLLSTATUS_LOCK)
    1eba:	4b14      	ldr	r3, [pc, #80]	; (1f0c <_oscctrl_init_referenced_generators+0x124>)
    1ebc:	6d5b      	ldr	r3, [r3, #84]	; 0x54
#endif
#endif

#if CONF_FDPLL1_CONFIG == 1
#if CONF_FDPLL1_ENABLE == 1
	while (!(hri_oscctrl_get_DPLLSTATUS_LOCK_bit(hw, 1) || hri_oscctrl_get_DPLLSTATUS_CLKRDY_bit(hw, 1)))
    1ebe:	f013 0f01 	tst.w	r3, #1
    1ec2:	d104      	bne.n	1ece <_oscctrl_init_referenced_generators+0xe6>
	return (((Oscctrl *)hw)->Dpll[submodule_index].DPLLSTATUS.reg & OSCCTRL_DPLLSTATUS_CLKRDY)
    1ec4:	4b11      	ldr	r3, [pc, #68]	; (1f0c <_oscctrl_init_referenced_generators+0x124>)
    1ec6:	6d5b      	ldr	r3, [r3, #84]	; 0x54
    1ec8:	f013 0f02 	tst.w	r3, #2
    1ecc:	d0f5      	beq.n	1eba <_oscctrl_init_referenced_generators+0xd2>
	return ((Gclk *)hw)->SYNCBUSY.reg;
    1ece:	4b0e      	ldr	r3, [pc, #56]	; (1f08 <_oscctrl_init_referenced_generators+0x120>)
    1ed0:	685b      	ldr	r3, [r3, #4]
	hri_oscctrl_set_DPLLCTRLA_ONDEMAND_bit(hw, 1);
#endif
#endif

#if CONF_DFLL_CONFIG == 1
	while (hri_gclk_read_SYNCBUSY_reg(GCLK))
    1ed2:	2b00      	cmp	r3, #0
    1ed4:	d1fb      	bne.n	1ece <_oscctrl_init_referenced_generators+0xe6>
	tmp = ((Gclk *)hw)->GENCTRL[index].reg;
    1ed6:	4a0c      	ldr	r2, [pc, #48]	; (1f08 <_oscctrl_init_referenced_generators+0x120>)
    1ed8:	6a13      	ldr	r3, [r2, #32]
	tmp &= ~GCLK_GENCTRL_SRC_Msk;
    1eda:	f023 030f 	bic.w	r3, r3, #15
	tmp |= GCLK_GENCTRL_SRC(data);
    1ede:	f043 0308 	orr.w	r3, r3, #8
	((Gclk *)hw)->GENCTRL[index].reg = tmp;
    1ee2:	6213      	str	r3, [r2, #32]
	while (((Gclk *)hw)->SYNCBUSY.reg & reg) {
    1ee4:	4b08      	ldr	r3, [pc, #32]	; (1f08 <_oscctrl_init_referenced_generators+0x120>)
    1ee6:	685a      	ldr	r2, [r3, #4]
    1ee8:	f643 73fd 	movw	r3, #16381	; 0x3ffd
    1eec:	421a      	tst	r2, r3
    1eee:	d1f9      	bne.n	1ee4 <_oscctrl_init_referenced_generators+0xfc>
	return (((Gclk *)hw)->SYNCBUSY.reg & GCLK_SYNCBUSY_GENCTRL0) >> GCLK_SYNCBUSY_GENCTRL0_Pos;
    1ef0:	4b05      	ldr	r3, [pc, #20]	; (1f08 <_oscctrl_init_referenced_generators+0x120>)
    1ef2:	685b      	ldr	r3, [r3, #4]
		;
	hri_gclk_write_GENCTRL_SRC_bf(GCLK, 0, CONF_GCLK_GEN_0_SOURCE);
	while (hri_gclk_get_SYNCBUSY_GENCTRL0_bit(GCLK))
    1ef4:	f013 0f04 	tst.w	r3, #4
    1ef8:	d1fa      	bne.n	1ef0 <_oscctrl_init_referenced_generators+0x108>
		;
#endif
	(void)hw;
}
    1efa:	4770      	bx	lr
	return (((Oscctrl *)hw)->STATUS.reg & OSCCTRL_STATUS_DFLLRDY) >> OSCCTRL_STATUS_DFLLRDY_Pos;
    1efc:	4b03      	ldr	r3, [pc, #12]	; (1f0c <_oscctrl_init_referenced_generators+0x124>)
    1efe:	691b      	ldr	r3, [r3, #16]
		while (!hri_oscctrl_get_STATUS_DFLLRDY_bit(hw))
    1f00:	f413 7f80 	tst.w	r3, #256	; 0x100
    1f04:	d0fa      	beq.n	1efc <_oscctrl_init_referenced_generators+0x114>
    1f06:	e7d8      	b.n	1eba <_oscctrl_init_referenced_generators+0xd2>
    1f08:	40001c00 	.word	0x40001c00
    1f0c:	40001000 	.word	0x40001000
    1f10:	04010000 	.word	0x04010000
    1f14:	00010e50 	.word	0x00010e50

00001f18 <RAMECC_Handler>:

/**
 * \internal RAMECC interrupt handler
 */
void RAMECC_Handler(void)
{
    1f18:	b500      	push	{lr}
    1f1a:	b083      	sub	sp, #12
	return tmp;
}

static inline hri_ramecc_intflag_reg_t hri_ramecc_read_INTFLAG_reg(const void *const hw)
{
	return ((Ramecc *)hw)->INTFLAG.reg;
    1f1c:	4b0d      	ldr	r3, [pc, #52]	; (1f54 <RAMECC_Handler+0x3c>)
    1f1e:	789b      	ldrb	r3, [r3, #2]
    1f20:	b2db      	uxtb	r3, r3
	struct _ramecc_device *dev      = (struct _ramecc_device *)&device;
	volatile uint32_t      int_mask = hri_ramecc_read_INTFLAG_reg(RAMECC);
    1f22:	9301      	str	r3, [sp, #4]

	if (int_mask & RAMECC_INTFLAG_DUALE && dev->ramecc_cb.dual_bit_err) {
    1f24:	9b01      	ldr	r3, [sp, #4]
    1f26:	f013 0f02 	tst.w	r3, #2
    1f2a:	d006      	beq.n	1f3a <RAMECC_Handler+0x22>
    1f2c:	4b0a      	ldr	r3, [pc, #40]	; (1f58 <RAMECC_Handler+0x40>)
    1f2e:	681b      	ldr	r3, [r3, #0]
    1f30:	b11b      	cbz	r3, 1f3a <RAMECC_Handler+0x22>
	return tmp;
}

static inline hri_ramecc_erraddr_reg_t hri_ramecc_read_ERRADDR_reg(const void *const hw)
{
	return ((Ramecc *)hw)->ERRADDR.reg;
    1f32:	4a08      	ldr	r2, [pc, #32]	; (1f54 <RAMECC_Handler+0x3c>)
    1f34:	6850      	ldr	r0, [r2, #4]
		dev->ramecc_cb.dual_bit_err((uint32_t)hri_ramecc_read_ERRADDR_reg(RAMECC));
    1f36:	4798      	blx	r3
    1f38:	e009      	b.n	1f4e <RAMECC_Handler+0x36>
	} else if (int_mask & RAMECC_INTFLAG_SINGLEE && dev->ramecc_cb.single_bit_err) {
    1f3a:	9b01      	ldr	r3, [sp, #4]
    1f3c:	f013 0f01 	tst.w	r3, #1
    1f40:	d005      	beq.n	1f4e <RAMECC_Handler+0x36>
    1f42:	4b05      	ldr	r3, [pc, #20]	; (1f58 <RAMECC_Handler+0x40>)
    1f44:	685b      	ldr	r3, [r3, #4]
    1f46:	b113      	cbz	r3, 1f4e <RAMECC_Handler+0x36>
    1f48:	4a02      	ldr	r2, [pc, #8]	; (1f54 <RAMECC_Handler+0x3c>)
    1f4a:	6850      	ldr	r0, [r2, #4]
		dev->ramecc_cb.single_bit_err((uint32_t)hri_ramecc_read_ERRADDR_reg(RAMECC));
    1f4c:	4798      	blx	r3
	} else {
		return;
	}
}
    1f4e:	b003      	add	sp, #12
    1f50:	f85d fb04 	ldr.w	pc, [sp], #4
    1f54:	41020000 	.word	0x41020000
    1f58:	20000d58 	.word	0x20000d58

00001f5c <_rtc_timer_interrupt_handler>:
 * \param[in] p The pointer to calendar device struct
 */
static void _rtc_timer_interrupt_handler(struct _timer_device *dev)
{
	/* Read and mask interrupt flag register */
	uint16_t flag = hri_rtcmode0_read_INTFLAG_reg(dev->hw);
    1f5c:	68c3      	ldr	r3, [r0, #12]
	return tmp;
}

static inline hri_rtcmode0_intflag_reg_t hri_rtcmode0_read_INTFLAG_reg(const void *const hw)
{
	return ((Rtc *)hw)->MODE0.INTFLAG.reg;
    1f5e:	899b      	ldrh	r3, [r3, #12]

	if (flag & RTC_MODE0_INTFLAG_CMP0) {
    1f60:	f413 7f80 	tst.w	r3, #256	; 0x100
    1f64:	d009      	beq.n	1f7a <_rtc_timer_interrupt_handler+0x1e>
{
    1f66:	b510      	push	{r4, lr}
    1f68:	4604      	mov	r4, r0
		if (dev->timer_cb.period_expired) {
    1f6a:	6803      	ldr	r3, [r0, #0]
    1f6c:	b103      	cbz	r3, 1f70 <_rtc_timer_interrupt_handler+0x14>
			dev->timer_cb.period_expired(dev);
    1f6e:	4798      	blx	r3
		}
		/* Clear interrupt flag */
		hri_rtcmode0_clear_interrupt_CMP0_bit(dev->hw);
    1f70:	68e3      	ldr	r3, [r4, #12]
	((Rtc *)hw)->MODE0.INTFLAG.reg = RTC_MODE0_INTFLAG_CMP0;
    1f72:	f44f 7280 	mov.w	r2, #256	; 0x100
    1f76:	819a      	strh	r2, [r3, #12]
    1f78:	bd10      	pop	{r4, pc}
    1f7a:	4770      	bx	lr

00001f7c <_timer_init>:
{
    1f7c:	b538      	push	{r3, r4, r5, lr}
    1f7e:	460d      	mov	r5, r1
	ASSERT(dev);
    1f80:	4604      	mov	r4, r0
    1f82:	2230      	movs	r2, #48	; 0x30
    1f84:	4914      	ldr	r1, [pc, #80]	; (1fd8 <_timer_init+0x5c>)
    1f86:	3000      	adds	r0, #0
    1f88:	bf18      	it	ne
    1f8a:	2001      	movne	r0, #1
    1f8c:	4b13      	ldr	r3, [pc, #76]	; (1fdc <_timer_init+0x60>)
    1f8e:	4798      	blx	r3
	dev->hw = hw;
    1f90:	60e5      	str	r5, [r4, #12]
}

static inline void hri_rtcmode0_write_CTRLA_reg(const void *const hw, hri_rtcmode0_ctrla_reg_t data)
{
	RTC_CRITICAL_SECTION_ENTER();
	((Rtc *)hw)->MODE0.CTRLA.reg = data;
    1f92:	2301      	movs	r3, #1
    1f94:	802b      	strh	r3, [r5, #0]
	while (((Rtc *)hw)->MODE0.SYNCBUSY.reg & reg) {
    1f96:	692a      	ldr	r2, [r5, #16]
    1f98:	f248 0303 	movw	r3, #32771	; 0x8003
    1f9c:	421a      	tst	r2, r3
    1f9e:	d1fa      	bne.n	1f96 <_timer_init+0x1a>
	hri_rtcmode0_wait_for_sync(dev->hw, RTC_MODE0_SYNCBUSY_SWRST);
    1fa0:	68e3      	ldr	r3, [r4, #12]
    1fa2:	691a      	ldr	r2, [r3, #16]
    1fa4:	f012 0f01 	tst.w	r2, #1
    1fa8:	d1fb      	bne.n	1fa2 <_timer_init+0x26>
	((Rtc *)hw)->MODE0.CTRLA.reg = data;
    1faa:	f248 0280 	movw	r2, #32896	; 0x8080
    1fae:	801a      	strh	r2, [r3, #0]
	while (((Rtc *)hw)->MODE0.SYNCBUSY.reg & reg) {
    1fb0:	6919      	ldr	r1, [r3, #16]
    1fb2:	f248 0203 	movw	r2, #32771	; 0x8003
    1fb6:	4211      	tst	r1, r2
    1fb8:	d1fa      	bne.n	1fb0 <_timer_init+0x34>
	hri_rtcmode0_write_COMP_reg(dev->hw, 0, CONF_RTC_COMP_VAL);
    1fba:	68e2      	ldr	r2, [r4, #12]
}

static inline void hri_rtcmode0_write_COMP_reg(const void *const hw, uint8_t index, hri_rtcmode0_comp_reg_t data)
{
	RTC_CRITICAL_SECTION_ENTER();
	((Rtc *)hw)->MODE0.COMP[index].reg = data;
    1fbc:	2320      	movs	r3, #32
    1fbe:	6213      	str	r3, [r2, #32]
	while (((Rtc *)hw)->MODE0.SYNCBUSY.reg & reg) {
    1fc0:	6913      	ldr	r3, [r2, #16]
    1fc2:	f013 0f60 	tst.w	r3, #96	; 0x60
    1fc6:	d1fb      	bne.n	1fc0 <_timer_init+0x44>
	hri_rtcmode0_set_INTEN_CMP0_bit(dev->hw);
    1fc8:	68e3      	ldr	r3, [r4, #12]
	((Rtc *)hw)->MODE0.INTENSET.reg = RTC_MODE0_INTENSET_CMP0;
    1fca:	f44f 7280 	mov.w	r2, #256	; 0x100
    1fce:	815a      	strh	r2, [r3, #10]
	_rtc_dev = dev;
    1fd0:	4b03      	ldr	r3, [pc, #12]	; (1fe0 <_timer_init+0x64>)
    1fd2:	601c      	str	r4, [r3, #0]
}
    1fd4:	2000      	movs	r0, #0
    1fd6:	bd38      	pop	{r3, r4, r5, pc}
    1fd8:	00006fec 	.word	0x00006fec
    1fdc:	0000182d 	.word	0x0000182d
    1fe0:	20000578 	.word	0x20000578

00001fe4 <_rtc_get_timer>:
 * \brief Retrieve timer helper functions
 */
struct _timer_hpl_interface *_rtc_get_timer(void)
{
	return NULL;
}
    1fe4:	2000      	movs	r0, #0
    1fe6:	4770      	bx	lr

00001fe8 <RTC_Handler>:

/**
 * \brief Rtc interrupt handler
 */
void RTC_Handler(void)
{
    1fe8:	b508      	push	{r3, lr}
	_rtc_timer_interrupt_handler(_rtc_dev);
    1fea:	4b02      	ldr	r3, [pc, #8]	; (1ff4 <RTC_Handler+0xc>)
    1fec:	6818      	ldr	r0, [r3, #0]
    1fee:	4b02      	ldr	r3, [pc, #8]	; (1ff8 <RTC_Handler+0x10>)
    1ff0:	4798      	blx	r3
    1ff2:	bd08      	pop	{r3, pc}
    1ff4:	20000578 	.word	0x20000578
    1ff8:	00001f5d 	.word	0x00001f5d

00001ffc <_sercom_get_hardware_index>:

/**
 * \brief Retrieve ordinal number of the given sercom hardware instance
 */
static uint8_t _sercom_get_hardware_index(const void *const hw)
{
    1ffc:	b470      	push	{r4, r5, r6}
    1ffe:	b087      	sub	sp, #28
    2000:	4606      	mov	r6, r0
	Sercom *const sercom_modules[] = SERCOM_INSTS;
    2002:	466c      	mov	r4, sp
    2004:	4d0c      	ldr	r5, [pc, #48]	; (2038 <_sercom_get_hardware_index+0x3c>)
    2006:	cd0f      	ldmia	r5!, {r0, r1, r2, r3}
    2008:	c40f      	stmia	r4!, {r0, r1, r2, r3}
    200a:	e895 0003 	ldmia.w	r5, {r0, r1}
    200e:	e884 0003 	stmia.w	r4, {r0, r1}
	/* Find index for SERCOM instance. */
	for (uint32_t i = 0; i < SERCOM_INST_NUM; i++) {
    2012:	2000      	movs	r0, #0
    2014:	2805      	cmp	r0, #5
    2016:	d80a      	bhi.n	202e <_sercom_get_hardware_index+0x32>
		if ((uint32_t)hw == (uint32_t)sercom_modules[i]) {
    2018:	ab06      	add	r3, sp, #24
    201a:	eb03 0380 	add.w	r3, r3, r0, lsl #2
    201e:	f853 3c18 	ldr.w	r3, [r3, #-24]
    2022:	42b3      	cmp	r3, r6
    2024:	d001      	beq.n	202a <_sercom_get_hardware_index+0x2e>
	for (uint32_t i = 0; i < SERCOM_INST_NUM; i++) {
    2026:	3001      	adds	r0, #1
    2028:	e7f4      	b.n	2014 <_sercom_get_hardware_index+0x18>
			return i;
    202a:	b2c0      	uxtb	r0, r0
    202c:	e000      	b.n	2030 <_sercom_get_hardware_index+0x34>
		}
	}
	return 0;
    202e:	2000      	movs	r0, #0
}
    2030:	b007      	add	sp, #28
    2032:	bc70      	pop	{r4, r5, r6}
    2034:	4770      	bx	lr
    2036:	bf00      	nop
    2038:	00007008 	.word	0x00007008

0000203c <_sercom_usart_interrupt_handler>:
 * \internal Sercom interrupt handler
 *
 * \param[in] p The pointer to interrupt parameter
 */
static void _sercom_usart_interrupt_handler(struct _usart_async_device *device)
{
    203c:	b510      	push	{r4, lr}
	void *hw = device->hw;
    203e:	6984      	ldr	r4, [r0, #24]
	((Sercom *)hw)->USART.INTFLAG.reg = SERCOM_USART_INTFLAG_ERROR;
}

static inline bool hri_sercomusart_get_interrupt_DRE_bit(const void *const hw)
{
	return (((Sercom *)hw)->USART.INTFLAG.reg & SERCOM_USART_INTFLAG_DRE) >> SERCOM_USART_INTFLAG_DRE_Pos;
    2040:	7e23      	ldrb	r3, [r4, #24]

	if (hri_sercomusart_get_interrupt_DRE_bit(hw) && hri_sercomusart_get_INTEN_DRE_bit(hw)) {
    2042:	f013 0f01 	tst.w	r3, #1
    2046:	d003      	beq.n	2050 <_sercom_usart_interrupt_handler+0x14>
	((Sercom *)hw)->USART.INTENSET.reg = SERCOM_USART_INTENSET_DRE;
}

static inline bool hri_sercomusart_get_INTEN_DRE_bit(const void *const hw)
{
	return (((Sercom *)hw)->USART.INTENSET.reg & SERCOM_USART_INTENSET_DRE) >> SERCOM_USART_INTENSET_DRE_Pos;
    2048:	7da3      	ldrb	r3, [r4, #22]
    204a:	f013 0f01 	tst.w	r3, #1
    204e:	d112      	bne.n	2076 <_sercom_usart_interrupt_handler+0x3a>
	return (((Sercom *)hw)->USART.INTFLAG.reg & SERCOM_USART_INTFLAG_TXC) >> SERCOM_USART_INTFLAG_TXC_Pos;
    2050:	7e23      	ldrb	r3, [r4, #24]
		hri_sercomusart_clear_INTEN_DRE_bit(hw);
		device->usart_cb.tx_byte_sent(device);
	} else if (hri_sercomusart_get_interrupt_TXC_bit(hw) && hri_sercomusart_get_INTEN_TXC_bit(hw)) {
    2052:	f013 0f02 	tst.w	r3, #2
    2056:	d003      	beq.n	2060 <_sercom_usart_interrupt_handler+0x24>
	((Sercom *)hw)->USART.INTENSET.reg = SERCOM_USART_INTENSET_TXC;
}

static inline bool hri_sercomusart_get_INTEN_TXC_bit(const void *const hw)
{
	return (((Sercom *)hw)->USART.INTENSET.reg & SERCOM_USART_INTENSET_TXC) >> SERCOM_USART_INTENSET_TXC_Pos;
    2058:	7da3      	ldrb	r3, [r4, #22]
    205a:	f013 0f02 	tst.w	r3, #2
    205e:	d10f      	bne.n	2080 <_sercom_usart_interrupt_handler+0x44>
	return (((Sercom *)hw)->USART.INTFLAG.reg & SERCOM_USART_INTFLAG_RXC) >> SERCOM_USART_INTFLAG_RXC_Pos;
    2060:	7e23      	ldrb	r3, [r4, #24]
		hri_sercomusart_clear_INTEN_TXC_bit(hw);
		device->usart_cb.tx_done_cb(device);
	} else if (hri_sercomusart_get_interrupt_RXC_bit(hw)) {
    2062:	f013 0f04 	tst.w	r3, #4
    2066:	d015      	beq.n	2094 <_sercom_usart_interrupt_handler+0x58>
	SERCOM_CRITICAL_SECTION_LEAVE();
}

